{"contracts/FundingPool.sol":{"FundingPool":{"abi":[{"inputs":[],"name":"AccessControlBadConfirmation","type":"error"},{"inputs":[{"internalType":"address","name":"account","type":"address"},{"internalType":"bytes32","name":"neededRole","type":"bytes32"}],"name":"AccessControlUnauthorizedAccount","type":"error"},{"inputs":[],"name":"InvalidInitialization","type":"error"},{"inputs":[],"name":"NotInitializing","type":"error"},{"inputs":[{"internalType":"address","name":"owner","type":"address"}],"name":"OwnableInvalidOwner","type":"error"},{"inputs":[{"internalType":"address","name":"account","type":"address"}],"name":"OwnableUnauthorizedAccount","type":"error"},{"inputs":[],"name":"ReentrancyGuardReentrantCall","type":"error"},{"anonymous":false,"inputs":[{"indexed":true,"internalType":"uint256","name":"campaignId","type":"uint256"},{"indexed":false,"internalType":"address","name":"admin","type":"address"}],"name":"AutoRejectionOverridden","type":"event"},{"anonymous":false,"inputs":[{"indexed":true,"internalType":"uint256","name":"campaignId","type":"uint256"},{"indexed":true,"internalType":"address","name":"creator","type":"address"},{"indexed":false,"internalType":"string","name":"name","type":"string"},{"indexed":false,"internalType":"uint256","name":"fundingGoal","type":"uint256"},{"indexed":false,"internalType":"string","name":"projectCID","type":"string"},{"indexed":false,"internalType":"string","name":"heroMediaCID","type":"string"},{"indexed":false,"internalType":"string","name":"description","type":"string"},{"indexed":false,"internalType":"uint256","name":"createdAt","type":"uint256"}],"name":"CampaignCreated","type":"event"},{"anonymous":false,"inputs":[{"indexed":true,"internalType":"uint256","name":"campaignId","type":"uint256"},{"indexed":true,"internalType":"address","name":"creator","type":"address"},{"indexed":false,"internalType":"uint256","name":"refundedAmount","type":"uint256"}],"name":"CampaignDeleted","type":"event"},{"anonymous":false,"inputs":[{"indexed":true,"internalType":"uint256","name":"campaignId","type":"uint256"},{"indexed":false,"internalType":"enum FundingPool.Status","name":"status","type":"uint8"}],"name":"CampaignStatusUpdated","type":"event"},{"anonymous":false,"inputs":[{"indexed":true,"internalType":"uint256","name":"campaignId","type":"uint256"},{"indexed":true,"internalType":"address","name":"creator","type":"address"},{"indexed":false,"internalType":"bool","name":"allowed","type":"bool"}],"name":"EmergencyWithdrawalOverride","type":"event"},{"anonymous":false,"inputs":[{"indexed":true,"internalType":"uint256","name":"campaignId","type":"uint256"},{"indexed":true,"internalType":"address","name":"creator","type":"address"},{"indexed":false,"internalType":"uint256","name":"amount","type":"uint256"},{"indexed":false,"internalType":"uint256","name":"treasuryFee","type":"uint256"},{"indexed":false,"internalType":"uint256","name":"ownerFee","type":"uint256"},{"indexed":false,"internalType":"bool","name":"isCrowdfunded","type":"bool"}],"name":"FundsWithdrawn","type":"event"},{"anonymous":false,"inputs":[{"indexed":false,"internalType":"uint64","name":"version","type":"uint64"}],"name":"Initialized","type":"event"},{"anonymous":false,"inputs":[{"indexed":true,"internalType":"address","name":"user","type":"address"},{"indexed":false,"internalType":"bool","name":"verified","type":"bool"}],"name":"KYCStatusUpdated","type":"event"},{"anonymous":false,"inputs":[{"indexed":true,"internalType":"uint256","name":"campaignId","type":"uint256"},{"indexed":false,"internalType":"string","name":"description","type":"string"},{"indexed":false,"internalType":"uint256","name":"amount","type":"uint256"}],"name":"MilestoneAdded","type":"event"},{"anonymous":false,"inputs":[{"indexed":true,"internalType":"uint256","name":"campaignId","type":"uint256"},{"indexed":false,"internalType":"uint256","name":"milestoneId","type":"uint256"},{"indexed":false,"internalType":"uint256","name":"completedAt","type":"uint256"}],"name":"MilestoneCompleted","type":"event"},{"anonymous":false,"inputs":[{"indexed":true,"internalType":"uint256","name":"campaignId","type":"uint256"},{"indexed":false,"internalType":"uint256","name":"milestoneId","type":"uint256"},{"indexed":false,"internalType":"string","name":"proofCID","type":"string"}],"name":"MilestoneProofSubmitted","type":"event"},{"anonymous":false,"inputs":[{"indexed":true,"internalType":"uint256","name":"campaignId","type":"uint256"},{"indexed":false,"internalType":"uint256","name":"milestoneId","type":"uint256"},{"indexed":false,"internalType":"uint256","name":"rejectedAt","type":"uint256"}],"name":"MilestoneRejected","type":"event"},{"anonymous":false,"inputs":[{"indexed":true,"internalType":"address","name":"owner","type":"address"},{"indexed":false,"internalType":"uint256","name":"amount","type":"uint256"}],"name":"OwnerWithdrawal","type":"event"},{"anonymous":false,"inputs":[{"indexed":true,"internalType":"address","name":"previousOwner","type":"address"},{"indexed":true,"internalType":"address","name":"newOwner","type":"address"}],"name":"OwnershipTransferred","type":"event"},{"anonymous":false,"inputs":[{"indexed":true,"internalType":"uint256","name":"campaignId","type":"uint256"},{"indexed":true,"internalType":"address","name":"funder","type":"address"},{"indexed":false,"internalType":"uint256","name":"amount","type":"uint256"},{"indexed":false,"internalType":"uint256","name":"treasuryFee","type":"uint256"},{"indexed":false,"internalType":"uint256","name":"ownerFee","type":"uint256"},{"indexed":false,"internalType":"uint256","name":"timestamp","type":"uint256"},{"indexed":false,"internalType":"bool","name":"isTreasuryGrant","type":"bool"}],"name":"ProjectFunded","type":"event"},{"anonymous":false,"inputs":[{"indexed":false,"internalType":"uint256","name":"newLimit","type":"uint256"},{"indexed":false,"internalType":"uint256","name":"timestamp","type":"uint256"}],"name":"QuarterlyLimitUpdated","type":"event"},{"anonymous":false,"inputs":[{"indexed":true,"internalType":"bytes32","name":"role","type":"bytes32"},{"indexed":true,"internalType":"bytes32","name":"previousAdminRole","type":"bytes32"},{"indexed":true,"internalType":"bytes32","name":"newAdminRole","type":"bytes32"}],"name":"RoleAdminChanged","type":"event"},{"anonymous":false,"inputs":[{"indexed":true,"internalType":"bytes32","name":"role","type":"bytes32"},{"indexed":true,"internalType":"address","name":"account","type":"address"},{"indexed":true,"internalType":"address","name":"sender","type":"address"}],"name":"RoleGranted","type":"event"},{"anonymous":false,"inputs":[{"indexed":true,"internalType":"bytes32","name":"role","type":"bytes32"},{"indexed":true,"internalType":"address","name":"account","type":"address"},{"indexed":true,"internalType":"address","name":"sender","type":"address"}],"name":"RoleRevoked","type":"event"},{"anonymous":false,"inputs":[{"indexed":true,"internalType":"address","name":"recipient","type":"address"},{"indexed":false,"internalType":"uint256","name":"amount","type":"uint256"}],"name":"TransferFailed","type":"event"},{"anonymous":false,"inputs":[{"indexed":true,"internalType":"uint256","name":"campaignId","type":"uint256"},{"indexed":false,"internalType":"uint256","name":"amount","type":"uint256"}],"name":"TreasuryFundsRefunded","type":"event"},{"anonymous":false,"inputs":[{"indexed":true,"internalType":"uint256","name":"campaignId","type":"uint256"},{"indexed":false,"internalType":"uint256","name":"amount","type":"uint256"}],"name":"TreasuryGrantFunded","type":"event"},{"inputs":[],"name":"DEFAULT_ADMIN_ROLE","outputs":[{"internalType":"bytes32","name":"","type":"bytes32"}],"stateMutability":"view","type":"function"},{"inputs":[],"name":"KYC_ADMIN_ROLE","outputs":[{"internalType":"bytes32","name":"","type":"bytes32"}],"stateMutability":"view","type":"function"},{"inputs":[],"name":"KYC_WITHDRAWAL_THRESHOLD","outputs":[{"internalType":"uint256","name":"","type":"uint256"}],"stateMutability":"view","type":"function"},{"inputs":[],"name":"VOTER_ROLE","outputs":[{"internalType":"bytes32","name":"","type":"bytes32"}],"stateMutability":"view","type":"function"},{"inputs":[],"name":"aiOracle","outputs":[{"internalType":"contract IAIOracle","name":"","type":"address"}],"stateMutability":"view","type":"function"},{"inputs":[{"internalType":"uint256","name":"_campaignId","type":"uint256"},{"internalType":"string[]","name":"_descriptions","type":"string[]"},{"internalType":"uint256[]","name":"_amounts","type":"uint256[]"}],"name":"approveCustomMilestones","outputs":[],"stateMutability":"nonpayable","type":"function"},{"inputs":[{"internalType":"uint256","name":"_campaignId","type":"uint256"},{"internalType":"uint256","name":"_milestoneId","type":"uint256"}],"name":"approveMilestone","outputs":[],"stateMutability":"nonpayable","type":"function"},{"inputs":[{"internalType":"uint256","name":"_campaignId","type":"uint256"}],"name":"autoRejectUnreviewedTreasuryGrants","outputs":[],"stateMutability":"nonpayable","type":"function"},{"inputs":[{"internalType":"uint256","name":"","type":"uint256"},{"internalType":"uint256","name":"","type":"uint256"}],"name":"campaignContributors","outputs":[{"internalType":"address","name":"","type":"address"}],"stateMutability":"view","type":"function"},{"inputs":[],"name":"campaignIds","outputs":[{"internalType":"uint256","name":"","type":"uint256"}],"stateMutability":"view","type":"function"},{"inputs":[{"internalType":"uint256","name":"","type":"uint256"}],"name":"campaigns","outputs":[{"internalType":"string","name":"name","type":"string"},{"internalType":"address","name":"creator","type":"address"},{"internalType":"uint256","name":"fundingGoal","type":"uint256"},{"internalType":"uint256","name":"deadline","type":"uint256"},{"internalType":"uint256","name":"amountRaised","type":"uint256"},{"internalType":"uint256","name":"crowdfundedAmount","type":"uint256"},{"internalType":"enum FundingPool.Status","name":"status","type":"uint8"},{"internalType":"enum FundingPool.FundingType","name":"fundingType","type":"uint8"},{"internalType":"uint256","name":"withdrawnAmount","type":"uint256"},{"internalType":"uint256","name":"crowdfundedWithdrawnAmount","type":"uint256"},{"internalType":"string","name":"projectCID","type":"string"},{"internalType":"string","name":"heroMediaCID","type":"string"},{"internalType":"string","name":"description","type":"string"},{"internalType":"uint256","name":"createdAt","type":"uint256"},{"internalType":"uint256","name":"applicationExpiry","type":"uint256"}],"stateMutability":"view","type":"function"},{"inputs":[{"internalType":"string","name":"_name","type":"string"},{"internalType":"uint256","name":"_fundingGoal","type":"uint256"},{"internalType":"enum FundingPool.FundingType","name":"_fundingType","type":"uint8"},{"internalType":"string[]","name":"_milestoneDescriptions","type":"string[]"},{"internalType":"uint256[]","name":"_milestoneAmounts","type":"uint256[]"},{"internalType":"string","name":"_projectCID","type":"string"},{"internalType":"string","name":"_heroMediaCID","type":"string"},{"internalType":"string","name":"_description","type":"string"}],"name":"createCampaign","outputs":[{"internalType":"uint256","name":"","type":"uint256"}],"stateMutability":"nonpayable","type":"function"},{"inputs":[],"name":"currentQuarterStart","outputs":[{"internalType":"uint256","name":"","type":"uint256"}],"stateMutability":"view","type":"function"},{"inputs":[],"name":"daoTreasury","outputs":[{"internalType":"address","name":"","type":"address"}],"stateMutability":"view","type":"function"},{"inputs":[{"internalType":"uint256","name":"_campaignId","type":"uint256"}],"name":"deleteCampaign","outputs":[],"stateMutability":"nonpayable","type":"function"},{"inputs":[{"internalType":"address","name":"","type":"address"},{"internalType":"uint256","name":"","type":"uint256"}],"name":"emergencyWithdrawalOverrides","outputs":[{"internalType":"bool","name":"","type":"bool"}],"stateMutability":"view","type":"function"},{"inputs":[{"internalType":"address","name":"","type":"address"}],"name":"failedTransferBalances","outputs":[{"internalType":"uint256","name":"","type":"uint256"}],"stateMutability":"view","type":"function"},{"inputs":[{"internalType":"uint256","name":"_campaignId","type":"uint256"}],"name":"fundProject","outputs":[],"stateMutability":"payable","type":"function"},{"inputs":[],"name":"getAvailableTreasuryFunds","outputs":[{"internalType":"uint256","name":"","type":"uint256"}],"stateMutability":"view","type":"function"},{"inputs":[{"internalType":"uint256","name":"_campaignId","type":"uint256"}],"name":"getCampaignMilestones","outputs":[{"components":[{"internalType":"string","name":"description","type":"string"},{"internalType":"uint256","name":"amount","type":"uint256"},{"internalType":"bool","name":"completed","type":"bool"},{"internalType":"uint256","name":"completedAt","type":"uint256"},{"internalType":"string","name":"proofCID","type":"string"},{"internalType":"uint256","name":"rejectedAt","type":"uint256"}],"internalType":"struct FundingPool.Milestone[]","name":"","type":"tuple[]"}],"stateMutability":"view","type":"function"},{"inputs":[{"internalType":"uint256","name":"_campaignId","type":"uint256"}],"name":"getContributors","outputs":[{"internalType":"address[]","name":"","type":"address[]"}],"stateMutability":"view","type":"function"},{"inputs":[{"internalType":"uint256","name":"_campaignId","type":"uint256"}],"name":"getCrowdfundedAmount","outputs":[{"internalType":"uint256","name":"","type":"uint256"}],"stateMutability":"view","type":"function"},{"inputs":[{"internalType":"bytes32","name":"role","type":"bytes32"}],"name":"getRoleAdmin","outputs":[{"internalType":"bytes32","name":"","type":"bytes32"}],"stateMutability":"view","type":"function"},{"inputs":[{"internalType":"uint256","name":"_campaignId","type":"uint256"},{"internalType":"address","name":"_contributor","type":"address"}],"name":"getUserContribution","outputs":[{"internalType":"uint256","name":"","type":"uint256"}],"stateMutability":"view","type":"function"},{"inputs":[{"internalType":"bytes32","name":"role","type":"bytes32"},{"internalType":"address","name":"account","type":"address"}],"name":"grantRole","outputs":[],"stateMutability":"nonpayable","type":"function"},{"inputs":[{"internalType":"bytes32","name":"role","type":"bytes32"},{"internalType":"address","name":"account","type":"address"}],"name":"hasRole","outputs":[{"internalType":"bool","name":"","type":"bool"}],"stateMutability":"view","type":"function"},{"inputs":[{"internalType":"address","name":"_daoTreasury","type":"address"}],"name":"initialize","outputs":[],"stateMutability":"nonpayable","type":"function"},{"inputs":[{"internalType":"address","name":"","type":"address"}],"name":"isKYCVerified","outputs":[{"internalType":"bool","name":"","type":"bool"}],"stateMutability":"view","type":"function"},{"inputs":[{"internalType":"uint256","name":"_campaignId","type":"uint256"}],"name":"overrideAutoRejection","outputs":[],"stateMutability":"nonpayable","type":"function"},{"inputs":[],"name":"owner","outputs":[{"internalType":"address","name":"","type":"address"}],"stateMutability":"view","type":"function"},{"inputs":[{"internalType":"uint256","name":"_amount","type":"uint256"}],"name":"ownerWithdraw","outputs":[],"stateMutability":"nonpayable","type":"function"},{"inputs":[],"name":"quarterlyFundsUsed","outputs":[{"internalType":"uint256","name":"","type":"uint256"}],"stateMutability":"view","type":"function"},{"inputs":[],"name":"quarterlyTreasuryLimit","outputs":[{"internalType":"uint256","name":"","type":"uint256"}],"stateMutability":"view","type":"function"},{"inputs":[{"internalType":"uint256","name":"_campaignId","type":"uint256"}],"name":"refundUnspentFunds","outputs":[],"stateMutability":"nonpayable","type":"function"},{"inputs":[{"internalType":"uint256","name":"_campaignId","type":"uint256"},{"internalType":"uint256","name":"_milestoneId","type":"uint256"}],"name":"rejectMilestone","outputs":[],"stateMutability":"nonpayable","type":"function"},{"inputs":[],"name":"renounceOwnership","outputs":[],"stateMutability":"nonpayable","type":"function"},{"inputs":[{"internalType":"bytes32","name":"role","type":"bytes32"},{"internalType":"address","name":"callerConfirmation","type":"address"}],"name":"renounceRole","outputs":[],"stateMutability":"nonpayable","type":"function"},{"inputs":[{"internalType":"bytes32","name":"role","type":"bytes32"},{"internalType":"address","name":"account","type":"address"}],"name":"revokeRole","outputs":[],"stateMutability":"nonpayable","type":"function"},{"inputs":[{"internalType":"address","name":"_aiOracle","type":"address"}],"name":"setAIOracle","outputs":[],"stateMutability":"nonpayable","type":"function"},{"inputs":[{"internalType":"uint256","name":"_campaignId","type":"uint256"},{"internalType":"address","name":"_creator","type":"address"},{"internalType":"bool","name":"_allowed","type":"bool"}],"name":"setEmergencyWithdrawalOverride","outputs":[],"stateMutability":"nonpayable","type":"function"},{"inputs":[{"internalType":"address","name":"user","type":"address"},{"internalType":"bool","name":"status","type":"bool"}],"name":"setKYCVerified","outputs":[],"stateMutability":"nonpayable","type":"function"},{"inputs":[{"internalType":"uint256","name":"_campaignId","type":"uint256"},{"internalType":"uint256","name":"_milestoneId","type":"uint256"},{"internalType":"string","name":"_proofCID","type":"string"}],"name":"submitMilestoneProof","outputs":[],"stateMutability":"nonpayable","type":"function"},{"inputs":[{"internalType":"bytes4","name":"interfaceId","type":"bytes4"}],"name":"supportsInterface","outputs":[{"internalType":"bool","name":"","type":"bool"}],"stateMutability":"view","type":"function"},{"inputs":[{"internalType":"address","name":"newOwner","type":"address"}],"name":"transferOwnership","outputs":[],"stateMutability":"nonpayable","type":"function"},{"inputs":[{"internalType":"address","name":"_user","type":"address"},{"internalType":"bool","name":"_verified","type":"bool"}],"name":"updateKYCStatus","outputs":[],"stateMutability":"nonpayable","type":"function"},{"inputs":[],"name":"updateTreasuryLimit","outputs":[],"stateMutability":"nonpayable","type":"function"},{"inputs":[{"internalType":"address","name":"","type":"address"},{"internalType":"uint256","name":"","type":"uint256"}],"name":"userContributions","outputs":[{"internalType":"uint256","name":"","type":"uint256"}],"stateMutability":"view","type":"function"},{"inputs":[{"internalType":"uint256","name":"_campaignId","type":"uint256"}],"name":"voteCampaign","outputs":[],"stateMutability":"nonpayable","type":"function"},{"inputs":[{"internalType":"address","name":"_recipient","type":"address"}],"name":"withdrawFailedTransfers","outputs":[],"stateMutability":"nonpayable","type":"function"},{"inputs":[{"internalType":"uint256","name":"_campaignId","type":"uint256"}],"name":"withdrawFunds","outputs":[],"stateMutability":"nonpayable","type":"function"},{"inputs":[{"internalType":"uint256","name":"_campaignId","type":"uint256"},{"internalType":"uint256","name":"_milestoneId","type":"uint256"}],"name":"withdrawMilestoneFunds","outputs":[],"stateMutability":"nonpayable","type":"function"},{"stateMutability":"payable","type":"receive"}],"evm":{"bytecode":{"linkReferences":{},"object":"608080604052346015576147ee908161001b8239f35b600080fdfe60808060405260043610156100b9575b50361561001b57600080fd5b600080516020614739833981519152546001600160a01b0316331461003c57005b6100446143f2565b6007546276a70081018091116100a357421015610095575b7f1f92cca502dfdcdd42ad90d554b27f8de184feca1dd0b0746029b1b35285bb2b6040600a4704806006558151908152426020820152a1005b42600755600060085561005c565b634e487b7160e01b600052601160045260246000fd5b60003560e01c90816301ffc9a7146136265750806302d7fd92146135eb578063095d16b2146134e9578063141961bc146133a2578063155dd5ee14612f2f5780631aa632b314612e9d57806320913da514612dad578063248a9ca314612d8f5780632855e69314612d715780632c3e631714612ccd5780632f2ff15d14612c9c57806331b221cd14612c7357806333f707d114612ba357806336568abe14612b5d578063370560be14612a6b5780633abe6bd7146129d65780633c1ab00f146129185780633fb0d90f146128015780635117e338146127b95780635130691b1461276c57806353df9d76146126b557806354b7636e146126765780635f0ede38146126535780635f7ec46d146124175780636c1739ce146123f95780636c563abe1461207d578063715018a6146120135780637331fa9514611fcb5780637597019314611b7b57806379022a9f14611b52578063837b2a4d14611b2f5780638da5cb5b14611af957806391d1485414611a9f578063928992361461190e5780639f791e5f1461159d578063a217fddf14611581578063a94015c814611546578063b19954ca146114af578063bfe26612146112e1578063c4d66de8146110d3578063c6b647b9146110b5578063c966d40214611086578063d547741f14611050578063d59161ab14611032578063f21539d514611019578063f2fde38b14610fee578063f37beeb414610fb4578063f40ed0d814610f35578063f59b8db3146104b7578063f91e4b29146103465763ff96de21146102f7573861000f565b346103415761030536613954565b906000526003602052604060002080548210156103415760209161032891613979565b905460405160039290921b1c6001600160a01b03168152f35b600080fd5b346103415760203660031901126103415760043560005260016020526007604060002001805490610376826136b5565b916103846040519384613694565b80835260208301809260005260206000206000915b83831061044f57848660405191829160208301906020845251809152604083019060408160051b85010192916000905b8282106103d857505050500390f35b919360019193955060208091603f1989820301855287519060a080610439610409855160c0865260c08601906138e7565b868601518786015260408601511515604086015260608601516060860152608086015185820360808701526138e7565b93015191015296019201920185949391926103c9565b6006602060019260405161046281613679565b61046b86613843565b8152848601548382015260ff600287015416151560408201526003860154606082015261049a60048701613843565b6080820152600586015460a0820152815201920192019190610399565b3461034157610100366003190112610341576004356001600160401b038111610341576104e89036906004016136e7565b602435604435916002831015610341576064356001600160401b0381116103415761051790369060040161372e565b6084356001600160401b038111610341576105369036906004016137ac565b60a4356001600160401b038111610341576105559036906004016136e7565b9160c4356001600160401b038111610341576105759036906004016136e7565b9060e4356001600160401b038111610341576105959036906004016136e7565b926000600189149889600014610f2357674563918244f400008911610ea4575b6105c86105c0613e0c565b8a1115613ed5565b83511580610e9b575b15610e44575b81546000198114610e305760010180835582526001602052604082209188516001600160401b038111610e1c5761060e8454613809565b601f8111610dec575b506020601f8211600114610d8a579080610646928491610d7f575b508160011b916000199060031b1c19161790565b83555b506001820180546001600160a01b0319163317905560028201899055801580610d5e575b80610d52575b15610d3b5760001960038301555b60068201805461ffff191660089290921b61ff00169190911790558551600090600a8301906001600160401b038111610bed576106be8254613809565b601f8111610d0b575b506020601f8211600114610ca95790806106f5928591610c9e57508160011b916000199060031b1c19161790565b90555b600b820185516001600160401b038111610bed576107168254613809565b601f8111610c6e575b506020601f8211600114610c0c57908061074d928591610c0157508160011b916000199060031b1c19161790565b90555b600c820186516001600160401b038111610bed5761076e8254613809565b601f8111610bb2575b506020601f8211600114610b505790806107a5928591610b4557508160011b916000199060031b1c19161790565b90555b5042600d8201558815610b3b576212750042018042116100a357600e90915b015560009715610aea5750508554808752600160205260408720601e870290871591888104601e14831715610ad657606490049160288902908982046028141715610ad657897f9121563d1c77025026a509210d3841be6bcd23ce5b74a5cc226e13e68fa3a09596947fbf293db00f4de65b181a066ecc2f8bb81fb7174b517fd8085700e259ad00db1b60a0610ab396610ac1999660209f610a3160076064610aa59a049301878760806040519761087e89613679565b6108e96040998a516108908c82613694565b60178152602076050726f6f66206f6620436f6e63657074206f72204d565604c1b90820152815260208390820152888b8201528860608201526020988b516108d88b82613694565b818152858301528c8201528661404f565b8383838b518c815260178d82015276050726f6f66206f6620436f6e63657074206f72204d565604c1b6060820152848b820152a261097b8d8a519061092d82613679565b8b516109398d82613694565b601881527710995d184bd41c9bdd1bdd1e5c194810dbdb5c1b195d195960421b8b8201528252838a830152808c8301528060608301528b516108d88b82613694565b88519089825260188a8301527710995d184bd41c9bdd1bdd1e5c194810dbdb5c1b195d195960421b606083015287820152a28451906109b982613679565b85516109c6606082613694565b602a81527f46696e616c2050726f64756374204c61756e6368656420616e64205075626c698582015269636c7920557361626c6560b01b878201528252848483015289868301528960608301528551610a1f8582613694565b8a81526080830152898783015261404f565b602a8351938085528401527f46696e616c2050726f64756374204c61756e6368656420616e64205075626c69606084015269636c7920557361626c6560b01b6080840152820152a25b54988997610a936040519a60c08c5260c08c01906138e7565b918c8b015289820360408b01526138e7565b9087820360608901526138e7565b9085820360808701526138e7565b924260a08201528033940390a3604051908152f35b634e487b7160e01b8a52601160045260248afd5b610ac192610aa560209984610ab3947f9121563d1c77025026a509210d3841be6bcd23ce5b74a5cc226e13e68fa3a095989651610b29575b5050610a7a565b610b349183546142ca565b8b80610b22565b600e6000916107c7565b90508901518e610632565b82845280842090601f198316855b8b828210610b9a5750509083600194939210610b81575b5050811b0190556107a8565b8a015160001960f88460031b161c191690558d80610b75565b60018495602093958493015181550194019201610b5e565b610bdd9083855260208520601f840160051c81019160208510610be3575b601f0160051c0190613a2c565b8c610777565b9091508190610bd0565b634e487b7160e01b83526041600452602483fd5b90508801518e610632565b82845280842090601f198316855b8a828210610c565750509083600194939210610c3d575b5050811b019055610750565b89015160001960f88460031b161c191690558d80610c31565b60018495602093958493015181550194019201610c1a565b610c989083855260208520601f840160051c81019160208510610be357601f0160051c0190613a2c565b8c61071f565b90508a01518e610632565b82845280842090601f198316855b8c828210610cf35750509083600194939210610cda575b5050811b0190556106f8565b8b015160001960f88460031b161c191690558d80610cce565b60018495602093958493015181550194019201610cb7565b610d359083855260208520601f840160051c81019160208510610be357601f0160051c0190613a2c565b8c6106c7565b62278d0042018042116100a3576003830155610681565b50600160005414610673565b50600080516020614739833981519152546001600160a01b0316331461066d565b90508b01518e610632565b84835280832090601f198316845b8d828210610dd45750509083600194939210610dbb575b5050811b018355610649565b8c015160001960f88460031b161c191690558d80610daf565b60018495602093958493015181550194019201610d98565b610e169085845260208420601f840160051c81019160208510610be357601f0160051c0190613a2c565b8c610617565b634e487b7160e01b82526041600452602482fd5b634e487b7160e01b83526011600452602483fd5b60405162461bcd60e51b815260206004820152602960248201527f5472656173757279204772616e74732075736520707265646566696e6564206d604482015268696c6573746f6e657360b81b6064820152608490fd5b508251156105d1565b338252600960205260ff6040832054166105b55760405162461bcd60e51b815260206004820152603860248201527f4b594320766572696669636174696f6e20726571756972656420666f7220547260448201527f656173757279204772616e7473206f76657220352045544800000000000000006064820152608490fd5b610f3084518451146139ea565b6105d7565b3461034157604036600319011261034157610f4e613928565b7f2df1cad2a2659e001c3804c872f69655356013e35c18c2e77a5d568078ab788f6020610f7961396a565b92610f82613f93565b6001600160a01b031660008181526009835260409020805460ff191660ff86151516179055925b6040519015158152a2005b34610341576020366003190112610341576001600160a01b03610fd5613928565b16600052600b6020526020604060002054604051908152f35b346103415760203660031901126103415761101761100a613928565b6110126143f2565b613e5f565b005b34610341576000366003190112610341576100446143f2565b34610341576000366003190112610341576020600854604051908152f35b346103415760403660031901126103415761101760043561106f61393e565b9061108161107c82613d5c565b614005565b61464a565b346103415760203660031901126103415760043560005260016020526020600560406000200154604051908152f35b34610341576000366003190112610341576020600754604051908152f35b34610341576020366003190112610341576110ec613928565b600080516020614799833981519152549060ff8260401c1615916001600160401b038116801590816112d9575b60011490816112cf575b1590816112c6575b506112b55767ffffffffffffffff1981166001176000805160206147998339815191525582611288575b506001600160a01b031680156112435761116d6146ea565b6111756146ea565b60016000805160206147798339815191525561118f6146ea565b6111976146ea565b6111a033613e5f565b6111a86146ea565b6111b133614428565b506111bb336144da565b506bffffffffffffffffffffffff60a01b6004541617600455600a47046006554260075560006008556111ea57005b68ff0000000000000000196000805160206147998339815191525416600080516020614799833981519152557fc7f505b2f371ae2175ee4913f4499e1f2633a7b5936321eed1cdaeb6115181d2602060405160018152a1005b60405162461bcd60e51b815260206004820152601b60248201527f44414f2054726561737572792063616e6e6f74206265207a65726f00000000006044820152606490fd5b68ffffffffffffffffff191668010000000000000001176000805160206147998339815191525582611155565b63f92ee8a960e01b60005260046000fd5b9050158461112b565b303b159150611123565b849150611119565b34610341576112ef36613954565b906112f86143b6565b80600052600160205260406000209161131e60018060a01b036001850154163314613b02565b60ff600684015460081c1690600282101561149957611342600161135793146139a7565b6007840161135281548310613cb4565b613cf4565b5060ff600282015416156114545760016008910192600084549461137c861515613b8d565b674563918244f40000861161140a575b5501611399838254613c69565b90556113b5600080808086335af16113af613c39565b50613c76565b6040519182526000602083015260006040830152600060608301527ffd8443316dcaf390c4480028d81568298bb47a1d097857f2f1fbd54b0676334560803393a3600160008051602061477983398151915255005b338252600960205260ff604083205416801561142f575b61142a90613bd0565b61138c565b50338252600a6020526040822085835260205261142a60ff6040842054169050611421565b60405162461bcd60e51b815260206004820152601760248201527f4d696c6573746f6e65206e6f7420636f6d706c657465640000000000000000006044820152606490fd5b634e487b7160e01b600052602160045260246000fd5b34610341576060366003190112610341576004356114cb61393e565b906044359182151590818403610341577f885a8505418be302bb27e84bcd18370ff6c55e6300a82c065e4abc658c0e54809161153d60209261150b613f93565b60018060a01b03169586600052600a8452604060002086600052845260406000209060ff801983541691151516179055565b604051908152a3005b346103415760003660031901126103415760206040517f72c3eec1760bf69946625c2d4fb8e44e2c806345041960b434674fb9ab3976cf8152f35b3461034157600036600319011261034157602060405160008152f35b34610341576060366003190112610341576024356004356044356001600160401b038111610341576115d39036906004016136e7565b81600052600160205260406000206115f860018060a01b036001830154163314613b02565b60ff600682015460081c169060028210156114995760078591611620600161162d95146139a7565b0161135281548310613cb4565b5061163f60ff60028301541615613d10565b600581015480159081156118f6575b50156118b9576005546001600160a01b0316806117dd575b50600401928151936001600160401b0385116117c7576116868154613809565b601f8111611795575b506020601f861160011461170f57857faa0da233cbe2f0fc818e5ddb1128d22fcf012df42cd15bbacbfdaac288c0f1df95966116e09260009161170457508160011b916000199060031b1c19161790565b90555b6116ff60405192839283526040602084015260408301906138e7565b0390a2005b905085015188610632565b601f1986169082600052806000209160005b81811061177d57509187917faa0da233cbe2f0fc818e5ddb1128d22fcf012df42cd15bbacbfdaac288c0f1df979860019410611764575b5050811b0190556116e3565b86015160001960f88460031b161c191690558780611758565b9192602060018192868a015181550194019201611721565b6117c190826000526020600020601f880160051c81019160208910610be357601f0160051c0190613a2c565b8561168f565b634e487b7160e01b600052604160045260246000fd5b602060405180926349b0ce4160e01b825286600483015287602483015260606044830152818061181060648201896138e7565b03915afa9081156118ad5760009161186b575b501561182f5784611666565b60405162461bcd60e51b81526020600482015260146024820152731052481d985b1a59185d1a5bdb8819985a5b195960621b6044820152606490fd5b6020813d6020116118a5575b8161188460209383613694565b810103126118a1575190811515820361189e575085611823565b80fd5b5080fd5b3d9150611877565b6040513d6000823e3d90fd5b60405162461bcd60e51b81526020600482015260156024820152742932b9bab136b4b9b9b4b7b7103a37b79039b7b7b760591b6044820152606490fd5b905062093a8081018091116100a3574210158561164e565b3461034157602036600319011261034157600435806000526001602052604060002060ff600682015460081c1660028110156114995761195160018492146139a7565b60009182916007820191835b83548110156119dd576119708185613cf4565b50600581015480151590816119cd575b816119b5575b50611995575b5060010161195d565b600091955060016119aa910196875490613c69565b95556001938461198c565b905062093a8081018091116100a35742101588611986565b600283015460ff16159150611980565b5084908480611a96575b6119ed57005b600860048201916119ff848454613b80565b8093550155611a1081600854613b80565b60085560008080808460018060a01b03600454165af1611a2e613c39565b5015611a615760207f65d1bf7fe298dda4759cdbf89b1ef35e330a7d44469b44f8913a712067aeee1f91604051908152a2005b60405162461bcd60e51b815260206004820152600d60248201526c1499599d5b990819985a5b1959609a1b6044820152606490fd5b508115156119e7565b3461034157604036600319011261034157611ab861393e565b60043560005260008051602061475983398151915260205260406000209060018060a01b0316600052602052602060ff604060002054166040519015158152f35b3461034157600036600319011261034157600080516020614739833981519152546040516001600160a01b039091168152602090f35b34610341576000366003190112610341576020604051674563918244f400008152f35b34610341576000366003190112610341576004546040516001600160a01b039091168152602090f35b34610341576020366003190112610341573360009081527fb7db2dd08fcb62d0c9e08c51941cae53c267786a0b75803fb7960902fc8ef97d60205260409020546004359060ff1615611fb157611bcf6143b6565b8060005260016020526040600020906001820160018060a01b0381541615611f6c5760009260ff600682015460081c166002811015611f5857600114611ecf575b60058101906009825491015490818111611d29575b50505060207f331464ad6907c32abf6bb8a07dc4e14e4aea5707ff6b23ed71e7d82fe70dcf979183600052600182526000600e60408220611c6581613a43565b826001820155826002820155826003820155826004820155826005820155826006820155611c9560078201613a92565b826008820155826009820155611cad600a8201613a43565b611cb9600b8201613a43565b611cc5600c8201613a43565b82600d82015501558360005260038252604060002080546000825580611d0e575b5050546040519485526001600160a01b031693a3600160008051602061477983398151915255005b611d22916000528360002090810190613a2c565b8580611ce6565b611d4191611d3a9195939495613b80565b8095613c69565b8160005260036020526040600020906040518083602082955493848152019060005260206000209260005b818110611ead575050611d8192500383613694565b60005b8251811015611e7b576001600160a01b03611d9f8285613e4b565b511680600052600260205260406000208560005260205260406000205480158015611dd0575b505050600101611d84565b8982029182048a1417156100a35786549060008215611e6757509060019392910481600052600260205260406000208760005260205260006040812055600080808084865af1611e1e613c39565b5015611e2d575b829350611dc5565b60206000805160206147198339815191529183600052600b82526040600020611e57828254613c69565b9055604051908152a28880611e25565b634e487b7160e01b81526012600452602490fd5b50945050917f331464ad6907c32abf6bb8a07dc4e14e4aea5707ff6b23ed71e7d82fe70dcf9791506020909185611c25565b84546001600160a01b0316835260019485019487945060209093019201611d6c565b9250611ee46004840154600885015490613b80565b928315611c1057611ef784600854613b80565b60085560008080808760018060a01b03600454165af1611f15613c39565b50611c105760405162461bcd60e51b8152602060048201526016602482015275151c99585cdd5c9e481c99599d5b990819985a5b195960521b6044820152606490fd5b634e487b7160e01b85526021600452602485fd5b60405162461bcd60e51b815260206004820152601760248201527f43616d706169676e20646f6573206e6f742065786973740000000000000000006044820152606490fd5b63e2517d3f60e01b60005233600452600060245260446000fd5b34610341576040366003190112610341576001600160a01b03611fec613928565b16600052600260205260406000206024356000526020526020604060002054604051908152f35b346103415760003660031901126103415761202c6143f2565b60008051602061473983398151915280546001600160a01b031981169091556000906001600160a01b03167f8be0079c531659141344cd1fd0a4f28419497f9722a3daafe3b4186f6b6457e08280a3005b6020366003190112610341576004356120946143b6565b8060005260016020526040600020906006820160ff81541660038110156114995760016120c19114613b3c565b600383015442116123b45734158061237f57603234023481046032036100a3576103e890049081159081612376575b5061236e575b600a3402348104600a036100a3576103e8900491602834023481046028036100a3576103e861212791049234613b80565b9460008080808760018060a01b03600454165af1612143613c39565b5015612321575b60008080808660018060a01b0360008051602061473983398151915254165af1612172613c39565b50156122ba575b60ff825460081c166002811015611499576122a55760040161219c868254613c69565b90555b33600052600260205260406000208460005260205260406000206121c4868254613c69565b90553360005260026020526040600020846000526020528460406000205414612252575b5460081c60ff1690600282101561149957600192604051958652602086015260408501524260608501521460808301527f4852e950ec3aedaf09a6ad7e78a1bfaeceaf997176ca098ad13194819a8c4ce560a03393a3600160008051602061477983398151915255005b836000526003602052604060002090815491600160401b8310156117c7578261228291600160ff95018155613979565b81546001600160a01b0360039290921b91821b19163390911b17905590506121e8565b6005016122b3868254613c69565b905561219f565b60018060a01b036000805160206147398339815191525416600052600b60205260406000206122ea848254613c69565b905560018060a01b0360008051602061473983398151915254166000805160206147198339815191526020604051868152a2612179565b60018060a01b0360045416600052600b6020526040600020612344858254613c69565b905560018060a01b03600454166000805160206147198339815191526020604051878152a261214a565b5060016120f6565b905015856120f0565b60405162461bcd60e51b815260206004820152600d60248201526c09aeae6e840e6cadcc8408aa89609b1b6044820152606490fd5b60405162461bcd60e51b815260206004820152601760248201527f46756e64696e6720646561646c696e65207061737365640000000000000000006044820152606490fd5b34610341576000366003190112610341576020600054604051908152f35b3461034157602036600319011261034157600435612433613f21565b80600052600160205260406000206006810190815460ff81169060038210156114995761246260ff9215613d7d565b60081c1660028110156114995760011490811591612645575b50156125f55760ff9060018219825416178155827f1289cf89aaaed53d6590c1b7996ba434edb31dcbd322d0b88ff0c02f64bbdeef602060405160018152a25460081c166002811015611499576001146124d157005b80600052600160205260406000206007546276a70081018091116100a3574210156125b0575b6008546002820161250a81548093613c69565b6006541061256b5761255e8260047f4608424e4f38941a5879b3efe268417eb8b5724e0b5fdbc1e471f4140ebada5a95612548602096471015613ed5565b01612554828254613c69565b9055600854613c69565b60085554604051908152a2005b60405162461bcd60e51b815260206004820152601760248201527f4578636565647320717561727465726c79206c696d69740000000000000000006044820152606490fd5b4260075560006008557f1f92cca502dfdcdd42ad90d554b27f8de184feca1dd0b0746029b1b35285bb2b6040600a4704806006558151908152426020820152a16124f7565b60405162461bcd60e51b815260206004820152602260248201527f5472656173757279204772616e74732072657175697265206d696c6573746f6e604482015261657360f01b6064820152608490fd5b60079150015415158361247b565b3461034157600036600319011261034157602061266e613e0c565b604051908152f35b34610341576020366003190112610341576001600160a01b03612697613928565b166000526009602052602060ff604060002054166040519015158152f35b34610341576040366003190112610341576126ce613928565b6126d661396a565b906126df613f93565b6001600160a01b03169081156127355760207f2df1cad2a2659e001c3804c872f69655356013e35c18c2e77a5d568078ab788f918360005260098252610fa98160406000209060ff801983541691151516179055565b60405162461bcd60e51b815260206004820152600f60248201526e496e76616c6964206164647265737360881b6044820152606490fd5b34610341576040366003190112610341576001600160a01b0361278d613928565b16600052600a6020526040600020602435600052602052602060ff604060002054166040519015158152f35b34610341576040366003190112610341576001600160a01b036127da61393e565b16600052600260205260406000206004356000526020526020604060002054604051908152f35b346103415760203660031901126103415761281a613928565b6128226143f2565b61282a6143b6565b6001600160a01b0381166000818152600b6020526040902054909181156128d35760008080938193868352600b6020528260408120555af161286a613c39565b501561288457600160008051602061477983398151915255005b60405162461bcd60e51b815260206004820152602160248201527f4661696c6564207472616e73666572207769746864726177616c206661696c656044820152601960fa1b6064820152608490fd5b60405162461bcd60e51b815260206004820152601f60248201527f4e6f206661696c6564207472616e736665727320746f207769746864726177006044820152606490fd5b3461034157602036600319011261034157600435600052600360205260406000206040518060208354918281520190819360005260206000209060005b8181106129b7575050508161296b910382613694565b6040519182916020830190602084525180915260408301919060005b818110612995575050500390f35b82516001600160a01b0316845285945060209384019390920191600101612987565b82546001600160a01b0316845260209093019260019283019201612955565b34610341576129e436613954565b6129ec613f21565b816000526001602052604060002060ff600682015460081c1691600283101561149957612a4581600760409461162060017f99c1e384941f7e42e3f9fe91b348aa32f8105b4e750b515d7e0d41ee8b66b0cc98146139a7565b50612a5760ff60028301541615613d10565b6005429101558151908152426020820152a2005b3461034157602036600319011261034157600435612a87613f21565b80600052600160205260406000206006810190815460ff8160081c1690600282101561149957612abb600160ff93146139a7565b16600381101561149957600203612b2057600e0190612add8254421015613dc0565b60ff198154169055621275004201908142116100a357557f379fb972d68cb215ef30793b39641170d26b4747138827dadc647d7cd7f0c4cf6020604051338152a2005b60405162461bcd60e51b815260206004820152601560248201527410d85b5c185a59db881b9bdd081c995a9958dd1959605a1b6044820152606490fd5b3461034157604036600319011261034157612b7661393e565b336001600160a01b03821603612b92576110179060043561464a565b63334bd91960e11b60005260046000fd5b3461034157602036600319011261034157600435612bbf6143f2565b612bc76143b6565b478111612c3957612bf960008080808560018060a01b0360008051602061473983398151915254165af16113af613c39565b6040519081527fa919fadcfa556a012bab31b15f596ea7ccd397adbf10e15f176db9055ab361c460203392a2600160008051602061477983398151915255005b60405162461bcd60e51b8152602060048201526012602482015271496e73756666696369656e742066756e647360701b6044820152606490fd5b34610341576000366003190112610341576005546040516001600160a01b039091168152602090f35b3461034157604036600319011261034157611017600435612cbb61393e565b90612cc861107c82613d5c565b6145a8565b346103415760203660031901126103415760043580600052600160205260406000206006810190815460ff8160081c1690600282101561149957612d15600160ff93146139a7565b16600381101561149957612d3991612d2f600e9215613d7d565b0154421015613dc0565b600260ff198254161790557f1289cf89aaaed53d6590c1b7996ba434edb31dcbd322d0b88ff0c02f64bbdeef602060405160028152a2005b34610341576000366003190112610341576020600654604051908152f35b3461034157602036600319011261034157602061266e600435613d5c565b3461034157612dbb36613954565b612dc3613f21565b816000526001602052604060002060ff600682015460081c1690600282101561149957600783916116206001612df995146139a7565b506002810191825491612e0f60ff841615613d10565b612e1c6004820154613809565b15612e63577fd4dbda378623f00b72ef135b4579b7ba064c49645217eb107d663831efac635893600160409460ff19161790556003429101558151908152426020820152a2005b60405162461bcd60e51b8152602060048201526012602482015271139bc81c1c9bdbd9881cdd589b5a5d1d195960721b6044820152606490fd5b3461034157602036600319011261034157612eb6613928565b612ebe6143f2565b6001600160a01b03168015612eea576bffffffffffffffffffffffff60a01b6005541617600555600080f35b60405162461bcd60e51b815260206004820152601960248201527f496e76616c6964204149204f7261636c652061646472657373000000000000006044820152606490fd5b3461034157602036600319011261034157600435612f4b6143b6565b806000526001602052604060002090612f7160018060a01b036001840154163314613b02565b6006820191825460ff81166003811015611499576001612f919114613b3c565b60081c60ff166000600282101561338e57506132af57600481015490612fbb600882015483613b80565b600092612fc9821515613b8d565b600283015411806132a2575b613251575b674563918244f400008111613201575b60198102908015918181046019148317156100a3576103e89004928315806131f9575b6131f0575b600a8202828104600a148417156100a3576103e8900492600f830290838204600f1417156100a35761304b6103e860ff92049584613b80565b9760008080808860018060a01b03600454165af1613067613c39565b50156131a3575b60008080808960018060a01b0360008051602061473983398151915254165af1613096613c39565b501561313c575b5460081c166002811015611499576131265760086130be9101918254613c69565b90555b6130d5600080808089335af16113af613c39565b60405194855260208501526040840152151560608301527ffd8443316dcaf390c4480028d81568298bb47a1d097857f2f1fbd54b0676334560803393a3600160008051602061477983398151915255005b60096131359101918254613c69565b90556130c1565b60018060a01b036000805160206147398339815191525416600052600b602052604060002061316c878254613c69565b905560018060a01b0360008051602061473983398151915254166000805160206147198339815191526020604051898152a261309d565b60018060a01b0360045416600052600b60205260406000206131c6868254613c69565b905560018060a01b03600454166000805160206147198339815191526020604051888152a261306e565b60019350613012565b50821561300d565b33600052600960205260ff604060002054168015613228575b61322390613bd0565b612fea565b5033600052600a60205260406000208460005260205261322360ff60406000205416905061321a565b60405162461bcd60e51b8152602060048201526024808201527f476f616c206e6f74206d657420616e6420646561646c696e65206e6f742070616044820152631cdcd95960e21b6064820152608490fd5b5060038201544210612fd5565b6132c26005820154600983015490613b80565b90600191801561334a5760048201546002830154118061333d575b15612fda5760405162461bcd60e51b815260206004820152602d60248201527f547265617375727920676f616c206e6f74206d657420616e6420646561646c6960448201526c1b99481b9bdd081c185cdcd959609a1b6064820152608490fd5b50600382015442106132dd565b606460405162461bcd60e51b815260206004820152602060248201527f4e6f2063726f776466756e6465642066756e647320746f2077697468647261776044820152fd5b634e487b7160e01b81526021600452602490fd5b3461034157602036600319011261034157600435600052600160205260406000206133cc81613843565b90600160a01b6001900360018201541690600281015492600382015460048301549060058401549460068501549260ff84169360081c60ff16600887015492600988015495600a890161341e90613843565b9961342b600b8b01613843565b94613438600c8c01613843565b97600d8c01549b600e01549a6040519e8f916101e083526101e0830161345d916138e7565b96602083015260408201526060015260808d015260a08c015260038110156114995760c08b015260028210156114995789986134d8966134c9956134ba9460e08d01526101008c01526101208b01528982036101408b01526138e7565b908782036101608901526138e7565b908582036101808701526138e7565b916101a08401526101c08301520390f35b34610341576060366003190112610341576004356024356001600160401b0381116103415761351c90369060040161372e565b6044356001600160401b0381116103415761353b9036906004016137ac565b90613544613f21565b826000526001602052604060002092600684015460ff8160081c1690600282101561149957613577600160ff93146139a7565b166003811015611499576135a6576135a160076110179561359b85518751146139ea565b01613a92565b6142ca565b60405162461bcd60e51b815260206004820152601860248201527f43616d706169676e206d7573742062652070656e64696e6700000000000000006044820152606490fd5b346103415760003660031901126103415760206040517f811427a0fa4932aef534bba16bc34e9b7b2d7d2a79c475fca1765f6cc1faebea8152f35b34610341576020366003190112610341576004359063ffffffff60e01b821680920361034157602091637965db0b60e01b8114908115613668575b5015158152f35b6301ffc9a760e01b14905083613661565b60c081019081106001600160401b038211176117c757604052565b90601f801991011681019081106001600160401b038211176117c757604052565b6001600160401b0381116117c75760051b60200190565b6001600160401b0381116117c757601f01601f191660200190565b81601f82011215610341578035906136fe826136cc565b9261370c6040519485613694565b8284526020838301011161034157816000926020809301838601378301015290565b9080601f83011215610341578135613745816136b5565b926137536040519485613694565b81845260208085019260051b820101918383116103415760208201905b83821061377f57505050505090565b81356001600160401b038111610341576020916137a1878480948801016136e7565b815201910190613770565b9080601f830112156103415781356137c3816136b5565b926137d16040519485613694565b81845260208085019260051b82010192831161034157602001905b8282106137f95750505090565b81358152602091820191016137ec565b90600182811c92168015613839575b602083101461382357565b634e487b7160e01b600052602260045260246000fd5b91607f1691613818565b906040519182600082549261385784613809565b80845293600181169081156138c5575060011461387e575b5061387c92500383613694565b565b90506000929192526020600020906000915b8183106138a957505090602061387c928201013861386f565b6020919350806001915483858901015201910190918492613890565b90506020925061387c94915060ff191682840152151560051b8201013861386f565b919082519283825260005b848110613913575050826000602080949584010152601f8019910116010190565b806020809284010151828286010152016138f2565b600435906001600160a01b038216820361034157565b602435906001600160a01b038216820361034157565b6040906003190112610341576004359060243590565b60243590811515820361034157565b80548210156139915760005260206000200190600090565b634e487b7160e01b600052603260045260246000fd5b156139ae57565b60405162461bcd60e51b8152602060048201526014602482015273139bdd0818481d1c99585cdd5c9e4819dc985b9d60621b6044820152606490fd5b156139f157565b60405162461bcd60e51b815260206004820152601360248201527209ad2d8cae6e8dedccae640dad2e6dac2e8c6d606b1b6044820152606490fd5b818110613a37575050565b60008155600101613a2c565b613a4d8154613809565b9081613a57575050565b81601f60009311600114613a69575055565b81835260208320613a8591601f0160051c810190600101613a2c565b8082528160208120915555565b8054906000815581613aa2575050565b816006029160068304036100a3576000526020600020908101905b818110613ac8575050565b80613ad4600692613a43565b600060018201556000600282015560006003820155613af560048201613a43565b6000600582015501613abd565b15613b0957565b60405162461bcd60e51b815260206004820152600b60248201526a2737ba1031b932b0ba37b960a91b6044820152606490fd5b15613b4357565b60405162461bcd60e51b815260206004820152601560248201527410d85b5c185a59db881b9bdd08185c1c1c9bdd9959605a1b6044820152606490fd5b919082039182116100a357565b15613b9457565b60405162461bcd60e51b81526020600482015260146024820152734e6f2066756e647320746f20776974686472617760601b6044820152606490fd5b15613bd757565b60405162461bcd60e51b815260206004820152603460248201527f4b5943206f722061646d696e206f7665727269646520726571756972656420666044820152736f72206c61726765207769746864726177616c7360601b6064820152608490fd5b3d15613c64573d90613c4a826136cc565b91613c586040519384613694565b82523d6000602084013e565b606090565b919082018092116100a357565b15613c7d57565b60405162461bcd60e51b815260206004820152600f60248201526e15da5d1a191c985dc819985a5b1959608a1b6044820152606490fd5b15613cbb57565b60405162461bcd60e51b8152602060048201526011602482015270496e76616c6964206d696c6573746f6e6560781b6044820152606490fd5b8054821015613991576000526006602060002091020190600090565b15613d1757565b60405162461bcd60e51b815260206004820152601b60248201527f4d696c6573746f6e6520616c726561647920636f6d706c6574656400000000006044820152606490fd5b60005260008051602061475983398151915260205260016040600020015490565b15613d8457565b60405162461bcd60e51b815260206004820152601460248201527343616d706169676e206e6f742070656e64696e6760601b6044820152606490fd5b15613dc757565b60405162461bcd60e51b815260206004820152601760248201527f4170706c69636174696f6e206e6f7420657870697265640000000000000000006044820152606490fd5b6007546276a70081018091116100a357421015613e445760065460085480821115613e3d57613e3a91613b80565b90565b5050600090565b600a470490565b80518210156139915760209160051b010190565b6001600160a01b03168015613ebf5760008051602061473983398151915280546001600160a01b0319811683179091556001600160a01b03167f8be0079c531659141344cd1fd0a4f28419497f9722a3daafe3b4186f6b6457e0600080a3565b631e4fbdf760e01b600052600060045260246000fd5b15613edc57565b60405162461bcd60e51b815260206004820152601b60248201527f496e73756666696369656e742074726561737572792066756e647300000000006044820152606490fd5b3360009081527f144d22e240dd4c3af42c2ebf4760bfe89544b1a26a48b78b8ab4eaa03da89c27602052604090205460ff1615613f5a57565b63e2517d3f60e01b600052336004527f72c3eec1760bf69946625c2d4fb8e44e2c806345041960b434674fb9ab3976cf60245260446000fd5b3360009081527fd37682b42c490c255befb40bd52ea8bf6688547eb68d82a149e4378c72a51e00602052604090205460ff1615613fcc57565b63e2517d3f60e01b600052336004527f811427a0fa4932aef534bba16bc34e9b7b2d7d2a79c475fca1765f6cc1faebea60245260446000fd5b60008181526000805160206147598339815191526020908152604080832033845290915290205460ff16156140375750565b63e2517d3f60e01b6000523360045260245260446000fd5b9190918054600160401b8110156117c75761406f91600182018155613cf4565b6142b45782519283516001600160401b0381116117c7576140908354613809565b601f8111614282575b50602094601f821160011461421d576140ce929394958291600092614173575b50508160011b916000199060031b1c19161790565b82555b602081015160018301556140fa60408201511515600284019060ff801983541691151516179055565b606081015160038301556004820160808201518051906001600160401b0382116117c7576141288354613809565b601f81116141eb575b50602090601f831160011461417e57826005959360a09593614169936000926141735750508160011b916000199060031b1c19161790565b90555b0151910155565b0151905038806140b9565b90601f1983169184600052816000209260005b8181106141d357509260019285926005989660a09896106141ba575b505050811b01905561416c565b015160001960f88460031b161c191690553880806141ad565b92936020600181928786015181550195019301614191565b61421790846000526020600020601f850160051c81019160208610610be357601f0160051c0190613a2c565b38614131565b601f1982169584600052806000209160005b88811061426a57508360019596979810614251575b505050811b0182556140d1565b015160001960f88460031b161c19169055388080614244565b9192602060018192868501518155019401920161422f565b6142ae90846000526020600020601f840160051c81019160208510610be357601f0160051c0190613a2c565b38614099565b634e487b7160e01b600052600060045260246000fd5b909291928160005260016020526040600020906007600092016020925b82518110156143ad578061435061430060019386613e4b565b5161430b838b613e4b565b516040519161431983613679565b825287820152600060408201526000606082015260405161433a8882613694565b600081526080820152600060a08201528461404f565b857fbf293db00f4de65b181a066ecc2f8bb81fb7174b517fd8085700e259ad00db1b61439f61437f8488613e4b565b5161438a858d613e4b565b516040519283926040845260408401906138e7565b908a8301520390a2016142e7565b50505050509050565b600260008051602061477983398151915254146143e157600260008051602061477983398151915255565b633ee5aeb560e01b60005260046000fd5b600080516020614739833981519152546001600160a01b0316330361441357565b63118cdaa760e01b6000523360045260246000fd5b6001600160a01b03811660009081527fb7db2dd08fcb62d0c9e08c51941cae53c267786a0b75803fb7960902fc8ef97d602052604090205460ff166144d4576001600160a01b031660008181527fb7db2dd08fcb62d0c9e08c51941cae53c267786a0b75803fb7960902fc8ef97d60205260408120805460ff191660011790553391907f2f8788117e7eff1d82e926ec794901d17c78024a50270940304540a733656f0d8180a4600190565b50600090565b6001600160a01b03811660009081527fd37682b42c490c255befb40bd52ea8bf6688547eb68d82a149e4378c72a51e00602052604090205460ff166144d4576001600160a01b031660008181527fd37682b42c490c255befb40bd52ea8bf6688547eb68d82a149e4378c72a51e0060205260408120805460ff191660011790553391907f811427a0fa4932aef534bba16bc34e9b7b2d7d2a79c475fca1765f6cc1faebea907f2f8788117e7eff1d82e926ec794901d17c78024a50270940304540a733656f0d9080a4600190565b6000818152600080516020614759833981519152602090815260408083206001600160a01b038616845290915290205460ff16613e3d576000818152600080516020614759833981519152602090815260408083206001600160a01b0395909516808452949091528120805460ff19166001179055339291907f2f8788117e7eff1d82e926ec794901d17c78024a50270940304540a733656f0d9080a4600190565b6000818152600080516020614759833981519152602090815260408083206001600160a01b038616845290915290205460ff1615613e3d576000818152600080516020614759833981519152602090815260408083206001600160a01b0395909516808452949091528120805460ff19169055339291907ff6391f5c32d9c69d2a47ea670b442974b53935d1edc7fd64eb21e047a839171b9080a4600190565b60ff6000805160206147998339815191525460401c161561470757565b631afcd79f60e31b60005260046000fdfe1c43b9761b3fba5321ca8212bfc231945f668ccc0c446f333999eea9ce8fda819016d09d72d40fdae2fd8ceac6b6234c7706214fd39c1cd1e609a0528c19930002dd7bc7dec4dceedda775e58dd541e08a116c6c53815c0bd028192f7b6268009b779b17422d0df92223018b32b4d1fa46e071723d6817e2486d003becc55f00f0c57e16840df040f15088dc2f81fe391c3923bec73e23a9662efc9c229c6a00a2646970667358221220a697fb4f8748ee99fa4e0cad115628bb5542ec7444463ad6094304ef4cd7deb164736f6c634300081c0033","opcodes":"PUSH1 0x80 DUP1 PUSH1 0x40 MSTORE CALLVALUE PUSH1 0x15 JUMPI PUSH2 0x47EE SWAP1 DUP2 PUSH2 0x1B DUP3 CODECOPY RETURN JUMPDEST PUSH1 0x0 DUP1 REVERT INVALID PUSH1 0x80 DUP1 PUSH1 0x40 MSTORE PUSH1 0x4 CALLDATASIZE LT ISZERO PUSH2 0xB9 JUMPI JUMPDEST POP CALLDATASIZE ISZERO PUSH2 0x1B JUMPI PUSH1 0x0 DUP1 REVERT JUMPDEST PUSH1 0x0 DUP1 MLOAD PUSH1 0x20 PUSH2 0x4739 DUP4 CODECOPY DUP2 MLOAD SWAP2 MSTORE SLOAD PUSH1 0x1 PUSH1 0x1 PUSH1 0xA0 SHL SUB AND CALLER EQ PUSH2 0x3C JUMPI STOP JUMPDEST PUSH2 0x44 PUSH2 0x43F2 JUMP JUMPDEST PUSH1 0x7 SLOAD PUSH3 0x76A700 DUP2 ADD DUP1 SWAP2 GT PUSH2 0xA3 JUMPI TIMESTAMP LT ISZERO PUSH2 0x95 JUMPI JUMPDEST PUSH32 0x1F92CCA502DFDCDD42AD90D554B27F8DE184FECA1DD0B0746029B1B35285BB2B PUSH1 0x40 PUSH1 0xA SELFBALANCE DIV DUP1 PUSH1 0x6 SSTORE DUP2 MLOAD SWAP1 DUP2 MSTORE TIMESTAMP PUSH1 0x20 DUP3 ADD MSTORE LOG1 STOP JUMPDEST TIMESTAMP PUSH1 0x7 SSTORE PUSH1 0x0 PUSH1 0x8 SSTORE PUSH2 0x5C JUMP JUMPDEST PUSH4 0x4E487B71 PUSH1 0xE0 SHL PUSH1 0x0 MSTORE PUSH1 0x11 PUSH1 0x4 MSTORE PUSH1 0x24 PUSH1 0x0 REVERT JUMPDEST PUSH1 0x0 CALLDATALOAD PUSH1 0xE0 SHR SWAP1 DUP2 PUSH4 0x1FFC9A7 EQ PUSH2 0x3626 JUMPI POP DUP1 PUSH4 0x2D7FD92 EQ PUSH2 0x35EB JUMPI DUP1 PUSH4 0x95D16B2 EQ PUSH2 0x34E9 JUMPI DUP1 PUSH4 0x141961BC EQ PUSH2 0x33A2 JUMPI DUP1 PUSH4 0x155DD5EE EQ PUSH2 0x2F2F JUMPI DUP1 PUSH4 0x1AA632B3 EQ PUSH2 0x2E9D JUMPI DUP1 PUSH4 0x20913DA5 EQ PUSH2 0x2DAD JUMPI DUP1 PUSH4 0x248A9CA3 EQ PUSH2 0x2D8F JUMPI DUP1 PUSH4 0x2855E693 EQ PUSH2 0x2D71 JUMPI DUP1 PUSH4 0x2C3E6317 EQ PUSH2 0x2CCD JUMPI DUP1 PUSH4 0x2F2FF15D EQ PUSH2 0x2C9C JUMPI DUP1 PUSH4 0x31B221CD EQ PUSH2 0x2C73 JUMPI DUP1 PUSH4 0x33F707D1 EQ PUSH2 0x2BA3 JUMPI DUP1 PUSH4 0x36568ABE EQ PUSH2 0x2B5D JUMPI DUP1 PUSH4 0x370560BE EQ PUSH2 0x2A6B JUMPI DUP1 PUSH4 0x3ABE6BD7 EQ PUSH2 0x29D6 JUMPI DUP1 PUSH4 0x3C1AB00F EQ PUSH2 0x2918 JUMPI DUP1 PUSH4 0x3FB0D90F EQ PUSH2 0x2801 JUMPI DUP1 PUSH4 0x5117E338 EQ PUSH2 0x27B9 JUMPI DUP1 PUSH4 0x5130691B EQ PUSH2 0x276C JUMPI DUP1 PUSH4 0x53DF9D76 EQ PUSH2 0x26B5 JUMPI DUP1 PUSH4 0x54B7636E EQ PUSH2 0x2676 JUMPI DUP1 PUSH4 0x5F0EDE38 EQ PUSH2 0x2653 JUMPI DUP1 PUSH4 0x5F7EC46D EQ PUSH2 0x2417 JUMPI DUP1 PUSH4 0x6C1739CE EQ PUSH2 0x23F9 JUMPI DUP1 PUSH4 0x6C563ABE EQ PUSH2 0x207D JUMPI DUP1 PUSH4 0x715018A6 EQ PUSH2 0x2013 JUMPI DUP1 PUSH4 0x7331FA95 EQ PUSH2 0x1FCB JUMPI DUP1 PUSH4 0x75970193 EQ PUSH2 0x1B7B JUMPI DUP1 PUSH4 0x79022A9F EQ PUSH2 0x1B52 JUMPI DUP1 PUSH4 0x837B2A4D EQ PUSH2 0x1B2F JUMPI DUP1 PUSH4 0x8DA5CB5B EQ PUSH2 0x1AF9 JUMPI DUP1 PUSH4 0x91D14854 EQ PUSH2 0x1A9F JUMPI DUP1 PUSH4 0x92899236 EQ PUSH2 0x190E JUMPI DUP1 PUSH4 0x9F791E5F EQ PUSH2 0x159D JUMPI DUP1 PUSH4 0xA217FDDF EQ PUSH2 0x1581 JUMPI DUP1 PUSH4 0xA94015C8 EQ PUSH2 0x1546 JUMPI DUP1 PUSH4 0xB19954CA EQ PUSH2 0x14AF JUMPI DUP1 PUSH4 0xBFE26612 EQ PUSH2 0x12E1 JUMPI DUP1 PUSH4 0xC4D66DE8 EQ PUSH2 0x10D3 JUMPI DUP1 PUSH4 0xC6B647B9 EQ PUSH2 0x10B5 JUMPI DUP1 PUSH4 0xC966D402 EQ PUSH2 0x1086 JUMPI DUP1 PUSH4 0xD547741F EQ PUSH2 0x1050 JUMPI DUP1 PUSH4 0xD59161AB EQ PUSH2 0x1032 JUMPI DUP1 PUSH4 0xF21539D5 EQ PUSH2 0x1019 JUMPI DUP1 PUSH4 0xF2FDE38B EQ PUSH2 0xFEE JUMPI DUP1 PUSH4 0xF37BEEB4 EQ PUSH2 0xFB4 JUMPI DUP1 PUSH4 0xF40ED0D8 EQ PUSH2 0xF35 JUMPI DUP1 PUSH4 0xF59B8DB3 EQ PUSH2 0x4B7 JUMPI DUP1 PUSH4 0xF91E4B29 EQ PUSH2 0x346 JUMPI PUSH4 0xFF96DE21 EQ PUSH2 0x2F7 JUMPI CODESIZE PUSH2 0xF JUMP JUMPDEST CALLVALUE PUSH2 0x341 JUMPI PUSH2 0x305 CALLDATASIZE PUSH2 0x3954 JUMP JUMPDEST SWAP1 PUSH1 0x0 MSTORE PUSH1 0x3 PUSH1 0x20 MSTORE PUSH1 0x40 PUSH1 0x0 KECCAK256 DUP1 SLOAD DUP3 LT ISZERO PUSH2 0x341 JUMPI PUSH1 0x20 SWAP2 PUSH2 0x328 SWAP2 PUSH2 0x3979 JUMP JUMPDEST SWAP1 SLOAD PUSH1 0x40 MLOAD PUSH1 0x3 SWAP3 SWAP1 SWAP3 SHL SHR PUSH1 0x1 PUSH1 0x1 PUSH1 0xA0 SHL SUB AND DUP2 MSTORE RETURN JUMPDEST PUSH1 0x0 DUP1 REVERT JUMPDEST CALLVALUE PUSH2 0x341 JUMPI PUSH1 0x20 CALLDATASIZE PUSH1 0x3 NOT ADD SLT PUSH2 0x341 JUMPI PUSH1 0x4 CALLDATALOAD PUSH1 0x0 MSTORE PUSH1 0x1 PUSH1 0x20 MSTORE PUSH1 0x7 PUSH1 0x40 PUSH1 0x0 KECCAK256 ADD DUP1 SLOAD SWAP1 PUSH2 0x376 DUP3 PUSH2 0x36B5 JUMP JUMPDEST SWAP2 PUSH2 0x384 PUSH1 0x40 MLOAD SWAP4 DUP5 PUSH2 0x3694 JUMP JUMPDEST DUP1 DUP4 MSTORE PUSH1 0x20 DUP4 ADD DUP1 SWAP3 PUSH1 0x0 MSTORE PUSH1 0x20 PUSH1 0x0 KECCAK256 PUSH1 0x0 SWAP2 JUMPDEST DUP4 DUP4 LT PUSH2 0x44F JUMPI DUP5 DUP7 PUSH1 0x40 MLOAD SWAP2 DUP3 SWAP2 PUSH1 0x20 DUP4 ADD SWAP1 PUSH1 0x20 DUP5 MSTORE MLOAD DUP1 SWAP2 MSTORE PUSH1 0x40 DUP4 ADD SWAP1 PUSH1 0x40 DUP2 PUSH1 0x5 SHL DUP6 ADD ADD SWAP3 SWAP2 PUSH1 0x0 SWAP1 JUMPDEST DUP3 DUP3 LT PUSH2 0x3D8 JUMPI POP POP POP POP SUB SWAP1 RETURN JUMPDEST SWAP2 SWAP4 PUSH1 0x1 SWAP2 SWAP4 SWAP6 POP PUSH1 0x20 DUP1 SWAP2 PUSH1 0x3F NOT DUP10 DUP3 SUB ADD DUP6 MSTORE DUP8 MLOAD SWAP1 PUSH1 0xA0 DUP1 PUSH2 0x439 PUSH2 0x409 DUP6 MLOAD PUSH1 0xC0 DUP7 MSTORE PUSH1 0xC0 DUP7 ADD SWAP1 PUSH2 0x38E7 JUMP JUMPDEST DUP7 DUP7 ADD MLOAD DUP8 DUP7 ADD MSTORE PUSH1 0x40 DUP7 ADD MLOAD ISZERO ISZERO PUSH1 0x40 DUP7 ADD MSTORE PUSH1 0x60 DUP7 ADD MLOAD PUSH1 0x60 DUP7 ADD MSTORE PUSH1 0x80 DUP7 ADD MLOAD DUP6 DUP3 SUB PUSH1 0x80 DUP8 ADD MSTORE PUSH2 0x38E7 JUMP JUMPDEST SWAP4 ADD MLOAD SWAP2 ADD MSTORE SWAP7 ADD SWAP3 ADD SWAP3 ADD DUP6 SWAP5 SWAP4 SWAP2 SWAP3 PUSH2 0x3C9 JUMP JUMPDEST PUSH1 0x6 PUSH1 0x20 PUSH1 0x1 SWAP3 PUSH1 0x40 MLOAD PUSH2 0x462 DUP2 PUSH2 0x3679 JUMP JUMPDEST PUSH2 0x46B DUP7 PUSH2 0x3843 JUMP JUMPDEST DUP2 MSTORE DUP5 DUP7 ADD SLOAD DUP4 DUP3 ADD MSTORE PUSH1 0xFF PUSH1 0x2 DUP8 ADD SLOAD AND ISZERO ISZERO PUSH1 0x40 DUP3 ADD MSTORE PUSH1 0x3 DUP7 ADD SLOAD PUSH1 0x60 DUP3 ADD MSTORE PUSH2 0x49A PUSH1 0x4 DUP8 ADD PUSH2 0x3843 JUMP JUMPDEST PUSH1 0x80 DUP3 ADD MSTORE PUSH1 0x5 DUP7 ADD SLOAD PUSH1 0xA0 DUP3 ADD MSTORE DUP2 MSTORE ADD SWAP3 ADD SWAP3 ADD SWAP2 SWAP1 PUSH2 0x399 JUMP JUMPDEST CALLVALUE PUSH2 0x341 JUMPI PUSH2 0x100 CALLDATASIZE PUSH1 0x3 NOT ADD SLT PUSH2 0x341 JUMPI PUSH1 0x4 CALLDATALOAD PUSH1 0x1 PUSH1 0x1 PUSH1 0x40 SHL SUB DUP2 GT PUSH2 0x341 JUMPI PUSH2 0x4E8 SWAP1 CALLDATASIZE SWAP1 PUSH1 0x4 ADD PUSH2 0x36E7 JUMP JUMPDEST PUSH1 0x24 CALLDATALOAD PUSH1 0x44 CALLDATALOAD SWAP2 PUSH1 0x2 DUP4 LT ISZERO PUSH2 0x341 JUMPI PUSH1 0x64 CALLDATALOAD PUSH1 0x1 PUSH1 0x1 PUSH1 0x40 SHL SUB DUP2 GT PUSH2 0x341 JUMPI PUSH2 0x517 SWAP1 CALLDATASIZE SWAP1 PUSH1 0x4 ADD PUSH2 0x372E JUMP JUMPDEST PUSH1 0x84 CALLDATALOAD PUSH1 0x1 PUSH1 0x1 PUSH1 0x40 SHL SUB DUP2 GT PUSH2 0x341 JUMPI PUSH2 0x536 SWAP1 CALLDATASIZE SWAP1 PUSH1 0x4 ADD PUSH2 0x37AC JUMP JUMPDEST PUSH1 0xA4 CALLDATALOAD PUSH1 0x1 PUSH1 0x1 PUSH1 0x40 SHL SUB DUP2 GT PUSH2 0x341 JUMPI PUSH2 0x555 SWAP1 CALLDATASIZE SWAP1 PUSH1 0x4 ADD PUSH2 0x36E7 JUMP JUMPDEST SWAP2 PUSH1 0xC4 CALLDATALOAD PUSH1 0x1 PUSH1 0x1 PUSH1 0x40 SHL SUB DUP2 GT PUSH2 0x341 JUMPI PUSH2 0x575 SWAP1 CALLDATASIZE SWAP1 PUSH1 0x4 ADD PUSH2 0x36E7 JUMP JUMPDEST SWAP1 PUSH1 0xE4 CALLDATALOAD PUSH1 0x1 PUSH1 0x1 PUSH1 0x40 SHL SUB DUP2 GT PUSH2 0x341 JUMPI PUSH2 0x595 SWAP1 CALLDATASIZE SWAP1 PUSH1 0x4 ADD PUSH2 0x36E7 JUMP JUMPDEST SWAP3 PUSH1 0x0 PUSH1 0x1 DUP10 EQ SWAP9 DUP10 PUSH1 0x0 EQ PUSH2 0xF23 JUMPI PUSH8 0x4563918244F40000 DUP10 GT PUSH2 0xEA4 JUMPI JUMPDEST PUSH2 0x5C8 PUSH2 0x5C0 PUSH2 0x3E0C JUMP JUMPDEST DUP11 GT ISZERO PUSH2 0x3ED5 JUMP JUMPDEST DUP4 MLOAD ISZERO DUP1 PUSH2 0xE9B JUMPI JUMPDEST ISZERO PUSH2 0xE44 JUMPI JUMPDEST DUP2 SLOAD PUSH1 0x0 NOT DUP2 EQ PUSH2 0xE30 JUMPI PUSH1 0x1 ADD DUP1 DUP4 SSTORE DUP3 MSTORE PUSH1 0x1 PUSH1 0x20 MSTORE PUSH1 0x40 DUP3 KECCAK256 SWAP2 DUP9 MLOAD PUSH1 0x1 PUSH1 0x1 PUSH1 0x40 SHL SUB DUP2 GT PUSH2 0xE1C JUMPI PUSH2 0x60E DUP5 SLOAD PUSH2 0x3809 JUMP JUMPDEST PUSH1 0x1F DUP2 GT PUSH2 0xDEC JUMPI JUMPDEST POP PUSH1 0x20 PUSH1 0x1F DUP3 GT PUSH1 0x1 EQ PUSH2 0xD8A JUMPI SWAP1 DUP1 PUSH2 0x646 SWAP3 DUP5 SWAP2 PUSH2 0xD7F JUMPI JUMPDEST POP DUP2 PUSH1 0x1 SHL SWAP2 PUSH1 0x0 NOT SWAP1 PUSH1 0x3 SHL SHR NOT AND OR SWAP1 JUMP JUMPDEST DUP4 SSTORE JUMPDEST POP PUSH1 0x1 DUP3 ADD DUP1 SLOAD PUSH1 0x1 PUSH1 0x1 PUSH1 0xA0 SHL SUB NOT AND CALLER OR SWAP1 SSTORE PUSH1 0x2 DUP3 ADD DUP10 SWAP1 SSTORE DUP1 ISZERO DUP1 PUSH2 0xD5E JUMPI JUMPDEST DUP1 PUSH2 0xD52 JUMPI JUMPDEST ISZERO PUSH2 0xD3B JUMPI PUSH1 0x0 NOT PUSH1 0x3 DUP4 ADD SSTORE JUMPDEST PUSH1 0x6 DUP3 ADD DUP1 SLOAD PUSH2 0xFFFF NOT AND PUSH1 0x8 SWAP3 SWAP1 SWAP3 SHL PUSH2 0xFF00 AND SWAP2 SWAP1 SWAP2 OR SWAP1 SSTORE DUP6 MLOAD PUSH1 0x0 SWAP1 PUSH1 0xA DUP4 ADD SWAP1 PUSH1 0x1 PUSH1 0x1 PUSH1 0x40 SHL SUB DUP2 GT PUSH2 0xBED JUMPI PUSH2 0x6BE DUP3 SLOAD PUSH2 0x3809 JUMP JUMPDEST PUSH1 0x1F DUP2 GT PUSH2 0xD0B JUMPI JUMPDEST POP PUSH1 0x20 PUSH1 0x1F DUP3 GT PUSH1 0x1 EQ PUSH2 0xCA9 JUMPI SWAP1 DUP1 PUSH2 0x6F5 SWAP3 DUP6 SWAP2 PUSH2 0xC9E JUMPI POP DUP2 PUSH1 0x1 SHL SWAP2 PUSH1 0x0 NOT SWAP1 PUSH1 0x3 SHL SHR NOT AND OR SWAP1 JUMP JUMPDEST SWAP1 SSTORE JUMPDEST PUSH1 0xB DUP3 ADD DUP6 MLOAD PUSH1 0x1 PUSH1 0x1 PUSH1 0x40 SHL SUB DUP2 GT PUSH2 0xBED JUMPI PUSH2 0x716 DUP3 SLOAD PUSH2 0x3809 JUMP JUMPDEST PUSH1 0x1F DUP2 GT PUSH2 0xC6E JUMPI JUMPDEST POP PUSH1 0x20 PUSH1 0x1F DUP3 GT PUSH1 0x1 EQ PUSH2 0xC0C JUMPI SWAP1 DUP1 PUSH2 0x74D SWAP3 DUP6 SWAP2 PUSH2 0xC01 JUMPI POP DUP2 PUSH1 0x1 SHL SWAP2 PUSH1 0x0 NOT SWAP1 PUSH1 0x3 SHL SHR NOT AND OR SWAP1 JUMP JUMPDEST SWAP1 SSTORE JUMPDEST PUSH1 0xC DUP3 ADD DUP7 MLOAD PUSH1 0x1 PUSH1 0x1 PUSH1 0x40 SHL SUB DUP2 GT PUSH2 0xBED JUMPI PUSH2 0x76E DUP3 SLOAD PUSH2 0x3809 JUMP JUMPDEST PUSH1 0x1F DUP2 GT PUSH2 0xBB2 JUMPI JUMPDEST POP PUSH1 0x20 PUSH1 0x1F DUP3 GT PUSH1 0x1 EQ PUSH2 0xB50 JUMPI SWAP1 DUP1 PUSH2 0x7A5 SWAP3 DUP6 SWAP2 PUSH2 0xB45 JUMPI POP DUP2 PUSH1 0x1 SHL SWAP2 PUSH1 0x0 NOT SWAP1 PUSH1 0x3 SHL SHR NOT AND OR SWAP1 JUMP JUMPDEST SWAP1 SSTORE JUMPDEST POP TIMESTAMP PUSH1 0xD DUP3 ADD SSTORE DUP9 ISZERO PUSH2 0xB3B JUMPI PUSH3 0x127500 TIMESTAMP ADD DUP1 TIMESTAMP GT PUSH2 0xA3 JUMPI PUSH1 0xE SWAP1 SWAP2 JUMPDEST ADD SSTORE PUSH1 0x0 SWAP8 ISZERO PUSH2 0xAEA JUMPI POP POP DUP6 SLOAD DUP1 DUP8 MSTORE PUSH1 0x1 PUSH1 0x20 MSTORE PUSH1 0x40 DUP8 KECCAK256 PUSH1 0x1E DUP8 MUL SWAP1 DUP8 ISZERO SWAP2 DUP9 DUP2 DIV PUSH1 0x1E EQ DUP4 OR ISZERO PUSH2 0xAD6 JUMPI PUSH1 0x64 SWAP1 DIV SWAP2 PUSH1 0x28 DUP10 MUL SWAP1 DUP10 DUP3 DIV PUSH1 0x28 EQ OR ISZERO PUSH2 0xAD6 JUMPI DUP10 PUSH32 0x9121563D1C77025026A509210D3841BE6BCD23CE5B74A5CC226E13E68FA3A095 SWAP7 SWAP5 PUSH32 0xBF293DB00F4DE65B181A066ECC2F8BB81FB7174B517FD8085700E259AD00DB1B PUSH1 0xA0 PUSH2 0xAB3 SWAP7 PUSH2 0xAC1 SWAP10 SWAP7 PUSH1 0x20 SWAP16 PUSH2 0xA31 PUSH1 0x7 PUSH1 0x64 PUSH2 0xAA5 SWAP11 DIV SWAP4 ADD DUP8 DUP8 PUSH1 0x80 PUSH1 0x40 MLOAD SWAP8 PUSH2 0x87E DUP10 PUSH2 0x3679 JUMP JUMPDEST PUSH2 0x8E9 PUSH1 0x40 SWAP10 DUP11 MLOAD PUSH2 0x890 DUP13 DUP3 PUSH2 0x3694 JUMP JUMPDEST PUSH1 0x17 DUP2 MSTORE PUSH1 0x20 PUSH23 0x50726F6F66206F6620436F6E63657074206F72204D565 PUSH1 0x4C SHL SWAP1 DUP3 ADD MSTORE DUP2 MSTORE PUSH1 0x20 DUP4 SWAP1 DUP3 ADD MSTORE DUP9 DUP12 DUP3 ADD MSTORE DUP9 PUSH1 0x60 DUP3 ADD MSTORE PUSH1 0x20 SWAP9 DUP12 MLOAD PUSH2 0x8D8 DUP12 DUP3 PUSH2 0x3694 JUMP JUMPDEST DUP2 DUP2 MSTORE DUP6 DUP4 ADD MSTORE DUP13 DUP3 ADD MSTORE DUP7 PUSH2 0x404F JUMP JUMPDEST DUP4 DUP4 DUP4 DUP12 MLOAD DUP13 DUP2 MSTORE PUSH1 0x17 DUP14 DUP3 ADD MSTORE PUSH23 0x50726F6F66206F6620436F6E63657074206F72204D565 PUSH1 0x4C SHL PUSH1 0x60 DUP3 ADD MSTORE DUP5 DUP12 DUP3 ADD MSTORE LOG2 PUSH2 0x97B DUP14 DUP11 MLOAD SWAP1 PUSH2 0x92D DUP3 PUSH2 0x3679 JUMP JUMPDEST DUP12 MLOAD PUSH2 0x939 DUP14 DUP3 PUSH2 0x3694 JUMP JUMPDEST PUSH1 0x18 DUP2 MSTORE PUSH24 0x10995D184BD41C9BDD1BDD1E5C194810DBDB5C1B195D1959 PUSH1 0x42 SHL DUP12 DUP3 ADD MSTORE DUP3 MSTORE DUP4 DUP11 DUP4 ADD MSTORE DUP1 DUP13 DUP4 ADD MSTORE DUP1 PUSH1 0x60 DUP4 ADD MSTORE DUP12 MLOAD PUSH2 0x8D8 DUP12 DUP3 PUSH2 0x3694 JUMP JUMPDEST DUP9 MLOAD SWAP1 DUP10 DUP3 MSTORE PUSH1 0x18 DUP11 DUP4 ADD MSTORE PUSH24 0x10995D184BD41C9BDD1BDD1E5C194810DBDB5C1B195D1959 PUSH1 0x42 SHL PUSH1 0x60 DUP4 ADD MSTORE DUP8 DUP3 ADD MSTORE LOG2 DUP5 MLOAD SWAP1 PUSH2 0x9B9 DUP3 PUSH2 0x3679 JUMP JUMPDEST DUP6 MLOAD PUSH2 0x9C6 PUSH1 0x60 DUP3 PUSH2 0x3694 JUMP JUMPDEST PUSH1 0x2A DUP2 MSTORE PUSH32 0x46696E616C2050726F64756374204C61756E6368656420616E64205075626C69 DUP6 DUP3 ADD MSTORE PUSH10 0x636C7920557361626C65 PUSH1 0xB0 SHL DUP8 DUP3 ADD MSTORE DUP3 MSTORE DUP5 DUP5 DUP4 ADD MSTORE DUP10 DUP7 DUP4 ADD MSTORE DUP10 PUSH1 0x60 DUP4 ADD MSTORE DUP6 MLOAD PUSH2 0xA1F DUP6 DUP3 PUSH2 0x3694 JUMP JUMPDEST DUP11 DUP2 MSTORE PUSH1 0x80 DUP4 ADD MSTORE DUP10 DUP8 DUP4 ADD MSTORE PUSH2 0x404F JUMP JUMPDEST PUSH1 0x2A DUP4 MLOAD SWAP4 DUP1 DUP6 MSTORE DUP5 ADD MSTORE PUSH32 0x46696E616C2050726F64756374204C61756E6368656420616E64205075626C69 PUSH1 0x60 DUP5 ADD MSTORE PUSH10 0x636C7920557361626C65 PUSH1 0xB0 SHL PUSH1 0x80 DUP5 ADD MSTORE DUP3 ADD MSTORE LOG2 JUMPDEST SLOAD SWAP9 DUP10 SWAP8 PUSH2 0xA93 PUSH1 0x40 MLOAD SWAP11 PUSH1 0xC0 DUP13 MSTORE PUSH1 0xC0 DUP13 ADD SWAP1 PUSH2 0x38E7 JUMP JUMPDEST SWAP2 DUP13 DUP12 ADD MSTORE DUP10 DUP3 SUB PUSH1 0x40 DUP12 ADD MSTORE PUSH2 0x38E7 JUMP JUMPDEST SWAP1 DUP8 DUP3 SUB PUSH1 0x60 DUP10 ADD MSTORE PUSH2 0x38E7 JUMP JUMPDEST SWAP1 DUP6 DUP3 SUB PUSH1 0x80 DUP8 ADD MSTORE PUSH2 0x38E7 JUMP JUMPDEST SWAP3 TIMESTAMP PUSH1 0xA0 DUP3 ADD MSTORE DUP1 CALLER SWAP5 SUB SWAP1 LOG3 PUSH1 0x40 MLOAD SWAP1 DUP2 MSTORE RETURN JUMPDEST PUSH4 0x4E487B71 PUSH1 0xE0 SHL DUP11 MSTORE PUSH1 0x11 PUSH1 0x4 MSTORE PUSH1 0x24 DUP11 REVERT JUMPDEST PUSH2 0xAC1 SWAP3 PUSH2 0xAA5 PUSH1 0x20 SWAP10 DUP5 PUSH2 0xAB3 SWAP5 PUSH32 0x9121563D1C77025026A509210D3841BE6BCD23CE5B74A5CC226E13E68FA3A095 SWAP9 SWAP7 MLOAD PUSH2 0xB29 JUMPI JUMPDEST POP POP PUSH2 0xA7A JUMP JUMPDEST PUSH2 0xB34 SWAP2 DUP4 SLOAD PUSH2 0x42CA JUMP JUMPDEST DUP12 DUP1 PUSH2 0xB22 JUMP JUMPDEST PUSH1 0xE PUSH1 0x0 SWAP2 PUSH2 0x7C7 JUMP JUMPDEST SWAP1 POP DUP10 ADD MLOAD DUP15 PUSH2 0x632 JUMP JUMPDEST DUP3 DUP5 MSTORE DUP1 DUP5 KECCAK256 SWAP1 PUSH1 0x1F NOT DUP4 AND DUP6 JUMPDEST DUP12 DUP3 DUP3 LT PUSH2 0xB9A JUMPI POP POP SWAP1 DUP4 PUSH1 0x1 SWAP5 SWAP4 SWAP3 LT PUSH2 0xB81 JUMPI JUMPDEST POP POP DUP2 SHL ADD SWAP1 SSTORE PUSH2 0x7A8 JUMP JUMPDEST DUP11 ADD MLOAD PUSH1 0x0 NOT PUSH1 0xF8 DUP5 PUSH1 0x3 SHL AND SHR NOT AND SWAP1 SSTORE DUP14 DUP1 PUSH2 0xB75 JUMP JUMPDEST PUSH1 0x1 DUP5 SWAP6 PUSH1 0x20 SWAP4 SWAP6 DUP5 SWAP4 ADD MLOAD DUP2 SSTORE ADD SWAP5 ADD SWAP3 ADD PUSH2 0xB5E JUMP JUMPDEST PUSH2 0xBDD SWAP1 DUP4 DUP6 MSTORE PUSH1 0x20 DUP6 KECCAK256 PUSH1 0x1F DUP5 ADD PUSH1 0x5 SHR DUP2 ADD SWAP2 PUSH1 0x20 DUP6 LT PUSH2 0xBE3 JUMPI JUMPDEST PUSH1 0x1F ADD PUSH1 0x5 SHR ADD SWAP1 PUSH2 0x3A2C JUMP JUMPDEST DUP13 PUSH2 0x777 JUMP JUMPDEST SWAP1 SWAP2 POP DUP2 SWAP1 PUSH2 0xBD0 JUMP JUMPDEST PUSH4 0x4E487B71 PUSH1 0xE0 SHL DUP4 MSTORE PUSH1 0x41 PUSH1 0x4 MSTORE PUSH1 0x24 DUP4 REVERT JUMPDEST SWAP1 POP DUP9 ADD MLOAD DUP15 PUSH2 0x632 JUMP JUMPDEST DUP3 DUP5 MSTORE DUP1 DUP5 KECCAK256 SWAP1 PUSH1 0x1F NOT DUP4 AND DUP6 JUMPDEST DUP11 DUP3 DUP3 LT PUSH2 0xC56 JUMPI POP POP SWAP1 DUP4 PUSH1 0x1 SWAP5 SWAP4 SWAP3 LT PUSH2 0xC3D JUMPI JUMPDEST POP POP DUP2 SHL ADD SWAP1 SSTORE PUSH2 0x750 JUMP JUMPDEST DUP10 ADD MLOAD PUSH1 0x0 NOT PUSH1 0xF8 DUP5 PUSH1 0x3 SHL AND SHR NOT AND SWAP1 SSTORE DUP14 DUP1 PUSH2 0xC31 JUMP JUMPDEST PUSH1 0x1 DUP5 SWAP6 PUSH1 0x20 SWAP4 SWAP6 DUP5 SWAP4 ADD MLOAD DUP2 SSTORE ADD SWAP5 ADD SWAP3 ADD PUSH2 0xC1A JUMP JUMPDEST PUSH2 0xC98 SWAP1 DUP4 DUP6 MSTORE PUSH1 0x20 DUP6 KECCAK256 PUSH1 0x1F DUP5 ADD PUSH1 0x5 SHR DUP2 ADD SWAP2 PUSH1 0x20 DUP6 LT PUSH2 0xBE3 JUMPI PUSH1 0x1F ADD PUSH1 0x5 SHR ADD SWAP1 PUSH2 0x3A2C JUMP JUMPDEST DUP13 PUSH2 0x71F JUMP JUMPDEST SWAP1 POP DUP11 ADD MLOAD DUP15 PUSH2 0x632 JUMP JUMPDEST DUP3 DUP5 MSTORE DUP1 DUP5 KECCAK256 SWAP1 PUSH1 0x1F NOT DUP4 AND DUP6 JUMPDEST DUP13 DUP3 DUP3 LT PUSH2 0xCF3 JUMPI POP POP SWAP1 DUP4 PUSH1 0x1 SWAP5 SWAP4 SWAP3 LT PUSH2 0xCDA JUMPI JUMPDEST POP POP DUP2 SHL ADD SWAP1 SSTORE PUSH2 0x6F8 JUMP JUMPDEST DUP12 ADD MLOAD PUSH1 0x0 NOT PUSH1 0xF8 DUP5 PUSH1 0x3 SHL AND SHR NOT AND SWAP1 SSTORE DUP14 DUP1 PUSH2 0xCCE JUMP JUMPDEST PUSH1 0x1 DUP5 SWAP6 PUSH1 0x20 SWAP4 SWAP6 DUP5 SWAP4 ADD MLOAD DUP2 SSTORE ADD SWAP5 ADD SWAP3 ADD PUSH2 0xCB7 JUMP JUMPDEST PUSH2 0xD35 SWAP1 DUP4 DUP6 MSTORE PUSH1 0x20 DUP6 KECCAK256 PUSH1 0x1F DUP5 ADD PUSH1 0x5 SHR DUP2 ADD SWAP2 PUSH1 0x20 DUP6 LT PUSH2 0xBE3 JUMPI PUSH1 0x1F ADD PUSH1 0x5 SHR ADD SWAP1 PUSH2 0x3A2C JUMP JUMPDEST DUP13 PUSH2 0x6C7 JUMP JUMPDEST PUSH3 0x278D00 TIMESTAMP ADD DUP1 TIMESTAMP GT PUSH2 0xA3 JUMPI PUSH1 0x3 DUP4 ADD SSTORE PUSH2 0x681 JUMP JUMPDEST POP PUSH1 0x1 PUSH1 0x0 SLOAD EQ PUSH2 0x673 JUMP JUMPDEST POP PUSH1 0x0 DUP1 MLOAD PUSH1 0x20 PUSH2 0x4739 DUP4 CODECOPY DUP2 MLOAD SWAP2 MSTORE SLOAD PUSH1 0x1 PUSH1 0x1 PUSH1 0xA0 SHL SUB AND CALLER EQ PUSH2 0x66D JUMP JUMPDEST SWAP1 POP DUP12 ADD MLOAD DUP15 PUSH2 0x632 JUMP JUMPDEST DUP5 DUP4 MSTORE DUP1 DUP4 KECCAK256 SWAP1 PUSH1 0x1F NOT DUP4 AND DUP5 JUMPDEST DUP14 DUP3 DUP3 LT PUSH2 0xDD4 JUMPI POP POP SWAP1 DUP4 PUSH1 0x1 SWAP5 SWAP4 SWAP3 LT PUSH2 0xDBB JUMPI JUMPDEST POP POP DUP2 SHL ADD DUP4 SSTORE PUSH2 0x649 JUMP JUMPDEST DUP13 ADD MLOAD PUSH1 0x0 NOT PUSH1 0xF8 DUP5 PUSH1 0x3 SHL AND SHR NOT AND SWAP1 SSTORE DUP14 DUP1 PUSH2 0xDAF JUMP JUMPDEST PUSH1 0x1 DUP5 SWAP6 PUSH1 0x20 SWAP4 SWAP6 DUP5 SWAP4 ADD MLOAD DUP2 SSTORE ADD SWAP5 ADD SWAP3 ADD PUSH2 0xD98 JUMP JUMPDEST PUSH2 0xE16 SWAP1 DUP6 DUP5 MSTORE PUSH1 0x20 DUP5 KECCAK256 PUSH1 0x1F DUP5 ADD PUSH1 0x5 SHR DUP2 ADD SWAP2 PUSH1 0x20 DUP6 LT PUSH2 0xBE3 JUMPI PUSH1 0x1F ADD PUSH1 0x5 SHR ADD SWAP1 PUSH2 0x3A2C JUMP JUMPDEST DUP13 PUSH2 0x617 JUMP JUMPDEST PUSH4 0x4E487B71 PUSH1 0xE0 SHL DUP3 MSTORE PUSH1 0x41 PUSH1 0x4 MSTORE PUSH1 0x24 DUP3 REVERT JUMPDEST PUSH4 0x4E487B71 PUSH1 0xE0 SHL DUP4 MSTORE PUSH1 0x11 PUSH1 0x4 MSTORE PUSH1 0x24 DUP4 REVERT JUMPDEST PUSH1 0x40 MLOAD PUSH3 0x461BCD PUSH1 0xE5 SHL DUP2 MSTORE PUSH1 0x20 PUSH1 0x4 DUP3 ADD MSTORE PUSH1 0x29 PUSH1 0x24 DUP3 ADD MSTORE PUSH32 0x5472656173757279204772616E74732075736520707265646566696E6564206D PUSH1 0x44 DUP3 ADD MSTORE PUSH9 0x696C6573746F6E6573 PUSH1 0xB8 SHL PUSH1 0x64 DUP3 ADD MSTORE PUSH1 0x84 SWAP1 REVERT JUMPDEST POP DUP3 MLOAD ISZERO PUSH2 0x5D1 JUMP JUMPDEST CALLER DUP3 MSTORE PUSH1 0x9 PUSH1 0x20 MSTORE PUSH1 0xFF PUSH1 0x40 DUP4 KECCAK256 SLOAD AND PUSH2 0x5B5 JUMPI PUSH1 0x40 MLOAD PUSH3 0x461BCD PUSH1 0xE5 SHL DUP2 MSTORE PUSH1 0x20 PUSH1 0x4 DUP3 ADD MSTORE PUSH1 0x38 PUSH1 0x24 DUP3 ADD MSTORE PUSH32 0x4B594320766572696669636174696F6E20726571756972656420666F72205472 PUSH1 0x44 DUP3 ADD MSTORE PUSH32 0x656173757279204772616E7473206F7665722035204554480000000000000000 PUSH1 0x64 DUP3 ADD MSTORE PUSH1 0x84 SWAP1 REVERT JUMPDEST PUSH2 0xF30 DUP5 MLOAD DUP5 MLOAD EQ PUSH2 0x39EA JUMP JUMPDEST PUSH2 0x5D7 JUMP JUMPDEST CALLVALUE PUSH2 0x341 JUMPI PUSH1 0x40 CALLDATASIZE PUSH1 0x3 NOT ADD SLT PUSH2 0x341 JUMPI PUSH2 0xF4E PUSH2 0x3928 JUMP JUMPDEST PUSH32 0x2DF1CAD2A2659E001C3804C872F69655356013E35C18C2E77A5D568078AB788F PUSH1 0x20 PUSH2 0xF79 PUSH2 0x396A JUMP JUMPDEST SWAP3 PUSH2 0xF82 PUSH2 0x3F93 JUMP JUMPDEST PUSH1 0x1 PUSH1 0x1 PUSH1 0xA0 SHL SUB AND PUSH1 0x0 DUP2 DUP2 MSTORE PUSH1 0x9 DUP4 MSTORE PUSH1 0x40 SWAP1 KECCAK256 DUP1 SLOAD PUSH1 0xFF NOT AND PUSH1 0xFF DUP7 ISZERO ISZERO AND OR SWAP1 SSTORE SWAP3 JUMPDEST PUSH1 0x40 MLOAD SWAP1 ISZERO ISZERO DUP2 MSTORE LOG2 STOP JUMPDEST CALLVALUE PUSH2 0x341 JUMPI PUSH1 0x20 CALLDATASIZE PUSH1 0x3 NOT ADD SLT PUSH2 0x341 JUMPI PUSH1 0x1 PUSH1 0x1 PUSH1 0xA0 SHL SUB PUSH2 0xFD5 PUSH2 0x3928 JUMP JUMPDEST AND PUSH1 0x0 MSTORE PUSH1 0xB PUSH1 0x20 MSTORE PUSH1 0x20 PUSH1 0x40 PUSH1 0x0 KECCAK256 SLOAD PUSH1 0x40 MLOAD SWAP1 DUP2 MSTORE RETURN JUMPDEST CALLVALUE PUSH2 0x341 JUMPI PUSH1 0x20 CALLDATASIZE PUSH1 0x3 NOT ADD SLT PUSH2 0x341 JUMPI PUSH2 0x1017 PUSH2 0x100A PUSH2 0x3928 JUMP JUMPDEST PUSH2 0x1012 PUSH2 0x43F2 JUMP JUMPDEST PUSH2 0x3E5F JUMP JUMPDEST STOP JUMPDEST CALLVALUE PUSH2 0x341 JUMPI PUSH1 0x0 CALLDATASIZE PUSH1 0x3 NOT ADD SLT PUSH2 0x341 JUMPI PUSH2 0x44 PUSH2 0x43F2 JUMP JUMPDEST CALLVALUE PUSH2 0x341 JUMPI PUSH1 0x0 CALLDATASIZE PUSH1 0x3 NOT ADD SLT PUSH2 0x341 JUMPI PUSH1 0x20 PUSH1 0x8 SLOAD PUSH1 0x40 MLOAD SWAP1 DUP2 MSTORE RETURN JUMPDEST CALLVALUE PUSH2 0x341 JUMPI PUSH1 0x40 CALLDATASIZE PUSH1 0x3 NOT ADD SLT PUSH2 0x341 JUMPI PUSH2 0x1017 PUSH1 0x4 CALLDATALOAD PUSH2 0x106F PUSH2 0x393E JUMP JUMPDEST SWAP1 PUSH2 0x1081 PUSH2 0x107C DUP3 PUSH2 0x3D5C JUMP JUMPDEST PUSH2 0x4005 JUMP JUMPDEST PUSH2 0x464A JUMP JUMPDEST CALLVALUE PUSH2 0x341 JUMPI PUSH1 0x20 CALLDATASIZE PUSH1 0x3 NOT ADD SLT PUSH2 0x341 JUMPI PUSH1 0x4 CALLDATALOAD PUSH1 0x0 MSTORE PUSH1 0x1 PUSH1 0x20 MSTORE PUSH1 0x20 PUSH1 0x5 PUSH1 0x40 PUSH1 0x0 KECCAK256 ADD SLOAD PUSH1 0x40 MLOAD SWAP1 DUP2 MSTORE RETURN JUMPDEST CALLVALUE PUSH2 0x341 JUMPI PUSH1 0x0 CALLDATASIZE PUSH1 0x3 NOT ADD SLT PUSH2 0x341 JUMPI PUSH1 0x20 PUSH1 0x7 SLOAD PUSH1 0x40 MLOAD SWAP1 DUP2 MSTORE RETURN JUMPDEST CALLVALUE PUSH2 0x341 JUMPI PUSH1 0x20 CALLDATASIZE PUSH1 0x3 NOT ADD SLT PUSH2 0x341 JUMPI PUSH2 0x10EC PUSH2 0x3928 JUMP JUMPDEST PUSH1 0x0 DUP1 MLOAD PUSH1 0x20 PUSH2 0x4799 DUP4 CODECOPY DUP2 MLOAD SWAP2 MSTORE SLOAD SWAP1 PUSH1 0xFF DUP3 PUSH1 0x40 SHR AND ISZERO SWAP2 PUSH1 0x1 PUSH1 0x1 PUSH1 0x40 SHL SUB DUP2 AND DUP1 ISZERO SWAP1 DUP2 PUSH2 0x12D9 JUMPI JUMPDEST PUSH1 0x1 EQ SWAP1 DUP2 PUSH2 0x12CF JUMPI JUMPDEST ISZERO SWAP1 DUP2 PUSH2 0x12C6 JUMPI JUMPDEST POP PUSH2 0x12B5 JUMPI PUSH8 0xFFFFFFFFFFFFFFFF NOT DUP2 AND PUSH1 0x1 OR PUSH1 0x0 DUP1 MLOAD PUSH1 0x20 PUSH2 0x4799 DUP4 CODECOPY DUP2 MLOAD SWAP2 MSTORE SSTORE DUP3 PUSH2 0x1288 JUMPI JUMPDEST POP PUSH1 0x1 PUSH1 0x1 PUSH1 0xA0 SHL SUB AND DUP1 ISZERO PUSH2 0x1243 JUMPI PUSH2 0x116D PUSH2 0x46EA JUMP JUMPDEST PUSH2 0x1175 PUSH2 0x46EA JUMP JUMPDEST PUSH1 0x1 PUSH1 0x0 DUP1 MLOAD PUSH1 0x20 PUSH2 0x4779 DUP4 CODECOPY DUP2 MLOAD SWAP2 MSTORE SSTORE PUSH2 0x118F PUSH2 0x46EA JUMP JUMPDEST PUSH2 0x1197 PUSH2 0x46EA JUMP JUMPDEST PUSH2 0x11A0 CALLER PUSH2 0x3E5F JUMP JUMPDEST PUSH2 0x11A8 PUSH2 0x46EA JUMP JUMPDEST PUSH2 0x11B1 CALLER PUSH2 0x4428 JUMP JUMPDEST POP PUSH2 0x11BB CALLER PUSH2 0x44DA JUMP JUMPDEST POP PUSH12 0xFFFFFFFFFFFFFFFFFFFFFFFF PUSH1 0xA0 SHL PUSH1 0x4 SLOAD AND OR PUSH1 0x4 SSTORE PUSH1 0xA SELFBALANCE DIV PUSH1 0x6 SSTORE TIMESTAMP PUSH1 0x7 SSTORE PUSH1 0x0 PUSH1 0x8 SSTORE PUSH2 0x11EA JUMPI STOP JUMPDEST PUSH9 0xFF0000000000000000 NOT PUSH1 0x0 DUP1 MLOAD PUSH1 0x20 PUSH2 0x4799 DUP4 CODECOPY DUP2 MLOAD SWAP2 MSTORE SLOAD AND PUSH1 0x0 DUP1 MLOAD PUSH1 0x20 PUSH2 0x4799 DUP4 CODECOPY DUP2 MLOAD SWAP2 MSTORE SSTORE PUSH32 0xC7F505B2F371AE2175EE4913F4499E1F2633A7B5936321EED1CDAEB6115181D2 PUSH1 0x20 PUSH1 0x40 MLOAD PUSH1 0x1 DUP2 MSTORE LOG1 STOP JUMPDEST PUSH1 0x40 MLOAD PUSH3 0x461BCD PUSH1 0xE5 SHL DUP2 MSTORE PUSH1 0x20 PUSH1 0x4 DUP3 ADD MSTORE PUSH1 0x1B PUSH1 0x24 DUP3 ADD MSTORE PUSH32 0x44414F2054726561737572792063616E6E6F74206265207A65726F0000000000 PUSH1 0x44 DUP3 ADD MSTORE PUSH1 0x64 SWAP1 REVERT JUMPDEST PUSH9 0xFFFFFFFFFFFFFFFFFF NOT AND PUSH9 0x10000000000000001 OR PUSH1 0x0 DUP1 MLOAD PUSH1 0x20 PUSH2 0x4799 DUP4 CODECOPY DUP2 MLOAD SWAP2 MSTORE SSTORE DUP3 PUSH2 0x1155 JUMP JUMPDEST PUSH4 0xF92EE8A9 PUSH1 0xE0 SHL PUSH1 0x0 MSTORE PUSH1 0x4 PUSH1 0x0 REVERT JUMPDEST SWAP1 POP ISZERO DUP5 PUSH2 0x112B JUMP JUMPDEST ADDRESS EXTCODESIZE ISZERO SWAP2 POP PUSH2 0x1123 JUMP JUMPDEST DUP5 SWAP2 POP PUSH2 0x1119 JUMP JUMPDEST CALLVALUE PUSH2 0x341 JUMPI PUSH2 0x12EF CALLDATASIZE PUSH2 0x3954 JUMP JUMPDEST SWAP1 PUSH2 0x12F8 PUSH2 0x43B6 JUMP JUMPDEST DUP1 PUSH1 0x0 MSTORE PUSH1 0x1 PUSH1 0x20 MSTORE PUSH1 0x40 PUSH1 0x0 KECCAK256 SWAP2 PUSH2 0x131E PUSH1 0x1 DUP1 PUSH1 0xA0 SHL SUB PUSH1 0x1 DUP6 ADD SLOAD AND CALLER EQ PUSH2 0x3B02 JUMP JUMPDEST PUSH1 0xFF PUSH1 0x6 DUP5 ADD SLOAD PUSH1 0x8 SHR AND SWAP1 PUSH1 0x2 DUP3 LT ISZERO PUSH2 0x1499 JUMPI PUSH2 0x1342 PUSH1 0x1 PUSH2 0x1357 SWAP4 EQ PUSH2 0x39A7 JUMP JUMPDEST PUSH1 0x7 DUP5 ADD PUSH2 0x1352 DUP2 SLOAD DUP4 LT PUSH2 0x3CB4 JUMP JUMPDEST PUSH2 0x3CF4 JUMP JUMPDEST POP PUSH1 0xFF PUSH1 0x2 DUP3 ADD SLOAD AND ISZERO PUSH2 0x1454 JUMPI PUSH1 0x1 PUSH1 0x8 SWAP2 ADD SWAP3 PUSH1 0x0 DUP5 SLOAD SWAP5 PUSH2 0x137C DUP7 ISZERO ISZERO PUSH2 0x3B8D JUMP JUMPDEST PUSH8 0x4563918244F40000 DUP7 GT PUSH2 0x140A JUMPI JUMPDEST SSTORE ADD PUSH2 0x1399 DUP4 DUP3 SLOAD PUSH2 0x3C69 JUMP JUMPDEST SWAP1 SSTORE PUSH2 0x13B5 PUSH1 0x0 DUP1 DUP1 DUP1 DUP7 CALLER GAS CALL PUSH2 0x13AF PUSH2 0x3C39 JUMP JUMPDEST POP PUSH2 0x3C76 JUMP JUMPDEST PUSH1 0x40 MLOAD SWAP2 DUP3 MSTORE PUSH1 0x0 PUSH1 0x20 DUP4 ADD MSTORE PUSH1 0x0 PUSH1 0x40 DUP4 ADD MSTORE PUSH1 0x0 PUSH1 0x60 DUP4 ADD MSTORE PUSH32 0xFD8443316DCAF390C4480028D81568298BB47A1D097857F2F1FBD54B06763345 PUSH1 0x80 CALLER SWAP4 LOG3 PUSH1 0x1 PUSH1 0x0 DUP1 MLOAD PUSH1 0x20 PUSH2 0x4779 DUP4 CODECOPY DUP2 MLOAD SWAP2 MSTORE SSTORE STOP JUMPDEST CALLER DUP3 MSTORE PUSH1 0x9 PUSH1 0x20 MSTORE PUSH1 0xFF PUSH1 0x40 DUP4 KECCAK256 SLOAD AND DUP1 ISZERO PUSH2 0x142F JUMPI JUMPDEST PUSH2 0x142A SWAP1 PUSH2 0x3BD0 JUMP JUMPDEST PUSH2 0x138C JUMP JUMPDEST POP CALLER DUP3 MSTORE PUSH1 0xA PUSH1 0x20 MSTORE PUSH1 0x40 DUP3 KECCAK256 DUP6 DUP4 MSTORE PUSH1 0x20 MSTORE PUSH2 0x142A PUSH1 0xFF PUSH1 0x40 DUP5 KECCAK256 SLOAD AND SWAP1 POP PUSH2 0x1421 JUMP JUMPDEST PUSH1 0x40 MLOAD PUSH3 0x461BCD PUSH1 0xE5 SHL DUP2 MSTORE PUSH1 0x20 PUSH1 0x4 DUP3 ADD MSTORE PUSH1 0x17 PUSH1 0x24 DUP3 ADD MSTORE PUSH32 0x4D696C6573746F6E65206E6F7420636F6D706C65746564000000000000000000 PUSH1 0x44 DUP3 ADD MSTORE PUSH1 0x64 SWAP1 REVERT JUMPDEST PUSH4 0x4E487B71 PUSH1 0xE0 SHL PUSH1 0x0 MSTORE PUSH1 0x21 PUSH1 0x4 MSTORE PUSH1 0x24 PUSH1 0x0 REVERT JUMPDEST CALLVALUE PUSH2 0x341 JUMPI PUSH1 0x60 CALLDATASIZE PUSH1 0x3 NOT ADD SLT PUSH2 0x341 JUMPI PUSH1 0x4 CALLDATALOAD PUSH2 0x14CB PUSH2 0x393E JUMP JUMPDEST SWAP1 PUSH1 0x44 CALLDATALOAD SWAP2 DUP3 ISZERO ISZERO SWAP1 DUP2 DUP5 SUB PUSH2 0x341 JUMPI PUSH32 0x885A8505418BE302BB27E84BCD18370FF6C55E6300A82C065E4ABC658C0E5480 SWAP2 PUSH2 0x153D PUSH1 0x20 SWAP3 PUSH2 0x150B PUSH2 0x3F93 JUMP JUMPDEST PUSH1 0x1 DUP1 PUSH1 0xA0 SHL SUB AND SWAP6 DUP7 PUSH1 0x0 MSTORE PUSH1 0xA DUP5 MSTORE PUSH1 0x40 PUSH1 0x0 KECCAK256 DUP7 PUSH1 0x0 MSTORE DUP5 MSTORE PUSH1 0x40 PUSH1 0x0 KECCAK256 SWAP1 PUSH1 0xFF DUP1 NOT DUP4 SLOAD AND SWAP2 ISZERO ISZERO AND OR SWAP1 SSTORE JUMP JUMPDEST PUSH1 0x40 MLOAD SWAP1 DUP2 MSTORE LOG3 STOP JUMPDEST CALLVALUE PUSH2 0x341 JUMPI PUSH1 0x0 CALLDATASIZE PUSH1 0x3 NOT ADD SLT PUSH2 0x341 JUMPI PUSH1 0x20 PUSH1 0x40 MLOAD PUSH32 0x72C3EEC1760BF69946625C2D4FB8E44E2C806345041960B434674FB9AB3976CF DUP2 MSTORE RETURN JUMPDEST CALLVALUE PUSH2 0x341 JUMPI PUSH1 0x0 CALLDATASIZE PUSH1 0x3 NOT ADD SLT PUSH2 0x341 JUMPI PUSH1 0x20 PUSH1 0x40 MLOAD PUSH1 0x0 DUP2 MSTORE RETURN JUMPDEST CALLVALUE PUSH2 0x341 JUMPI PUSH1 0x60 CALLDATASIZE PUSH1 0x3 NOT ADD SLT PUSH2 0x341 JUMPI PUSH1 0x24 CALLDATALOAD PUSH1 0x4 CALLDATALOAD PUSH1 0x44 CALLDATALOAD PUSH1 0x1 PUSH1 0x1 PUSH1 0x40 SHL SUB DUP2 GT PUSH2 0x341 JUMPI PUSH2 0x15D3 SWAP1 CALLDATASIZE SWAP1 PUSH1 0x4 ADD PUSH2 0x36E7 JUMP JUMPDEST DUP2 PUSH1 0x0 MSTORE PUSH1 0x1 PUSH1 0x20 MSTORE PUSH1 0x40 PUSH1 0x0 KECCAK256 PUSH2 0x15F8 PUSH1 0x1 DUP1 PUSH1 0xA0 SHL SUB PUSH1 0x1 DUP4 ADD SLOAD AND CALLER EQ PUSH2 0x3B02 JUMP JUMPDEST PUSH1 0xFF PUSH1 0x6 DUP3 ADD SLOAD PUSH1 0x8 SHR AND SWAP1 PUSH1 0x2 DUP3 LT ISZERO PUSH2 0x1499 JUMPI PUSH1 0x7 DUP6 SWAP2 PUSH2 0x1620 PUSH1 0x1 PUSH2 0x162D SWAP6 EQ PUSH2 0x39A7 JUMP JUMPDEST ADD PUSH2 0x1352 DUP2 SLOAD DUP4 LT PUSH2 0x3CB4 JUMP JUMPDEST POP PUSH2 0x163F PUSH1 0xFF PUSH1 0x2 DUP4 ADD SLOAD AND ISZERO PUSH2 0x3D10 JUMP JUMPDEST PUSH1 0x5 DUP2 ADD SLOAD DUP1 ISZERO SWAP1 DUP2 ISZERO PUSH2 0x18F6 JUMPI JUMPDEST POP ISZERO PUSH2 0x18B9 JUMPI PUSH1 0x5 SLOAD PUSH1 0x1 PUSH1 0x1 PUSH1 0xA0 SHL SUB AND DUP1 PUSH2 0x17DD JUMPI JUMPDEST POP PUSH1 0x4 ADD SWAP3 DUP2 MLOAD SWAP4 PUSH1 0x1 PUSH1 0x1 PUSH1 0x40 SHL SUB DUP6 GT PUSH2 0x17C7 JUMPI PUSH2 0x1686 DUP2 SLOAD PUSH2 0x3809 JUMP JUMPDEST PUSH1 0x1F DUP2 GT PUSH2 0x1795 JUMPI JUMPDEST POP PUSH1 0x20 PUSH1 0x1F DUP7 GT PUSH1 0x1 EQ PUSH2 0x170F JUMPI DUP6 PUSH32 0xAA0DA233CBE2F0FC818E5DDB1128D22FCF012DF42CD15BBACBFDAAC288C0F1DF SWAP6 SWAP7 PUSH2 0x16E0 SWAP3 PUSH1 0x0 SWAP2 PUSH2 0x1704 JUMPI POP DUP2 PUSH1 0x1 SHL SWAP2 PUSH1 0x0 NOT SWAP1 PUSH1 0x3 SHL SHR NOT AND OR SWAP1 JUMP JUMPDEST SWAP1 SSTORE JUMPDEST PUSH2 0x16FF PUSH1 0x40 MLOAD SWAP3 DUP4 SWAP3 DUP4 MSTORE PUSH1 0x40 PUSH1 0x20 DUP5 ADD MSTORE PUSH1 0x40 DUP4 ADD SWAP1 PUSH2 0x38E7 JUMP JUMPDEST SUB SWAP1 LOG2 STOP JUMPDEST SWAP1 POP DUP6 ADD MLOAD DUP9 PUSH2 0x632 JUMP JUMPDEST PUSH1 0x1F NOT DUP7 AND SWAP1 DUP3 PUSH1 0x0 MSTORE DUP1 PUSH1 0x0 KECCAK256 SWAP2 PUSH1 0x0 JUMPDEST DUP2 DUP2 LT PUSH2 0x177D JUMPI POP SWAP2 DUP8 SWAP2 PUSH32 0xAA0DA233CBE2F0FC818E5DDB1128D22FCF012DF42CD15BBACBFDAAC288C0F1DF SWAP8 SWAP9 PUSH1 0x1 SWAP5 LT PUSH2 0x1764 JUMPI JUMPDEST POP POP DUP2 SHL ADD SWAP1 SSTORE PUSH2 0x16E3 JUMP JUMPDEST DUP7 ADD MLOAD PUSH1 0x0 NOT PUSH1 0xF8 DUP5 PUSH1 0x3 SHL AND SHR NOT AND SWAP1 SSTORE DUP8 DUP1 PUSH2 0x1758 JUMP JUMPDEST SWAP2 SWAP3 PUSH1 0x20 PUSH1 0x1 DUP2 SWAP3 DUP7 DUP11 ADD MLOAD DUP2 SSTORE ADD SWAP5 ADD SWAP3 ADD PUSH2 0x1721 JUMP JUMPDEST PUSH2 0x17C1 SWAP1 DUP3 PUSH1 0x0 MSTORE PUSH1 0x20 PUSH1 0x0 KECCAK256 PUSH1 0x1F DUP9 ADD PUSH1 0x5 SHR DUP2 ADD SWAP2 PUSH1 0x20 DUP10 LT PUSH2 0xBE3 JUMPI PUSH1 0x1F ADD PUSH1 0x5 SHR ADD SWAP1 PUSH2 0x3A2C JUMP JUMPDEST DUP6 PUSH2 0x168F JUMP JUMPDEST PUSH4 0x4E487B71 PUSH1 0xE0 SHL PUSH1 0x0 MSTORE PUSH1 0x41 PUSH1 0x4 MSTORE PUSH1 0x24 PUSH1 0x0 REVERT JUMPDEST PUSH1 0x20 PUSH1 0x40 MLOAD DUP1 SWAP3 PUSH4 0x49B0CE41 PUSH1 0xE0 SHL DUP3 MSTORE DUP7 PUSH1 0x4 DUP4 ADD MSTORE DUP8 PUSH1 0x24 DUP4 ADD MSTORE PUSH1 0x60 PUSH1 0x44 DUP4 ADD MSTORE DUP2 DUP1 PUSH2 0x1810 PUSH1 0x64 DUP3 ADD DUP10 PUSH2 0x38E7 JUMP JUMPDEST SUB SWAP2 GAS STATICCALL SWAP1 DUP2 ISZERO PUSH2 0x18AD JUMPI PUSH1 0x0 SWAP2 PUSH2 0x186B JUMPI JUMPDEST POP ISZERO PUSH2 0x182F JUMPI DUP5 PUSH2 0x1666 JUMP JUMPDEST PUSH1 0x40 MLOAD PUSH3 0x461BCD PUSH1 0xE5 SHL DUP2 MSTORE PUSH1 0x20 PUSH1 0x4 DUP3 ADD MSTORE PUSH1 0x14 PUSH1 0x24 DUP3 ADD MSTORE PUSH20 0x1052481D985B1A59185D1A5BDB8819985A5B1959 PUSH1 0x62 SHL PUSH1 0x44 DUP3 ADD MSTORE PUSH1 0x64 SWAP1 REVERT JUMPDEST PUSH1 0x20 DUP2 RETURNDATASIZE PUSH1 0x20 GT PUSH2 0x18A5 JUMPI JUMPDEST DUP2 PUSH2 0x1884 PUSH1 0x20 SWAP4 DUP4 PUSH2 0x3694 JUMP JUMPDEST DUP2 ADD SUB SLT PUSH2 0x18A1 JUMPI MLOAD SWAP1 DUP2 ISZERO ISZERO DUP3 SUB PUSH2 0x189E JUMPI POP DUP6 PUSH2 0x1823 JUMP JUMPDEST DUP1 REVERT JUMPDEST POP DUP1 REVERT JUMPDEST RETURNDATASIZE SWAP2 POP PUSH2 0x1877 JUMP JUMPDEST PUSH1 0x40 MLOAD RETURNDATASIZE PUSH1 0x0 DUP3 RETURNDATACOPY RETURNDATASIZE SWAP1 REVERT JUMPDEST PUSH1 0x40 MLOAD PUSH3 0x461BCD PUSH1 0xE5 SHL DUP2 MSTORE PUSH1 0x20 PUSH1 0x4 DUP3 ADD MSTORE PUSH1 0x15 PUSH1 0x24 DUP3 ADD MSTORE PUSH21 0x2932B9BAB136B4B9B9B4B7B7103A37B79039B7B7B7 PUSH1 0x59 SHL PUSH1 0x44 DUP3 ADD MSTORE PUSH1 0x64 SWAP1 REVERT JUMPDEST SWAP1 POP PUSH3 0x93A80 DUP2 ADD DUP1 SWAP2 GT PUSH2 0xA3 JUMPI TIMESTAMP LT ISZERO DUP6 PUSH2 0x164E JUMP JUMPDEST CALLVALUE PUSH2 0x341 JUMPI PUSH1 0x20 CALLDATASIZE PUSH1 0x3 NOT ADD SLT PUSH2 0x341 JUMPI PUSH1 0x4 CALLDATALOAD DUP1 PUSH1 0x0 MSTORE PUSH1 0x1 PUSH1 0x20 MSTORE PUSH1 0x40 PUSH1 0x0 KECCAK256 PUSH1 0xFF PUSH1 0x6 DUP3 ADD SLOAD PUSH1 0x8 SHR AND PUSH1 0x2 DUP2 LT ISZERO PUSH2 0x1499 JUMPI PUSH2 0x1951 PUSH1 0x1 DUP5 SWAP3 EQ PUSH2 0x39A7 JUMP JUMPDEST PUSH1 0x0 SWAP2 DUP3 SWAP2 PUSH1 0x7 DUP3 ADD SWAP2 DUP4 JUMPDEST DUP4 SLOAD DUP2 LT ISZERO PUSH2 0x19DD JUMPI PUSH2 0x1970 DUP2 DUP6 PUSH2 0x3CF4 JUMP JUMPDEST POP PUSH1 0x5 DUP2 ADD SLOAD DUP1 ISZERO ISZERO SWAP1 DUP2 PUSH2 0x19CD JUMPI JUMPDEST DUP2 PUSH2 0x19B5 JUMPI JUMPDEST POP PUSH2 0x1995 JUMPI JUMPDEST POP PUSH1 0x1 ADD PUSH2 0x195D JUMP JUMPDEST PUSH1 0x0 SWAP2 SWAP6 POP PUSH1 0x1 PUSH2 0x19AA SWAP2 ADD SWAP7 DUP8 SLOAD SWAP1 PUSH2 0x3C69 JUMP JUMPDEST SWAP6 SSTORE PUSH1 0x1 SWAP4 DUP5 PUSH2 0x198C JUMP JUMPDEST SWAP1 POP PUSH3 0x93A80 DUP2 ADD DUP1 SWAP2 GT PUSH2 0xA3 JUMPI TIMESTAMP LT ISZERO DUP9 PUSH2 0x1986 JUMP JUMPDEST PUSH1 0x2 DUP4 ADD SLOAD PUSH1 0xFF AND ISZERO SWAP2 POP PUSH2 0x1980 JUMP JUMPDEST POP DUP5 SWAP1 DUP5 DUP1 PUSH2 0x1A96 JUMPI JUMPDEST PUSH2 0x19ED JUMPI STOP JUMPDEST PUSH1 0x8 PUSH1 0x4 DUP3 ADD SWAP2 PUSH2 0x19FF DUP5 DUP5 SLOAD PUSH2 0x3B80 JUMP JUMPDEST DUP1 SWAP4 SSTORE ADD SSTORE PUSH2 0x1A10 DUP2 PUSH1 0x8 SLOAD PUSH2 0x3B80 JUMP JUMPDEST PUSH1 0x8 SSTORE PUSH1 0x0 DUP1 DUP1 DUP1 DUP5 PUSH1 0x1 DUP1 PUSH1 0xA0 SHL SUB PUSH1 0x4 SLOAD AND GAS CALL PUSH2 0x1A2E PUSH2 0x3C39 JUMP JUMPDEST POP ISZERO PUSH2 0x1A61 JUMPI PUSH1 0x20 PUSH32 0x65D1BF7FE298DDA4759CDBF89B1EF35E330A7D44469B44F8913A712067AEEE1F SWAP2 PUSH1 0x40 MLOAD SWAP1 DUP2 MSTORE LOG2 STOP JUMPDEST PUSH1 0x40 MLOAD PUSH3 0x461BCD PUSH1 0xE5 SHL DUP2 MSTORE PUSH1 0x20 PUSH1 0x4 DUP3 ADD MSTORE PUSH1 0xD PUSH1 0x24 DUP3 ADD MSTORE PUSH13 0x1499599D5B990819985A5B1959 PUSH1 0x9A SHL PUSH1 0x44 DUP3 ADD MSTORE PUSH1 0x64 SWAP1 REVERT JUMPDEST POP DUP2 ISZERO ISZERO PUSH2 0x19E7 JUMP JUMPDEST CALLVALUE PUSH2 0x341 JUMPI PUSH1 0x40 CALLDATASIZE PUSH1 0x3 NOT ADD SLT PUSH2 0x341 JUMPI PUSH2 0x1AB8 PUSH2 0x393E JUMP JUMPDEST PUSH1 0x4 CALLDATALOAD PUSH1 0x0 MSTORE PUSH1 0x0 DUP1 MLOAD PUSH1 0x20 PUSH2 0x4759 DUP4 CODECOPY DUP2 MLOAD SWAP2 MSTORE PUSH1 0x20 MSTORE PUSH1 0x40 PUSH1 0x0 KECCAK256 SWAP1 PUSH1 0x1 DUP1 PUSH1 0xA0 SHL SUB AND PUSH1 0x0 MSTORE PUSH1 0x20 MSTORE PUSH1 0x20 PUSH1 0xFF PUSH1 0x40 PUSH1 0x0 KECCAK256 SLOAD AND PUSH1 0x40 MLOAD SWAP1 ISZERO ISZERO DUP2 MSTORE RETURN JUMPDEST CALLVALUE PUSH2 0x341 JUMPI PUSH1 0x0 CALLDATASIZE PUSH1 0x3 NOT ADD SLT PUSH2 0x341 JUMPI PUSH1 0x0 DUP1 MLOAD PUSH1 0x20 PUSH2 0x4739 DUP4 CODECOPY DUP2 MLOAD SWAP2 MSTORE SLOAD PUSH1 0x40 MLOAD PUSH1 0x1 PUSH1 0x1 PUSH1 0xA0 SHL SUB SWAP1 SWAP2 AND DUP2 MSTORE PUSH1 0x20 SWAP1 RETURN JUMPDEST CALLVALUE PUSH2 0x341 JUMPI PUSH1 0x0 CALLDATASIZE PUSH1 0x3 NOT ADD SLT PUSH2 0x341 JUMPI PUSH1 0x20 PUSH1 0x40 MLOAD PUSH8 0x4563918244F40000 DUP2 MSTORE RETURN JUMPDEST CALLVALUE PUSH2 0x341 JUMPI PUSH1 0x0 CALLDATASIZE PUSH1 0x3 NOT ADD SLT PUSH2 0x341 JUMPI PUSH1 0x4 SLOAD PUSH1 0x40 MLOAD PUSH1 0x1 PUSH1 0x1 PUSH1 0xA0 SHL SUB SWAP1 SWAP2 AND DUP2 MSTORE PUSH1 0x20 SWAP1 RETURN JUMPDEST CALLVALUE PUSH2 0x341 JUMPI PUSH1 0x20 CALLDATASIZE PUSH1 0x3 NOT ADD SLT PUSH2 0x341 JUMPI CALLER PUSH1 0x0 SWAP1 DUP2 MSTORE PUSH32 0xB7DB2DD08FCB62D0C9E08C51941CAE53C267786A0B75803FB7960902FC8EF97D PUSH1 0x20 MSTORE PUSH1 0x40 SWAP1 KECCAK256 SLOAD PUSH1 0x4 CALLDATALOAD SWAP1 PUSH1 0xFF AND ISZERO PUSH2 0x1FB1 JUMPI PUSH2 0x1BCF PUSH2 0x43B6 JUMP JUMPDEST DUP1 PUSH1 0x0 MSTORE PUSH1 0x1 PUSH1 0x20 MSTORE PUSH1 0x40 PUSH1 0x0 KECCAK256 SWAP1 PUSH1 0x1 DUP3 ADD PUSH1 0x1 DUP1 PUSH1 0xA0 SHL SUB DUP2 SLOAD AND ISZERO PUSH2 0x1F6C JUMPI PUSH1 0x0 SWAP3 PUSH1 0xFF PUSH1 0x6 DUP3 ADD SLOAD PUSH1 0x8 SHR AND PUSH1 0x2 DUP2 LT ISZERO PUSH2 0x1F58 JUMPI PUSH1 0x1 EQ PUSH2 0x1ECF JUMPI JUMPDEST PUSH1 0x5 DUP2 ADD SWAP1 PUSH1 0x9 DUP3 SLOAD SWAP2 ADD SLOAD SWAP1 DUP2 DUP2 GT PUSH2 0x1D29 JUMPI JUMPDEST POP POP POP PUSH1 0x20 PUSH32 0x331464AD6907C32ABF6BB8A07DC4E14E4AEA5707FF6B23ED71E7D82FE70DCF97 SWAP2 DUP4 PUSH1 0x0 MSTORE PUSH1 0x1 DUP3 MSTORE PUSH1 0x0 PUSH1 0xE PUSH1 0x40 DUP3 KECCAK256 PUSH2 0x1C65 DUP2 PUSH2 0x3A43 JUMP JUMPDEST DUP3 PUSH1 0x1 DUP3 ADD SSTORE DUP3 PUSH1 0x2 DUP3 ADD SSTORE DUP3 PUSH1 0x3 DUP3 ADD SSTORE DUP3 PUSH1 0x4 DUP3 ADD SSTORE DUP3 PUSH1 0x5 DUP3 ADD SSTORE DUP3 PUSH1 0x6 DUP3 ADD SSTORE PUSH2 0x1C95 PUSH1 0x7 DUP3 ADD PUSH2 0x3A92 JUMP JUMPDEST DUP3 PUSH1 0x8 DUP3 ADD SSTORE DUP3 PUSH1 0x9 DUP3 ADD SSTORE PUSH2 0x1CAD PUSH1 0xA DUP3 ADD PUSH2 0x3A43 JUMP JUMPDEST PUSH2 0x1CB9 PUSH1 0xB DUP3 ADD PUSH2 0x3A43 JUMP JUMPDEST PUSH2 0x1CC5 PUSH1 0xC DUP3 ADD PUSH2 0x3A43 JUMP JUMPDEST DUP3 PUSH1 0xD DUP3 ADD SSTORE ADD SSTORE DUP4 PUSH1 0x0 MSTORE PUSH1 0x3 DUP3 MSTORE PUSH1 0x40 PUSH1 0x0 KECCAK256 DUP1 SLOAD PUSH1 0x0 DUP3 SSTORE DUP1 PUSH2 0x1D0E JUMPI JUMPDEST POP POP SLOAD PUSH1 0x40 MLOAD SWAP5 DUP6 MSTORE PUSH1 0x1 PUSH1 0x1 PUSH1 0xA0 SHL SUB AND SWAP4 LOG3 PUSH1 0x1 PUSH1 0x0 DUP1 MLOAD PUSH1 0x20 PUSH2 0x4779 DUP4 CODECOPY DUP2 MLOAD SWAP2 MSTORE SSTORE STOP JUMPDEST PUSH2 0x1D22 SWAP2 PUSH1 0x0 MSTORE DUP4 PUSH1 0x0 KECCAK256 SWAP1 DUP2 ADD SWAP1 PUSH2 0x3A2C JUMP JUMPDEST DUP6 DUP1 PUSH2 0x1CE6 JUMP JUMPDEST PUSH2 0x1D41 SWAP2 PUSH2 0x1D3A SWAP2 SWAP6 SWAP4 SWAP5 SWAP6 PUSH2 0x3B80 JUMP JUMPDEST DUP1 SWAP6 PUSH2 0x3C69 JUMP JUMPDEST DUP2 PUSH1 0x0 MSTORE PUSH1 0x3 PUSH1 0x20 MSTORE PUSH1 0x40 PUSH1 0x0 KECCAK256 SWAP1 PUSH1 0x40 MLOAD DUP1 DUP4 PUSH1 0x20 DUP3 SWAP6 SLOAD SWAP4 DUP5 DUP2 MSTORE ADD SWAP1 PUSH1 0x0 MSTORE PUSH1 0x20 PUSH1 0x0 KECCAK256 SWAP3 PUSH1 0x0 JUMPDEST DUP2 DUP2 LT PUSH2 0x1EAD JUMPI POP POP PUSH2 0x1D81 SWAP3 POP SUB DUP4 PUSH2 0x3694 JUMP JUMPDEST PUSH1 0x0 JUMPDEST DUP3 MLOAD DUP2 LT ISZERO PUSH2 0x1E7B JUMPI PUSH1 0x1 PUSH1 0x1 PUSH1 0xA0 SHL SUB PUSH2 0x1D9F DUP3 DUP6 PUSH2 0x3E4B JUMP JUMPDEST MLOAD AND DUP1 PUSH1 0x0 MSTORE PUSH1 0x2 PUSH1 0x20 MSTORE PUSH1 0x40 PUSH1 0x0 KECCAK256 DUP6 PUSH1 0x0 MSTORE PUSH1 0x20 MSTORE PUSH1 0x40 PUSH1 0x0 KECCAK256 SLOAD DUP1 ISZERO DUP1 ISZERO PUSH2 0x1DD0 JUMPI JUMPDEST POP POP POP PUSH1 0x1 ADD PUSH2 0x1D84 JUMP JUMPDEST DUP10 DUP3 MUL SWAP2 DUP3 DIV DUP11 EQ OR ISZERO PUSH2 0xA3 JUMPI DUP7 SLOAD SWAP1 PUSH1 0x0 DUP3 ISZERO PUSH2 0x1E67 JUMPI POP SWAP1 PUSH1 0x1 SWAP4 SWAP3 SWAP2 DIV DUP2 PUSH1 0x0 MSTORE PUSH1 0x2 PUSH1 0x20 MSTORE PUSH1 0x40 PUSH1 0x0 KECCAK256 DUP8 PUSH1 0x0 MSTORE PUSH1 0x20 MSTORE PUSH1 0x0 PUSH1 0x40 DUP2 KECCAK256 SSTORE PUSH1 0x0 DUP1 DUP1 DUP1 DUP5 DUP7 GAS CALL PUSH2 0x1E1E PUSH2 0x3C39 JUMP JUMPDEST POP ISZERO PUSH2 0x1E2D JUMPI JUMPDEST DUP3 SWAP4 POP PUSH2 0x1DC5 JUMP JUMPDEST PUSH1 0x20 PUSH1 0x0 DUP1 MLOAD PUSH1 0x20 PUSH2 0x4719 DUP4 CODECOPY DUP2 MLOAD SWAP2 MSTORE SWAP2 DUP4 PUSH1 0x0 MSTORE PUSH1 0xB DUP3 MSTORE PUSH1 0x40 PUSH1 0x0 KECCAK256 PUSH2 0x1E57 DUP3 DUP3 SLOAD PUSH2 0x3C69 JUMP JUMPDEST SWAP1 SSTORE PUSH1 0x40 MLOAD SWAP1 DUP2 MSTORE LOG2 DUP9 DUP1 PUSH2 0x1E25 JUMP JUMPDEST PUSH4 0x4E487B71 PUSH1 0xE0 SHL DUP2 MSTORE PUSH1 0x12 PUSH1 0x4 MSTORE PUSH1 0x24 SWAP1 REVERT JUMPDEST POP SWAP5 POP POP SWAP2 PUSH32 0x331464AD6907C32ABF6BB8A07DC4E14E4AEA5707FF6B23ED71E7D82FE70DCF97 SWAP2 POP PUSH1 0x20 SWAP1 SWAP2 DUP6 PUSH2 0x1C25 JUMP JUMPDEST DUP5 SLOAD PUSH1 0x1 PUSH1 0x1 PUSH1 0xA0 SHL SUB AND DUP4 MSTORE PUSH1 0x1 SWAP5 DUP6 ADD SWAP5 DUP8 SWAP5 POP PUSH1 0x20 SWAP1 SWAP4 ADD SWAP3 ADD PUSH2 0x1D6C JUMP JUMPDEST SWAP3 POP PUSH2 0x1EE4 PUSH1 0x4 DUP5 ADD SLOAD PUSH1 0x8 DUP6 ADD SLOAD SWAP1 PUSH2 0x3B80 JUMP JUMPDEST SWAP3 DUP4 ISZERO PUSH2 0x1C10 JUMPI PUSH2 0x1EF7 DUP5 PUSH1 0x8 SLOAD PUSH2 0x3B80 JUMP JUMPDEST PUSH1 0x8 SSTORE PUSH1 0x0 DUP1 DUP1 DUP1 DUP8 PUSH1 0x1 DUP1 PUSH1 0xA0 SHL SUB PUSH1 0x4 SLOAD AND GAS CALL PUSH2 0x1F15 PUSH2 0x3C39 JUMP JUMPDEST POP PUSH2 0x1C10 JUMPI PUSH1 0x40 MLOAD PUSH3 0x461BCD PUSH1 0xE5 SHL DUP2 MSTORE PUSH1 0x20 PUSH1 0x4 DUP3 ADD MSTORE PUSH1 0x16 PUSH1 0x24 DUP3 ADD MSTORE PUSH22 0x151C99585CDD5C9E481C99599D5B990819985A5B1959 PUSH1 0x52 SHL PUSH1 0x44 DUP3 ADD MSTORE PUSH1 0x64 SWAP1 REVERT JUMPDEST PUSH4 0x4E487B71 PUSH1 0xE0 SHL DUP6 MSTORE PUSH1 0x21 PUSH1 0x4 MSTORE PUSH1 0x24 DUP6 REVERT JUMPDEST PUSH1 0x40 MLOAD PUSH3 0x461BCD PUSH1 0xE5 SHL DUP2 MSTORE PUSH1 0x20 PUSH1 0x4 DUP3 ADD MSTORE PUSH1 0x17 PUSH1 0x24 DUP3 ADD MSTORE PUSH32 0x43616D706169676E20646F6573206E6F74206578697374000000000000000000 PUSH1 0x44 DUP3 ADD MSTORE PUSH1 0x64 SWAP1 REVERT JUMPDEST PUSH4 0xE2517D3F PUSH1 0xE0 SHL PUSH1 0x0 MSTORE CALLER PUSH1 0x4 MSTORE PUSH1 0x0 PUSH1 0x24 MSTORE PUSH1 0x44 PUSH1 0x0 REVERT JUMPDEST CALLVALUE PUSH2 0x341 JUMPI PUSH1 0x40 CALLDATASIZE PUSH1 0x3 NOT ADD SLT PUSH2 0x341 JUMPI PUSH1 0x1 PUSH1 0x1 PUSH1 0xA0 SHL SUB PUSH2 0x1FEC PUSH2 0x3928 JUMP JUMPDEST AND PUSH1 0x0 MSTORE PUSH1 0x2 PUSH1 0x20 MSTORE PUSH1 0x40 PUSH1 0x0 KECCAK256 PUSH1 0x24 CALLDATALOAD PUSH1 0x0 MSTORE PUSH1 0x20 MSTORE PUSH1 0x20 PUSH1 0x40 PUSH1 0x0 KECCAK256 SLOAD PUSH1 0x40 MLOAD SWAP1 DUP2 MSTORE RETURN JUMPDEST CALLVALUE PUSH2 0x341 JUMPI PUSH1 0x0 CALLDATASIZE PUSH1 0x3 NOT ADD SLT PUSH2 0x341 JUMPI PUSH2 0x202C PUSH2 0x43F2 JUMP JUMPDEST PUSH1 0x0 DUP1 MLOAD PUSH1 0x20 PUSH2 0x4739 DUP4 CODECOPY DUP2 MLOAD SWAP2 MSTORE DUP1 SLOAD PUSH1 0x1 PUSH1 0x1 PUSH1 0xA0 SHL SUB NOT DUP2 AND SWAP1 SWAP2 SSTORE PUSH1 0x0 SWAP1 PUSH1 0x1 PUSH1 0x1 PUSH1 0xA0 SHL SUB AND PUSH32 0x8BE0079C531659141344CD1FD0A4F28419497F9722A3DAAFE3B4186F6B6457E0 DUP3 DUP1 LOG3 STOP JUMPDEST PUSH1 0x20 CALLDATASIZE PUSH1 0x3 NOT ADD SLT PUSH2 0x341 JUMPI PUSH1 0x4 CALLDATALOAD PUSH2 0x2094 PUSH2 0x43B6 JUMP JUMPDEST DUP1 PUSH1 0x0 MSTORE PUSH1 0x1 PUSH1 0x20 MSTORE PUSH1 0x40 PUSH1 0x0 KECCAK256 SWAP1 PUSH1 0x6 DUP3 ADD PUSH1 0xFF DUP2 SLOAD AND PUSH1 0x3 DUP2 LT ISZERO PUSH2 0x1499 JUMPI PUSH1 0x1 PUSH2 0x20C1 SWAP2 EQ PUSH2 0x3B3C JUMP JUMPDEST PUSH1 0x3 DUP4 ADD SLOAD TIMESTAMP GT PUSH2 0x23B4 JUMPI CALLVALUE ISZERO DUP1 PUSH2 0x237F JUMPI PUSH1 0x32 CALLVALUE MUL CALLVALUE DUP2 DIV PUSH1 0x32 SUB PUSH2 0xA3 JUMPI PUSH2 0x3E8 SWAP1 DIV SWAP1 DUP2 ISZERO SWAP1 DUP2 PUSH2 0x2376 JUMPI JUMPDEST POP PUSH2 0x236E JUMPI JUMPDEST PUSH1 0xA CALLVALUE MUL CALLVALUE DUP2 DIV PUSH1 0xA SUB PUSH2 0xA3 JUMPI PUSH2 0x3E8 SWAP1 DIV SWAP2 PUSH1 0x28 CALLVALUE MUL CALLVALUE DUP2 DIV PUSH1 0x28 SUB PUSH2 0xA3 JUMPI PUSH2 0x3E8 PUSH2 0x2127 SWAP2 DIV SWAP3 CALLVALUE PUSH2 0x3B80 JUMP JUMPDEST SWAP5 PUSH1 0x0 DUP1 DUP1 DUP1 DUP8 PUSH1 0x1 DUP1 PUSH1 0xA0 SHL SUB PUSH1 0x4 SLOAD AND GAS CALL PUSH2 0x2143 PUSH2 0x3C39 JUMP JUMPDEST POP ISZERO PUSH2 0x2321 JUMPI JUMPDEST PUSH1 0x0 DUP1 DUP1 DUP1 DUP7 PUSH1 0x1 DUP1 PUSH1 0xA0 SHL SUB PUSH1 0x0 DUP1 MLOAD PUSH1 0x20 PUSH2 0x4739 DUP4 CODECOPY DUP2 MLOAD SWAP2 MSTORE SLOAD AND GAS CALL PUSH2 0x2172 PUSH2 0x3C39 JUMP JUMPDEST POP ISZERO PUSH2 0x22BA JUMPI JUMPDEST PUSH1 0xFF DUP3 SLOAD PUSH1 0x8 SHR AND PUSH1 0x2 DUP2 LT ISZERO PUSH2 0x1499 JUMPI PUSH2 0x22A5 JUMPI PUSH1 0x4 ADD PUSH2 0x219C DUP7 DUP3 SLOAD PUSH2 0x3C69 JUMP JUMPDEST SWAP1 SSTORE JUMPDEST CALLER PUSH1 0x0 MSTORE PUSH1 0x2 PUSH1 0x20 MSTORE PUSH1 0x40 PUSH1 0x0 KECCAK256 DUP5 PUSH1 0x0 MSTORE PUSH1 0x20 MSTORE PUSH1 0x40 PUSH1 0x0 KECCAK256 PUSH2 0x21C4 DUP7 DUP3 SLOAD PUSH2 0x3C69 JUMP JUMPDEST SWAP1 SSTORE CALLER PUSH1 0x0 MSTORE PUSH1 0x2 PUSH1 0x20 MSTORE PUSH1 0x40 PUSH1 0x0 KECCAK256 DUP5 PUSH1 0x0 MSTORE PUSH1 0x20 MSTORE DUP5 PUSH1 0x40 PUSH1 0x0 KECCAK256 SLOAD EQ PUSH2 0x2252 JUMPI JUMPDEST SLOAD PUSH1 0x8 SHR PUSH1 0xFF AND SWAP1 PUSH1 0x2 DUP3 LT ISZERO PUSH2 0x1499 JUMPI PUSH1 0x1 SWAP3 PUSH1 0x40 MLOAD SWAP6 DUP7 MSTORE PUSH1 0x20 DUP7 ADD MSTORE PUSH1 0x40 DUP6 ADD MSTORE TIMESTAMP PUSH1 0x60 DUP6 ADD MSTORE EQ PUSH1 0x80 DUP4 ADD MSTORE PUSH32 0x4852E950EC3AEDAF09A6AD7E78A1BFAECEAF997176CA098AD13194819A8C4CE5 PUSH1 0xA0 CALLER SWAP4 LOG3 PUSH1 0x1 PUSH1 0x0 DUP1 MLOAD PUSH1 0x20 PUSH2 0x4779 DUP4 CODECOPY DUP2 MLOAD SWAP2 MSTORE SSTORE STOP JUMPDEST DUP4 PUSH1 0x0 MSTORE PUSH1 0x3 PUSH1 0x20 MSTORE PUSH1 0x40 PUSH1 0x0 KECCAK256 SWAP1 DUP2 SLOAD SWAP2 PUSH1 0x1 PUSH1 0x40 SHL DUP4 LT ISZERO PUSH2 0x17C7 JUMPI DUP3 PUSH2 0x2282 SWAP2 PUSH1 0x1 PUSH1 0xFF SWAP6 ADD DUP2 SSTORE PUSH2 0x3979 JUMP JUMPDEST DUP2 SLOAD PUSH1 0x1 PUSH1 0x1 PUSH1 0xA0 SHL SUB PUSH1 0x3 SWAP3 SWAP1 SWAP3 SHL SWAP2 DUP3 SHL NOT AND CALLER SWAP1 SWAP2 SHL OR SWAP1 SSTORE SWAP1 POP PUSH2 0x21E8 JUMP JUMPDEST PUSH1 0x5 ADD PUSH2 0x22B3 DUP7 DUP3 SLOAD PUSH2 0x3C69 JUMP JUMPDEST SWAP1 SSTORE PUSH2 0x219F JUMP JUMPDEST PUSH1 0x1 DUP1 PUSH1 0xA0 SHL SUB PUSH1 0x0 DUP1 MLOAD PUSH1 0x20 PUSH2 0x4739 DUP4 CODECOPY DUP2 MLOAD SWAP2 MSTORE SLOAD AND PUSH1 0x0 MSTORE PUSH1 0xB PUSH1 0x20 MSTORE PUSH1 0x40 PUSH1 0x0 KECCAK256 PUSH2 0x22EA DUP5 DUP3 SLOAD PUSH2 0x3C69 JUMP JUMPDEST SWAP1 SSTORE PUSH1 0x1 DUP1 PUSH1 0xA0 SHL SUB PUSH1 0x0 DUP1 MLOAD PUSH1 0x20 PUSH2 0x4739 DUP4 CODECOPY DUP2 MLOAD SWAP2 MSTORE SLOAD AND PUSH1 0x0 DUP1 MLOAD PUSH1 0x20 PUSH2 0x4719 DUP4 CODECOPY DUP2 MLOAD SWAP2 MSTORE PUSH1 0x20 PUSH1 0x40 MLOAD DUP7 DUP2 MSTORE LOG2 PUSH2 0x2179 JUMP JUMPDEST PUSH1 0x1 DUP1 PUSH1 0xA0 SHL SUB PUSH1 0x4 SLOAD AND PUSH1 0x0 MSTORE PUSH1 0xB PUSH1 0x20 MSTORE PUSH1 0x40 PUSH1 0x0 KECCAK256 PUSH2 0x2344 DUP6 DUP3 SLOAD PUSH2 0x3C69 JUMP JUMPDEST SWAP1 SSTORE PUSH1 0x1 DUP1 PUSH1 0xA0 SHL SUB PUSH1 0x4 SLOAD AND PUSH1 0x0 DUP1 MLOAD PUSH1 0x20 PUSH2 0x4719 DUP4 CODECOPY DUP2 MLOAD SWAP2 MSTORE PUSH1 0x20 PUSH1 0x40 MLOAD DUP8 DUP2 MSTORE LOG2 PUSH2 0x214A JUMP JUMPDEST POP PUSH1 0x1 PUSH2 0x20F6 JUMP JUMPDEST SWAP1 POP ISZERO DUP6 PUSH2 0x20F0 JUMP JUMPDEST PUSH1 0x40 MLOAD PUSH3 0x461BCD PUSH1 0xE5 SHL DUP2 MSTORE PUSH1 0x20 PUSH1 0x4 DUP3 ADD MSTORE PUSH1 0xD PUSH1 0x24 DUP3 ADD MSTORE PUSH13 0x9AEAE6E840E6CADCC8408AA89 PUSH1 0x9B SHL PUSH1 0x44 DUP3 ADD MSTORE PUSH1 0x64 SWAP1 REVERT JUMPDEST PUSH1 0x40 MLOAD PUSH3 0x461BCD PUSH1 0xE5 SHL DUP2 MSTORE PUSH1 0x20 PUSH1 0x4 DUP3 ADD MSTORE PUSH1 0x17 PUSH1 0x24 DUP3 ADD MSTORE PUSH32 0x46756E64696E6720646561646C696E6520706173736564000000000000000000 PUSH1 0x44 DUP3 ADD MSTORE PUSH1 0x64 SWAP1 REVERT JUMPDEST CALLVALUE PUSH2 0x341 JUMPI PUSH1 0x0 CALLDATASIZE PUSH1 0x3 NOT ADD SLT PUSH2 0x341 JUMPI PUSH1 0x20 PUSH1 0x0 SLOAD PUSH1 0x40 MLOAD SWAP1 DUP2 MSTORE RETURN JUMPDEST CALLVALUE PUSH2 0x341 JUMPI PUSH1 0x20 CALLDATASIZE PUSH1 0x3 NOT ADD SLT PUSH2 0x341 JUMPI PUSH1 0x4 CALLDATALOAD PUSH2 0x2433 PUSH2 0x3F21 JUMP JUMPDEST DUP1 PUSH1 0x0 MSTORE PUSH1 0x1 PUSH1 0x20 MSTORE PUSH1 0x40 PUSH1 0x0 KECCAK256 PUSH1 0x6 DUP2 ADD SWAP1 DUP2 SLOAD PUSH1 0xFF DUP2 AND SWAP1 PUSH1 0x3 DUP3 LT ISZERO PUSH2 0x1499 JUMPI PUSH2 0x2462 PUSH1 0xFF SWAP3 ISZERO PUSH2 0x3D7D JUMP JUMPDEST PUSH1 0x8 SHR AND PUSH1 0x2 DUP2 LT ISZERO PUSH2 0x1499 JUMPI PUSH1 0x1 EQ SWAP1 DUP2 ISZERO SWAP2 PUSH2 0x2645 JUMPI JUMPDEST POP ISZERO PUSH2 0x25F5 JUMPI PUSH1 0xFF SWAP1 PUSH1 0x1 DUP3 NOT DUP3 SLOAD AND OR DUP2 SSTORE DUP3 PUSH32 0x1289CF89AAAED53D6590C1B7996BA434EDB31DCBD322D0B88FF0C02F64BBDEEF PUSH1 0x20 PUSH1 0x40 MLOAD PUSH1 0x1 DUP2 MSTORE LOG2 SLOAD PUSH1 0x8 SHR AND PUSH1 0x2 DUP2 LT ISZERO PUSH2 0x1499 JUMPI PUSH1 0x1 EQ PUSH2 0x24D1 JUMPI STOP JUMPDEST DUP1 PUSH1 0x0 MSTORE PUSH1 0x1 PUSH1 0x20 MSTORE PUSH1 0x40 PUSH1 0x0 KECCAK256 PUSH1 0x7 SLOAD PUSH3 0x76A700 DUP2 ADD DUP1 SWAP2 GT PUSH2 0xA3 JUMPI TIMESTAMP LT ISZERO PUSH2 0x25B0 JUMPI JUMPDEST PUSH1 0x8 SLOAD PUSH1 0x2 DUP3 ADD PUSH2 0x250A DUP2 SLOAD DUP1 SWAP4 PUSH2 0x3C69 JUMP JUMPDEST PUSH1 0x6 SLOAD LT PUSH2 0x256B JUMPI PUSH2 0x255E DUP3 PUSH1 0x4 PUSH32 0x4608424E4F38941A5879B3EFE268417EB8B5724E0B5FDBC1E471F4140EBADA5A SWAP6 PUSH2 0x2548 PUSH1 0x20 SWAP7 SELFBALANCE LT ISZERO PUSH2 0x3ED5 JUMP JUMPDEST ADD PUSH2 0x2554 DUP3 DUP3 SLOAD PUSH2 0x3C69 JUMP JUMPDEST SWAP1 SSTORE PUSH1 0x8 SLOAD PUSH2 0x3C69 JUMP JUMPDEST PUSH1 0x8 SSTORE SLOAD PUSH1 0x40 MLOAD SWAP1 DUP2 MSTORE LOG2 STOP JUMPDEST PUSH1 0x40 MLOAD PUSH3 0x461BCD PUSH1 0xE5 SHL DUP2 MSTORE PUSH1 0x20 PUSH1 0x4 DUP3 ADD MSTORE PUSH1 0x17 PUSH1 0x24 DUP3 ADD MSTORE PUSH32 0x4578636565647320717561727465726C79206C696D6974000000000000000000 PUSH1 0x44 DUP3 ADD MSTORE PUSH1 0x64 SWAP1 REVERT JUMPDEST TIMESTAMP PUSH1 0x7 SSTORE PUSH1 0x0 PUSH1 0x8 SSTORE PUSH32 0x1F92CCA502DFDCDD42AD90D554B27F8DE184FECA1DD0B0746029B1B35285BB2B PUSH1 0x40 PUSH1 0xA SELFBALANCE DIV DUP1 PUSH1 0x6 SSTORE DUP2 MLOAD SWAP1 DUP2 MSTORE TIMESTAMP PUSH1 0x20 DUP3 ADD MSTORE LOG1 PUSH2 0x24F7 JUMP JUMPDEST PUSH1 0x40 MLOAD PUSH3 0x461BCD PUSH1 0xE5 SHL DUP2 MSTORE PUSH1 0x20 PUSH1 0x4 DUP3 ADD MSTORE PUSH1 0x22 PUSH1 0x24 DUP3 ADD MSTORE PUSH32 0x5472656173757279204772616E74732072657175697265206D696C6573746F6E PUSH1 0x44 DUP3 ADD MSTORE PUSH2 0x6573 PUSH1 0xF0 SHL PUSH1 0x64 DUP3 ADD MSTORE PUSH1 0x84 SWAP1 REVERT JUMPDEST PUSH1 0x7 SWAP2 POP ADD SLOAD ISZERO ISZERO DUP4 PUSH2 0x247B JUMP JUMPDEST CALLVALUE PUSH2 0x341 JUMPI PUSH1 0x0 CALLDATASIZE PUSH1 0x3 NOT ADD SLT PUSH2 0x341 JUMPI PUSH1 0x20 PUSH2 0x266E PUSH2 0x3E0C JUMP JUMPDEST PUSH1 0x40 MLOAD SWAP1 DUP2 MSTORE RETURN JUMPDEST CALLVALUE PUSH2 0x341 JUMPI PUSH1 0x20 CALLDATASIZE PUSH1 0x3 NOT ADD SLT PUSH2 0x341 JUMPI PUSH1 0x1 PUSH1 0x1 PUSH1 0xA0 SHL SUB PUSH2 0x2697 PUSH2 0x3928 JUMP JUMPDEST AND PUSH1 0x0 MSTORE PUSH1 0x9 PUSH1 0x20 MSTORE PUSH1 0x20 PUSH1 0xFF PUSH1 0x40 PUSH1 0x0 KECCAK256 SLOAD AND PUSH1 0x40 MLOAD SWAP1 ISZERO ISZERO DUP2 MSTORE RETURN JUMPDEST CALLVALUE PUSH2 0x341 JUMPI PUSH1 0x40 CALLDATASIZE PUSH1 0x3 NOT ADD SLT PUSH2 0x341 JUMPI PUSH2 0x26CE PUSH2 0x3928 JUMP JUMPDEST PUSH2 0x26D6 PUSH2 0x396A JUMP JUMPDEST SWAP1 PUSH2 0x26DF PUSH2 0x3F93 JUMP JUMPDEST PUSH1 0x1 PUSH1 0x1 PUSH1 0xA0 SHL SUB AND SWAP1 DUP2 ISZERO PUSH2 0x2735 JUMPI PUSH1 0x20 PUSH32 0x2DF1CAD2A2659E001C3804C872F69655356013E35C18C2E77A5D568078AB788F SWAP2 DUP4 PUSH1 0x0 MSTORE PUSH1 0x9 DUP3 MSTORE PUSH2 0xFA9 DUP2 PUSH1 0x40 PUSH1 0x0 KECCAK256 SWAP1 PUSH1 0xFF DUP1 NOT DUP4 SLOAD AND SWAP2 ISZERO ISZERO AND OR SWAP1 SSTORE JUMP JUMPDEST PUSH1 0x40 MLOAD PUSH3 0x461BCD PUSH1 0xE5 SHL DUP2 MSTORE PUSH1 0x20 PUSH1 0x4 DUP3 ADD MSTORE PUSH1 0xF PUSH1 0x24 DUP3 ADD MSTORE PUSH15 0x496E76616C69642061646472657373 PUSH1 0x88 SHL PUSH1 0x44 DUP3 ADD MSTORE PUSH1 0x64 SWAP1 REVERT JUMPDEST CALLVALUE PUSH2 0x341 JUMPI PUSH1 0x40 CALLDATASIZE PUSH1 0x3 NOT ADD SLT PUSH2 0x341 JUMPI PUSH1 0x1 PUSH1 0x1 PUSH1 0xA0 SHL SUB PUSH2 0x278D PUSH2 0x3928 JUMP JUMPDEST AND PUSH1 0x0 MSTORE PUSH1 0xA PUSH1 0x20 MSTORE PUSH1 0x40 PUSH1 0x0 KECCAK256 PUSH1 0x24 CALLDATALOAD PUSH1 0x0 MSTORE PUSH1 0x20 MSTORE PUSH1 0x20 PUSH1 0xFF PUSH1 0x40 PUSH1 0x0 KECCAK256 SLOAD AND PUSH1 0x40 MLOAD SWAP1 ISZERO ISZERO DUP2 MSTORE RETURN JUMPDEST CALLVALUE PUSH2 0x341 JUMPI PUSH1 0x40 CALLDATASIZE PUSH1 0x3 NOT ADD SLT PUSH2 0x341 JUMPI PUSH1 0x1 PUSH1 0x1 PUSH1 0xA0 SHL SUB PUSH2 0x27DA PUSH2 0x393E JUMP JUMPDEST AND PUSH1 0x0 MSTORE PUSH1 0x2 PUSH1 0x20 MSTORE PUSH1 0x40 PUSH1 0x0 KECCAK256 PUSH1 0x4 CALLDATALOAD PUSH1 0x0 MSTORE PUSH1 0x20 MSTORE PUSH1 0x20 PUSH1 0x40 PUSH1 0x0 KECCAK256 SLOAD PUSH1 0x40 MLOAD SWAP1 DUP2 MSTORE RETURN JUMPDEST CALLVALUE PUSH2 0x341 JUMPI PUSH1 0x20 CALLDATASIZE PUSH1 0x3 NOT ADD SLT PUSH2 0x341 JUMPI PUSH2 0x281A PUSH2 0x3928 JUMP JUMPDEST PUSH2 0x2822 PUSH2 0x43F2 JUMP JUMPDEST PUSH2 0x282A PUSH2 0x43B6 JUMP JUMPDEST PUSH1 0x1 PUSH1 0x1 PUSH1 0xA0 SHL SUB DUP2 AND PUSH1 0x0 DUP2 DUP2 MSTORE PUSH1 0xB PUSH1 0x20 MSTORE PUSH1 0x40 SWAP1 KECCAK256 SLOAD SWAP1 SWAP2 DUP2 ISZERO PUSH2 0x28D3 JUMPI PUSH1 0x0 DUP1 DUP1 SWAP4 DUP2 SWAP4 DUP7 DUP4 MSTORE PUSH1 0xB PUSH1 0x20 MSTORE DUP3 PUSH1 0x40 DUP2 KECCAK256 SSTORE GAS CALL PUSH2 0x286A PUSH2 0x3C39 JUMP JUMPDEST POP ISZERO PUSH2 0x2884 JUMPI PUSH1 0x1 PUSH1 0x0 DUP1 MLOAD PUSH1 0x20 PUSH2 0x4779 DUP4 CODECOPY DUP2 MLOAD SWAP2 MSTORE SSTORE STOP JUMPDEST PUSH1 0x40 MLOAD PUSH3 0x461BCD PUSH1 0xE5 SHL DUP2 MSTORE PUSH1 0x20 PUSH1 0x4 DUP3 ADD MSTORE PUSH1 0x21 PUSH1 0x24 DUP3 ADD MSTORE PUSH32 0x4661696C6564207472616E73666572207769746864726177616C206661696C65 PUSH1 0x44 DUP3 ADD MSTORE PUSH1 0x19 PUSH1 0xFA SHL PUSH1 0x64 DUP3 ADD MSTORE PUSH1 0x84 SWAP1 REVERT JUMPDEST PUSH1 0x40 MLOAD PUSH3 0x461BCD PUSH1 0xE5 SHL DUP2 MSTORE PUSH1 0x20 PUSH1 0x4 DUP3 ADD MSTORE PUSH1 0x1F PUSH1 0x24 DUP3 ADD MSTORE PUSH32 0x4E6F206661696C6564207472616E736665727320746F20776974686472617700 PUSH1 0x44 DUP3 ADD MSTORE PUSH1 0x64 SWAP1 REVERT JUMPDEST CALLVALUE PUSH2 0x341 JUMPI PUSH1 0x20 CALLDATASIZE PUSH1 0x3 NOT ADD SLT PUSH2 0x341 JUMPI PUSH1 0x4 CALLDATALOAD PUSH1 0x0 MSTORE PUSH1 0x3 PUSH1 0x20 MSTORE PUSH1 0x40 PUSH1 0x0 KECCAK256 PUSH1 0x40 MLOAD DUP1 PUSH1 0x20 DUP4 SLOAD SWAP2 DUP3 DUP2 MSTORE ADD SWAP1 DUP2 SWAP4 PUSH1 0x0 MSTORE PUSH1 0x20 PUSH1 0x0 KECCAK256 SWAP1 PUSH1 0x0 JUMPDEST DUP2 DUP2 LT PUSH2 0x29B7 JUMPI POP POP POP DUP2 PUSH2 0x296B SWAP2 SUB DUP3 PUSH2 0x3694 JUMP JUMPDEST PUSH1 0x40 MLOAD SWAP2 DUP3 SWAP2 PUSH1 0x20 DUP4 ADD SWAP1 PUSH1 0x20 DUP5 MSTORE MLOAD DUP1 SWAP2 MSTORE PUSH1 0x40 DUP4 ADD SWAP2 SWAP1 PUSH1 0x0 JUMPDEST DUP2 DUP2 LT PUSH2 0x2995 JUMPI POP POP POP SUB SWAP1 RETURN JUMPDEST DUP3 MLOAD PUSH1 0x1 PUSH1 0x1 PUSH1 0xA0 SHL SUB AND DUP5 MSTORE DUP6 SWAP5 POP PUSH1 0x20 SWAP4 DUP5 ADD SWAP4 SWAP1 SWAP3 ADD SWAP2 PUSH1 0x1 ADD PUSH2 0x2987 JUMP JUMPDEST DUP3 SLOAD PUSH1 0x1 PUSH1 0x1 PUSH1 0xA0 SHL SUB AND DUP5 MSTORE PUSH1 0x20 SWAP1 SWAP4 ADD SWAP3 PUSH1 0x1 SWAP3 DUP4 ADD SWAP3 ADD PUSH2 0x2955 JUMP JUMPDEST CALLVALUE PUSH2 0x341 JUMPI PUSH2 0x29E4 CALLDATASIZE PUSH2 0x3954 JUMP JUMPDEST PUSH2 0x29EC PUSH2 0x3F21 JUMP JUMPDEST DUP2 PUSH1 0x0 MSTORE PUSH1 0x1 PUSH1 0x20 MSTORE PUSH1 0x40 PUSH1 0x0 KECCAK256 PUSH1 0xFF PUSH1 0x6 DUP3 ADD SLOAD PUSH1 0x8 SHR AND SWAP2 PUSH1 0x2 DUP4 LT ISZERO PUSH2 0x1499 JUMPI PUSH2 0x2A45 DUP2 PUSH1 0x7 PUSH1 0x40 SWAP5 PUSH2 0x1620 PUSH1 0x1 PUSH32 0x99C1E384941F7E42E3F9FE91B348AA32F8105B4E750B515D7E0D41EE8B66B0CC SWAP9 EQ PUSH2 0x39A7 JUMP JUMPDEST POP PUSH2 0x2A57 PUSH1 0xFF PUSH1 0x2 DUP4 ADD SLOAD AND ISZERO PUSH2 0x3D10 JUMP JUMPDEST PUSH1 0x5 TIMESTAMP SWAP2 ADD SSTORE DUP2 MLOAD SWAP1 DUP2 MSTORE TIMESTAMP PUSH1 0x20 DUP3 ADD MSTORE LOG2 STOP JUMPDEST CALLVALUE PUSH2 0x341 JUMPI PUSH1 0x20 CALLDATASIZE PUSH1 0x3 NOT ADD SLT PUSH2 0x341 JUMPI PUSH1 0x4 CALLDATALOAD PUSH2 0x2A87 PUSH2 0x3F21 JUMP JUMPDEST DUP1 PUSH1 0x0 MSTORE PUSH1 0x1 PUSH1 0x20 MSTORE PUSH1 0x40 PUSH1 0x0 KECCAK256 PUSH1 0x6 DUP2 ADD SWAP1 DUP2 SLOAD PUSH1 0xFF DUP2 PUSH1 0x8 SHR AND SWAP1 PUSH1 0x2 DUP3 LT ISZERO PUSH2 0x1499 JUMPI PUSH2 0x2ABB PUSH1 0x1 PUSH1 0xFF SWAP4 EQ PUSH2 0x39A7 JUMP JUMPDEST AND PUSH1 0x3 DUP2 LT ISZERO PUSH2 0x1499 JUMPI PUSH1 0x2 SUB PUSH2 0x2B20 JUMPI PUSH1 0xE ADD SWAP1 PUSH2 0x2ADD DUP3 SLOAD TIMESTAMP LT ISZERO PUSH2 0x3DC0 JUMP JUMPDEST PUSH1 0xFF NOT DUP2 SLOAD AND SWAP1 SSTORE PUSH3 0x127500 TIMESTAMP ADD SWAP1 DUP2 TIMESTAMP GT PUSH2 0xA3 JUMPI SSTORE PUSH32 0x379FB972D68CB215EF30793B39641170D26B4747138827DADC647D7CD7F0C4CF PUSH1 0x20 PUSH1 0x40 MLOAD CALLER DUP2 MSTORE LOG2 STOP JUMPDEST PUSH1 0x40 MLOAD PUSH3 0x461BCD PUSH1 0xE5 SHL DUP2 MSTORE PUSH1 0x20 PUSH1 0x4 DUP3 ADD MSTORE PUSH1 0x15 PUSH1 0x24 DUP3 ADD MSTORE PUSH21 0x10D85B5C185A59DB881B9BDD081C995A9958DD1959 PUSH1 0x5A SHL PUSH1 0x44 DUP3 ADD MSTORE PUSH1 0x64 SWAP1 REVERT JUMPDEST CALLVALUE PUSH2 0x341 JUMPI PUSH1 0x40 CALLDATASIZE PUSH1 0x3 NOT ADD SLT PUSH2 0x341 JUMPI PUSH2 0x2B76 PUSH2 0x393E JUMP JUMPDEST CALLER PUSH1 0x1 PUSH1 0x1 PUSH1 0xA0 SHL SUB DUP3 AND SUB PUSH2 0x2B92 JUMPI PUSH2 0x1017 SWAP1 PUSH1 0x4 CALLDATALOAD PUSH2 0x464A JUMP JUMPDEST PUSH4 0x334BD919 PUSH1 0xE1 SHL PUSH1 0x0 MSTORE PUSH1 0x4 PUSH1 0x0 REVERT JUMPDEST CALLVALUE PUSH2 0x341 JUMPI PUSH1 0x20 CALLDATASIZE PUSH1 0x3 NOT ADD SLT PUSH2 0x341 JUMPI PUSH1 0x4 CALLDATALOAD PUSH2 0x2BBF PUSH2 0x43F2 JUMP JUMPDEST PUSH2 0x2BC7 PUSH2 0x43B6 JUMP JUMPDEST SELFBALANCE DUP2 GT PUSH2 0x2C39 JUMPI PUSH2 0x2BF9 PUSH1 0x0 DUP1 DUP1 DUP1 DUP6 PUSH1 0x1 DUP1 PUSH1 0xA0 SHL SUB PUSH1 0x0 DUP1 MLOAD PUSH1 0x20 PUSH2 0x4739 DUP4 CODECOPY DUP2 MLOAD SWAP2 MSTORE SLOAD AND GAS CALL PUSH2 0x13AF PUSH2 0x3C39 JUMP JUMPDEST PUSH1 0x40 MLOAD SWAP1 DUP2 MSTORE PUSH32 0xA919FADCFA556A012BAB31B15F596EA7CCD397ADBF10E15F176DB9055AB361C4 PUSH1 0x20 CALLER SWAP3 LOG2 PUSH1 0x1 PUSH1 0x0 DUP1 MLOAD PUSH1 0x20 PUSH2 0x4779 DUP4 CODECOPY DUP2 MLOAD SWAP2 MSTORE SSTORE STOP JUMPDEST PUSH1 0x40 MLOAD PUSH3 0x461BCD PUSH1 0xE5 SHL DUP2 MSTORE PUSH1 0x20 PUSH1 0x4 DUP3 ADD MSTORE PUSH1 0x12 PUSH1 0x24 DUP3 ADD MSTORE PUSH18 0x496E73756666696369656E742066756E6473 PUSH1 0x70 SHL PUSH1 0x44 DUP3 ADD MSTORE PUSH1 0x64 SWAP1 REVERT JUMPDEST CALLVALUE PUSH2 0x341 JUMPI PUSH1 0x0 CALLDATASIZE PUSH1 0x3 NOT ADD SLT PUSH2 0x341 JUMPI PUSH1 0x5 SLOAD PUSH1 0x40 MLOAD PUSH1 0x1 PUSH1 0x1 PUSH1 0xA0 SHL SUB SWAP1 SWAP2 AND DUP2 MSTORE PUSH1 0x20 SWAP1 RETURN JUMPDEST CALLVALUE PUSH2 0x341 JUMPI PUSH1 0x40 CALLDATASIZE PUSH1 0x3 NOT ADD SLT PUSH2 0x341 JUMPI PUSH2 0x1017 PUSH1 0x4 CALLDATALOAD PUSH2 0x2CBB PUSH2 0x393E JUMP JUMPDEST SWAP1 PUSH2 0x2CC8 PUSH2 0x107C DUP3 PUSH2 0x3D5C JUMP JUMPDEST PUSH2 0x45A8 JUMP JUMPDEST CALLVALUE PUSH2 0x341 JUMPI PUSH1 0x20 CALLDATASIZE PUSH1 0x3 NOT ADD SLT PUSH2 0x341 JUMPI PUSH1 0x4 CALLDATALOAD DUP1 PUSH1 0x0 MSTORE PUSH1 0x1 PUSH1 0x20 MSTORE PUSH1 0x40 PUSH1 0x0 KECCAK256 PUSH1 0x6 DUP2 ADD SWAP1 DUP2 SLOAD PUSH1 0xFF DUP2 PUSH1 0x8 SHR AND SWAP1 PUSH1 0x2 DUP3 LT ISZERO PUSH2 0x1499 JUMPI PUSH2 0x2D15 PUSH1 0x1 PUSH1 0xFF SWAP4 EQ PUSH2 0x39A7 JUMP JUMPDEST AND PUSH1 0x3 DUP2 LT ISZERO PUSH2 0x1499 JUMPI PUSH2 0x2D39 SWAP2 PUSH2 0x2D2F PUSH1 0xE SWAP3 ISZERO PUSH2 0x3D7D JUMP JUMPDEST ADD SLOAD TIMESTAMP LT ISZERO PUSH2 0x3DC0 JUMP JUMPDEST PUSH1 0x2 PUSH1 0xFF NOT DUP3 SLOAD AND OR SWAP1 SSTORE PUSH32 0x1289CF89AAAED53D6590C1B7996BA434EDB31DCBD322D0B88FF0C02F64BBDEEF PUSH1 0x20 PUSH1 0x40 MLOAD PUSH1 0x2 DUP2 MSTORE LOG2 STOP JUMPDEST CALLVALUE PUSH2 0x341 JUMPI PUSH1 0x0 CALLDATASIZE PUSH1 0x3 NOT ADD SLT PUSH2 0x341 JUMPI PUSH1 0x20 PUSH1 0x6 SLOAD PUSH1 0x40 MLOAD SWAP1 DUP2 MSTORE RETURN JUMPDEST CALLVALUE PUSH2 0x341 JUMPI PUSH1 0x20 CALLDATASIZE PUSH1 0x3 NOT ADD SLT PUSH2 0x341 JUMPI PUSH1 0x20 PUSH2 0x266E PUSH1 0x4 CALLDATALOAD PUSH2 0x3D5C JUMP JUMPDEST CALLVALUE PUSH2 0x341 JUMPI PUSH2 0x2DBB CALLDATASIZE PUSH2 0x3954 JUMP JUMPDEST PUSH2 0x2DC3 PUSH2 0x3F21 JUMP JUMPDEST DUP2 PUSH1 0x0 MSTORE PUSH1 0x1 PUSH1 0x20 MSTORE PUSH1 0x40 PUSH1 0x0 KECCAK256 PUSH1 0xFF PUSH1 0x6 DUP3 ADD SLOAD PUSH1 0x8 SHR AND SWAP1 PUSH1 0x2 DUP3 LT ISZERO PUSH2 0x1499 JUMPI PUSH1 0x7 DUP4 SWAP2 PUSH2 0x1620 PUSH1 0x1 PUSH2 0x2DF9 SWAP6 EQ PUSH2 0x39A7 JUMP JUMPDEST POP PUSH1 0x2 DUP2 ADD SWAP2 DUP3 SLOAD SWAP2 PUSH2 0x2E0F PUSH1 0xFF DUP5 AND ISZERO PUSH2 0x3D10 JUMP JUMPDEST PUSH2 0x2E1C PUSH1 0x4 DUP3 ADD SLOAD PUSH2 0x3809 JUMP JUMPDEST ISZERO PUSH2 0x2E63 JUMPI PUSH32 0xD4DBDA378623F00B72EF135B4579B7BA064C49645217EB107D663831EFAC6358 SWAP4 PUSH1 0x1 PUSH1 0x40 SWAP5 PUSH1 0xFF NOT AND OR SWAP1 SSTORE PUSH1 0x3 TIMESTAMP SWAP2 ADD SSTORE DUP2 MLOAD SWAP1 DUP2 MSTORE TIMESTAMP PUSH1 0x20 DUP3 ADD MSTORE LOG2 STOP JUMPDEST PUSH1 0x40 MLOAD PUSH3 0x461BCD PUSH1 0xE5 SHL DUP2 MSTORE PUSH1 0x20 PUSH1 0x4 DUP3 ADD MSTORE PUSH1 0x12 PUSH1 0x24 DUP3 ADD MSTORE PUSH18 0x139BC81C1C9BDBD9881CDD589B5A5D1D1959 PUSH1 0x72 SHL PUSH1 0x44 DUP3 ADD MSTORE PUSH1 0x64 SWAP1 REVERT JUMPDEST CALLVALUE PUSH2 0x341 JUMPI PUSH1 0x20 CALLDATASIZE PUSH1 0x3 NOT ADD SLT PUSH2 0x341 JUMPI PUSH2 0x2EB6 PUSH2 0x3928 JUMP JUMPDEST PUSH2 0x2EBE PUSH2 0x43F2 JUMP JUMPDEST PUSH1 0x1 PUSH1 0x1 PUSH1 0xA0 SHL SUB AND DUP1 ISZERO PUSH2 0x2EEA JUMPI PUSH12 0xFFFFFFFFFFFFFFFFFFFFFFFF PUSH1 0xA0 SHL PUSH1 0x5 SLOAD AND OR PUSH1 0x5 SSTORE PUSH1 0x0 DUP1 RETURN JUMPDEST PUSH1 0x40 MLOAD PUSH3 0x461BCD PUSH1 0xE5 SHL DUP2 MSTORE PUSH1 0x20 PUSH1 0x4 DUP3 ADD MSTORE PUSH1 0x19 PUSH1 0x24 DUP3 ADD MSTORE PUSH32 0x496E76616C6964204149204F7261636C65206164647265737300000000000000 PUSH1 0x44 DUP3 ADD MSTORE PUSH1 0x64 SWAP1 REVERT JUMPDEST CALLVALUE PUSH2 0x341 JUMPI PUSH1 0x20 CALLDATASIZE PUSH1 0x3 NOT ADD SLT PUSH2 0x341 JUMPI PUSH1 0x4 CALLDATALOAD PUSH2 0x2F4B PUSH2 0x43B6 JUMP JUMPDEST DUP1 PUSH1 0x0 MSTORE PUSH1 0x1 PUSH1 0x20 MSTORE PUSH1 0x40 PUSH1 0x0 KECCAK256 SWAP1 PUSH2 0x2F71 PUSH1 0x1 DUP1 PUSH1 0xA0 SHL SUB PUSH1 0x1 DUP5 ADD SLOAD AND CALLER EQ PUSH2 0x3B02 JUMP JUMPDEST PUSH1 0x6 DUP3 ADD SWAP2 DUP3 SLOAD PUSH1 0xFF DUP2 AND PUSH1 0x3 DUP2 LT ISZERO PUSH2 0x1499 JUMPI PUSH1 0x1 PUSH2 0x2F91 SWAP2 EQ PUSH2 0x3B3C JUMP JUMPDEST PUSH1 0x8 SHR PUSH1 0xFF AND PUSH1 0x0 PUSH1 0x2 DUP3 LT ISZERO PUSH2 0x338E JUMPI POP PUSH2 0x32AF JUMPI PUSH1 0x4 DUP2 ADD SLOAD SWAP1 PUSH2 0x2FBB PUSH1 0x8 DUP3 ADD SLOAD DUP4 PUSH2 0x3B80 JUMP JUMPDEST PUSH1 0x0 SWAP3 PUSH2 0x2FC9 DUP3 ISZERO ISZERO PUSH2 0x3B8D JUMP JUMPDEST PUSH1 0x2 DUP4 ADD SLOAD GT DUP1 PUSH2 0x32A2 JUMPI JUMPDEST PUSH2 0x3251 JUMPI JUMPDEST PUSH8 0x4563918244F40000 DUP2 GT PUSH2 0x3201 JUMPI JUMPDEST PUSH1 0x19 DUP2 MUL SWAP1 DUP1 ISZERO SWAP2 DUP2 DUP2 DIV PUSH1 0x19 EQ DUP4 OR ISZERO PUSH2 0xA3 JUMPI PUSH2 0x3E8 SWAP1 DIV SWAP3 DUP4 ISZERO DUP1 PUSH2 0x31F9 JUMPI JUMPDEST PUSH2 0x31F0 JUMPI JUMPDEST PUSH1 0xA DUP3 MUL DUP3 DUP2 DIV PUSH1 0xA EQ DUP5 OR ISZERO PUSH2 0xA3 JUMPI PUSH2 0x3E8 SWAP1 DIV SWAP3 PUSH1 0xF DUP4 MUL SWAP1 DUP4 DUP3 DIV PUSH1 0xF EQ OR ISZERO PUSH2 0xA3 JUMPI PUSH2 0x304B PUSH2 0x3E8 PUSH1 0xFF SWAP3 DIV SWAP6 DUP5 PUSH2 0x3B80 JUMP JUMPDEST SWAP8 PUSH1 0x0 DUP1 DUP1 DUP1 DUP9 PUSH1 0x1 DUP1 PUSH1 0xA0 SHL SUB PUSH1 0x4 SLOAD AND GAS CALL PUSH2 0x3067 PUSH2 0x3C39 JUMP JUMPDEST POP ISZERO PUSH2 0x31A3 JUMPI JUMPDEST PUSH1 0x0 DUP1 DUP1 DUP1 DUP10 PUSH1 0x1 DUP1 PUSH1 0xA0 SHL SUB PUSH1 0x0 DUP1 MLOAD PUSH1 0x20 PUSH2 0x4739 DUP4 CODECOPY DUP2 MLOAD SWAP2 MSTORE SLOAD AND GAS CALL PUSH2 0x3096 PUSH2 0x3C39 JUMP JUMPDEST POP ISZERO PUSH2 0x313C JUMPI JUMPDEST SLOAD PUSH1 0x8 SHR AND PUSH1 0x2 DUP2 LT ISZERO PUSH2 0x1499 JUMPI PUSH2 0x3126 JUMPI PUSH1 0x8 PUSH2 0x30BE SWAP2 ADD SWAP2 DUP3 SLOAD PUSH2 0x3C69 JUMP JUMPDEST SWAP1 SSTORE JUMPDEST PUSH2 0x30D5 PUSH1 0x0 DUP1 DUP1 DUP1 DUP10 CALLER GAS CALL PUSH2 0x13AF PUSH2 0x3C39 JUMP JUMPDEST PUSH1 0x40 MLOAD SWAP5 DUP6 MSTORE PUSH1 0x20 DUP6 ADD MSTORE PUSH1 0x40 DUP5 ADD MSTORE ISZERO ISZERO PUSH1 0x60 DUP4 ADD MSTORE PUSH32 0xFD8443316DCAF390C4480028D81568298BB47A1D097857F2F1FBD54B06763345 PUSH1 0x80 CALLER SWAP4 LOG3 PUSH1 0x1 PUSH1 0x0 DUP1 MLOAD PUSH1 0x20 PUSH2 0x4779 DUP4 CODECOPY DUP2 MLOAD SWAP2 MSTORE SSTORE STOP JUMPDEST PUSH1 0x9 PUSH2 0x3135 SWAP2 ADD SWAP2 DUP3 SLOAD PUSH2 0x3C69 JUMP JUMPDEST SWAP1 SSTORE PUSH2 0x30C1 JUMP JUMPDEST PUSH1 0x1 DUP1 PUSH1 0xA0 SHL SUB PUSH1 0x0 DUP1 MLOAD PUSH1 0x20 PUSH2 0x4739 DUP4 CODECOPY DUP2 MLOAD SWAP2 MSTORE SLOAD AND PUSH1 0x0 MSTORE PUSH1 0xB PUSH1 0x20 MSTORE PUSH1 0x40 PUSH1 0x0 KECCAK256 PUSH2 0x316C DUP8 DUP3 SLOAD PUSH2 0x3C69 JUMP JUMPDEST SWAP1 SSTORE PUSH1 0x1 DUP1 PUSH1 0xA0 SHL SUB PUSH1 0x0 DUP1 MLOAD PUSH1 0x20 PUSH2 0x4739 DUP4 CODECOPY DUP2 MLOAD SWAP2 MSTORE SLOAD AND PUSH1 0x0 DUP1 MLOAD PUSH1 0x20 PUSH2 0x4719 DUP4 CODECOPY DUP2 MLOAD SWAP2 MSTORE PUSH1 0x20 PUSH1 0x40 MLOAD DUP10 DUP2 MSTORE LOG2 PUSH2 0x309D JUMP JUMPDEST PUSH1 0x1 DUP1 PUSH1 0xA0 SHL SUB PUSH1 0x4 SLOAD AND PUSH1 0x0 MSTORE PUSH1 0xB PUSH1 0x20 MSTORE PUSH1 0x40 PUSH1 0x0 KECCAK256 PUSH2 0x31C6 DUP7 DUP3 SLOAD PUSH2 0x3C69 JUMP JUMPDEST SWAP1 SSTORE PUSH1 0x1 DUP1 PUSH1 0xA0 SHL SUB PUSH1 0x4 SLOAD AND PUSH1 0x0 DUP1 MLOAD PUSH1 0x20 PUSH2 0x4719 DUP4 CODECOPY DUP2 MLOAD SWAP2 MSTORE PUSH1 0x20 PUSH1 0x40 MLOAD DUP9 DUP2 MSTORE LOG2 PUSH2 0x306E JUMP JUMPDEST PUSH1 0x1 SWAP4 POP PUSH2 0x3012 JUMP JUMPDEST POP DUP3 ISZERO PUSH2 0x300D JUMP JUMPDEST CALLER PUSH1 0x0 MSTORE PUSH1 0x9 PUSH1 0x20 MSTORE PUSH1 0xFF PUSH1 0x40 PUSH1 0x0 KECCAK256 SLOAD AND DUP1 ISZERO PUSH2 0x3228 JUMPI JUMPDEST PUSH2 0x3223 SWAP1 PUSH2 0x3BD0 JUMP JUMPDEST PUSH2 0x2FEA JUMP JUMPDEST POP CALLER PUSH1 0x0 MSTORE PUSH1 0xA PUSH1 0x20 MSTORE PUSH1 0x40 PUSH1 0x0 KECCAK256 DUP5 PUSH1 0x0 MSTORE PUSH1 0x20 MSTORE PUSH2 0x3223 PUSH1 0xFF PUSH1 0x40 PUSH1 0x0 KECCAK256 SLOAD AND SWAP1 POP PUSH2 0x321A JUMP JUMPDEST PUSH1 0x40 MLOAD PUSH3 0x461BCD PUSH1 0xE5 SHL DUP2 MSTORE PUSH1 0x20 PUSH1 0x4 DUP3 ADD MSTORE PUSH1 0x24 DUP1 DUP3 ADD MSTORE PUSH32 0x476F616C206E6F74206D657420616E6420646561646C696E65206E6F74207061 PUSH1 0x44 DUP3 ADD MSTORE PUSH4 0x1CDCD959 PUSH1 0xE2 SHL PUSH1 0x64 DUP3 ADD MSTORE PUSH1 0x84 SWAP1 REVERT JUMPDEST POP PUSH1 0x3 DUP3 ADD SLOAD TIMESTAMP LT PUSH2 0x2FD5 JUMP JUMPDEST PUSH2 0x32C2 PUSH1 0x5 DUP3 ADD SLOAD PUSH1 0x9 DUP4 ADD SLOAD SWAP1 PUSH2 0x3B80 JUMP JUMPDEST SWAP1 PUSH1 0x1 SWAP2 DUP1 ISZERO PUSH2 0x334A JUMPI PUSH1 0x4 DUP3 ADD SLOAD PUSH1 0x2 DUP4 ADD SLOAD GT DUP1 PUSH2 0x333D JUMPI JUMPDEST ISZERO PUSH2 0x2FDA JUMPI PUSH1 0x40 MLOAD PUSH3 0x461BCD PUSH1 0xE5 SHL DUP2 MSTORE PUSH1 0x20 PUSH1 0x4 DUP3 ADD MSTORE PUSH1 0x2D PUSH1 0x24 DUP3 ADD MSTORE PUSH32 0x547265617375727920676F616C206E6F74206D657420616E6420646561646C69 PUSH1 0x44 DUP3 ADD MSTORE PUSH13 0x1B99481B9BDD081C185CDCD959 PUSH1 0x9A SHL PUSH1 0x64 DUP3 ADD MSTORE PUSH1 0x84 SWAP1 REVERT JUMPDEST POP PUSH1 0x3 DUP3 ADD SLOAD TIMESTAMP LT PUSH2 0x32DD JUMP JUMPDEST PUSH1 0x64 PUSH1 0x40 MLOAD PUSH3 0x461BCD PUSH1 0xE5 SHL DUP2 MSTORE PUSH1 0x20 PUSH1 0x4 DUP3 ADD MSTORE PUSH1 0x20 PUSH1 0x24 DUP3 ADD MSTORE PUSH32 0x4E6F2063726F776466756E6465642066756E647320746F207769746864726177 PUSH1 0x44 DUP3 ADD MSTORE REVERT JUMPDEST PUSH4 0x4E487B71 PUSH1 0xE0 SHL DUP2 MSTORE PUSH1 0x21 PUSH1 0x4 MSTORE PUSH1 0x24 SWAP1 REVERT JUMPDEST CALLVALUE PUSH2 0x341 JUMPI PUSH1 0x20 CALLDATASIZE PUSH1 0x3 NOT ADD SLT PUSH2 0x341 JUMPI PUSH1 0x4 CALLDATALOAD PUSH1 0x0 MSTORE PUSH1 0x1 PUSH1 0x20 MSTORE PUSH1 0x40 PUSH1 0x0 KECCAK256 PUSH2 0x33CC DUP2 PUSH2 0x3843 JUMP JUMPDEST SWAP1 PUSH1 0x1 PUSH1 0xA0 SHL PUSH1 0x1 SWAP1 SUB PUSH1 0x1 DUP3 ADD SLOAD AND SWAP1 PUSH1 0x2 DUP2 ADD SLOAD SWAP3 PUSH1 0x3 DUP3 ADD SLOAD PUSH1 0x4 DUP4 ADD SLOAD SWAP1 PUSH1 0x5 DUP5 ADD SLOAD SWAP5 PUSH1 0x6 DUP6 ADD SLOAD SWAP3 PUSH1 0xFF DUP5 AND SWAP4 PUSH1 0x8 SHR PUSH1 0xFF AND PUSH1 0x8 DUP8 ADD SLOAD SWAP3 PUSH1 0x9 DUP9 ADD SLOAD SWAP6 PUSH1 0xA DUP10 ADD PUSH2 0x341E SWAP1 PUSH2 0x3843 JUMP JUMPDEST SWAP10 PUSH2 0x342B PUSH1 0xB DUP12 ADD PUSH2 0x3843 JUMP JUMPDEST SWAP5 PUSH2 0x3438 PUSH1 0xC DUP13 ADD PUSH2 0x3843 JUMP JUMPDEST SWAP8 PUSH1 0xD DUP13 ADD SLOAD SWAP12 PUSH1 0xE ADD SLOAD SWAP11 PUSH1 0x40 MLOAD SWAP15 DUP16 SWAP2 PUSH2 0x1E0 DUP4 MSTORE PUSH2 0x1E0 DUP4 ADD PUSH2 0x345D SWAP2 PUSH2 0x38E7 JUMP JUMPDEST SWAP7 PUSH1 0x20 DUP4 ADD MSTORE PUSH1 0x40 DUP3 ADD MSTORE PUSH1 0x60 ADD MSTORE PUSH1 0x80 DUP14 ADD MSTORE PUSH1 0xA0 DUP13 ADD MSTORE PUSH1 0x3 DUP2 LT ISZERO PUSH2 0x1499 JUMPI PUSH1 0xC0 DUP12 ADD MSTORE PUSH1 0x2 DUP3 LT ISZERO PUSH2 0x1499 JUMPI DUP10 SWAP9 PUSH2 0x34D8 SWAP7 PUSH2 0x34C9 SWAP6 PUSH2 0x34BA SWAP5 PUSH1 0xE0 DUP14 ADD MSTORE PUSH2 0x100 DUP13 ADD MSTORE PUSH2 0x120 DUP12 ADD MSTORE DUP10 DUP3 SUB PUSH2 0x140 DUP12 ADD MSTORE PUSH2 0x38E7 JUMP JUMPDEST SWAP1 DUP8 DUP3 SUB PUSH2 0x160 DUP10 ADD MSTORE PUSH2 0x38E7 JUMP JUMPDEST SWAP1 DUP6 DUP3 SUB PUSH2 0x180 DUP8 ADD MSTORE PUSH2 0x38E7 JUMP JUMPDEST SWAP2 PUSH2 0x1A0 DUP5 ADD MSTORE PUSH2 0x1C0 DUP4 ADD MSTORE SUB SWAP1 RETURN JUMPDEST CALLVALUE PUSH2 0x341 JUMPI PUSH1 0x60 CALLDATASIZE PUSH1 0x3 NOT ADD SLT PUSH2 0x341 JUMPI PUSH1 0x4 CALLDATALOAD PUSH1 0x24 CALLDATALOAD PUSH1 0x1 PUSH1 0x1 PUSH1 0x40 SHL SUB DUP2 GT PUSH2 0x341 JUMPI PUSH2 0x351C SWAP1 CALLDATASIZE SWAP1 PUSH1 0x4 ADD PUSH2 0x372E JUMP JUMPDEST PUSH1 0x44 CALLDATALOAD PUSH1 0x1 PUSH1 0x1 PUSH1 0x40 SHL SUB DUP2 GT PUSH2 0x341 JUMPI PUSH2 0x353B SWAP1 CALLDATASIZE SWAP1 PUSH1 0x4 ADD PUSH2 0x37AC JUMP JUMPDEST SWAP1 PUSH2 0x3544 PUSH2 0x3F21 JUMP JUMPDEST DUP3 PUSH1 0x0 MSTORE PUSH1 0x1 PUSH1 0x20 MSTORE PUSH1 0x40 PUSH1 0x0 KECCAK256 SWAP3 PUSH1 0x6 DUP5 ADD SLOAD PUSH1 0xFF DUP2 PUSH1 0x8 SHR AND SWAP1 PUSH1 0x2 DUP3 LT ISZERO PUSH2 0x1499 JUMPI PUSH2 0x3577 PUSH1 0x1 PUSH1 0xFF SWAP4 EQ PUSH2 0x39A7 JUMP JUMPDEST AND PUSH1 0x3 DUP2 LT ISZERO PUSH2 0x1499 JUMPI PUSH2 0x35A6 JUMPI PUSH2 0x35A1 PUSH1 0x7 PUSH2 0x1017 SWAP6 PUSH2 0x359B DUP6 MLOAD DUP8 MLOAD EQ PUSH2 0x39EA JUMP JUMPDEST ADD PUSH2 0x3A92 JUMP JUMPDEST PUSH2 0x42CA JUMP JUMPDEST PUSH1 0x40 MLOAD PUSH3 0x461BCD PUSH1 0xE5 SHL DUP2 MSTORE PUSH1 0x20 PUSH1 0x4 DUP3 ADD MSTORE PUSH1 0x18 PUSH1 0x24 DUP3 ADD MSTORE PUSH32 0x43616D706169676E206D7573742062652070656E64696E670000000000000000 PUSH1 0x44 DUP3 ADD MSTORE PUSH1 0x64 SWAP1 REVERT JUMPDEST CALLVALUE PUSH2 0x341 JUMPI PUSH1 0x0 CALLDATASIZE PUSH1 0x3 NOT ADD SLT PUSH2 0x341 JUMPI PUSH1 0x20 PUSH1 0x40 MLOAD PUSH32 0x811427A0FA4932AEF534BBA16BC34E9B7B2D7D2A79C475FCA1765F6CC1FAEBEA DUP2 MSTORE RETURN JUMPDEST CALLVALUE PUSH2 0x341 JUMPI PUSH1 0x20 CALLDATASIZE PUSH1 0x3 NOT ADD SLT PUSH2 0x341 JUMPI PUSH1 0x4 CALLDATALOAD SWAP1 PUSH4 0xFFFFFFFF PUSH1 0xE0 SHL DUP3 AND DUP1 SWAP3 SUB PUSH2 0x341 JUMPI PUSH1 0x20 SWAP2 PUSH4 0x7965DB0B PUSH1 0xE0 SHL DUP2 EQ SWAP1 DUP2 ISZERO PUSH2 0x3668 JUMPI JUMPDEST POP ISZERO ISZERO DUP2 MSTORE RETURN JUMPDEST PUSH4 0x1FFC9A7 PUSH1 0xE0 SHL EQ SWAP1 POP DUP4 PUSH2 0x3661 JUMP JUMPDEST PUSH1 0xC0 DUP2 ADD SWAP1 DUP2 LT PUSH1 0x1 PUSH1 0x1 PUSH1 0x40 SHL SUB DUP3 GT OR PUSH2 0x17C7 JUMPI PUSH1 0x40 MSTORE JUMP JUMPDEST SWAP1 PUSH1 0x1F DUP1 NOT SWAP2 ADD AND DUP2 ADD SWAP1 DUP2 LT PUSH1 0x1 PUSH1 0x1 PUSH1 0x40 SHL SUB DUP3 GT OR PUSH2 0x17C7 JUMPI PUSH1 0x40 MSTORE JUMP JUMPDEST PUSH1 0x1 PUSH1 0x1 PUSH1 0x40 SHL SUB DUP2 GT PUSH2 0x17C7 JUMPI PUSH1 0x5 SHL PUSH1 0x20 ADD SWAP1 JUMP JUMPDEST PUSH1 0x1 PUSH1 0x1 PUSH1 0x40 SHL SUB DUP2 GT PUSH2 0x17C7 JUMPI PUSH1 0x1F ADD PUSH1 0x1F NOT AND PUSH1 0x20 ADD SWAP1 JUMP JUMPDEST DUP2 PUSH1 0x1F DUP3 ADD SLT ISZERO PUSH2 0x341 JUMPI DUP1 CALLDATALOAD SWAP1 PUSH2 0x36FE DUP3 PUSH2 0x36CC JUMP JUMPDEST SWAP3 PUSH2 0x370C PUSH1 0x40 MLOAD SWAP5 DUP6 PUSH2 0x3694 JUMP JUMPDEST DUP3 DUP5 MSTORE PUSH1 0x20 DUP4 DUP4 ADD ADD GT PUSH2 0x341 JUMPI DUP2 PUSH1 0x0 SWAP3 PUSH1 0x20 DUP1 SWAP4 ADD DUP4 DUP7 ADD CALLDATACOPY DUP4 ADD ADD MSTORE SWAP1 JUMP JUMPDEST SWAP1 DUP1 PUSH1 0x1F DUP4 ADD SLT ISZERO PUSH2 0x341 JUMPI DUP2 CALLDATALOAD PUSH2 0x3745 DUP2 PUSH2 0x36B5 JUMP JUMPDEST SWAP3 PUSH2 0x3753 PUSH1 0x40 MLOAD SWAP5 DUP6 PUSH2 0x3694 JUMP JUMPDEST DUP2 DUP5 MSTORE PUSH1 0x20 DUP1 DUP6 ADD SWAP3 PUSH1 0x5 SHL DUP3 ADD ADD SWAP2 DUP4 DUP4 GT PUSH2 0x341 JUMPI PUSH1 0x20 DUP3 ADD SWAP1 JUMPDEST DUP4 DUP3 LT PUSH2 0x377F JUMPI POP POP POP POP POP SWAP1 JUMP JUMPDEST DUP2 CALLDATALOAD PUSH1 0x1 PUSH1 0x1 PUSH1 0x40 SHL SUB DUP2 GT PUSH2 0x341 JUMPI PUSH1 0x20 SWAP2 PUSH2 0x37A1 DUP8 DUP5 DUP1 SWAP5 DUP9 ADD ADD PUSH2 0x36E7 JUMP JUMPDEST DUP2 MSTORE ADD SWAP2 ADD SWAP1 PUSH2 0x3770 JUMP JUMPDEST SWAP1 DUP1 PUSH1 0x1F DUP4 ADD SLT ISZERO PUSH2 0x341 JUMPI DUP2 CALLDATALOAD PUSH2 0x37C3 DUP2 PUSH2 0x36B5 JUMP JUMPDEST SWAP3 PUSH2 0x37D1 PUSH1 0x40 MLOAD SWAP5 DUP6 PUSH2 0x3694 JUMP JUMPDEST DUP2 DUP5 MSTORE PUSH1 0x20 DUP1 DUP6 ADD SWAP3 PUSH1 0x5 SHL DUP3 ADD ADD SWAP3 DUP4 GT PUSH2 0x341 JUMPI PUSH1 0x20 ADD SWAP1 JUMPDEST DUP3 DUP3 LT PUSH2 0x37F9 JUMPI POP POP POP SWAP1 JUMP JUMPDEST DUP2 CALLDATALOAD DUP2 MSTORE PUSH1 0x20 SWAP2 DUP3 ADD SWAP2 ADD PUSH2 0x37EC JUMP JUMPDEST SWAP1 PUSH1 0x1 DUP3 DUP2 SHR SWAP3 AND DUP1 ISZERO PUSH2 0x3839 JUMPI JUMPDEST PUSH1 0x20 DUP4 LT EQ PUSH2 0x3823 JUMPI JUMP JUMPDEST PUSH4 0x4E487B71 PUSH1 0xE0 SHL PUSH1 0x0 MSTORE PUSH1 0x22 PUSH1 0x4 MSTORE PUSH1 0x24 PUSH1 0x0 REVERT JUMPDEST SWAP2 PUSH1 0x7F AND SWAP2 PUSH2 0x3818 JUMP JUMPDEST SWAP1 PUSH1 0x40 MLOAD SWAP2 DUP3 PUSH1 0x0 DUP3 SLOAD SWAP3 PUSH2 0x3857 DUP5 PUSH2 0x3809 JUMP JUMPDEST DUP1 DUP5 MSTORE SWAP4 PUSH1 0x1 DUP2 AND SWAP1 DUP2 ISZERO PUSH2 0x38C5 JUMPI POP PUSH1 0x1 EQ PUSH2 0x387E JUMPI JUMPDEST POP PUSH2 0x387C SWAP3 POP SUB DUP4 PUSH2 0x3694 JUMP JUMPDEST JUMP JUMPDEST SWAP1 POP PUSH1 0x0 SWAP3 SWAP2 SWAP3 MSTORE PUSH1 0x20 PUSH1 0x0 KECCAK256 SWAP1 PUSH1 0x0 SWAP2 JUMPDEST DUP2 DUP4 LT PUSH2 0x38A9 JUMPI POP POP SWAP1 PUSH1 0x20 PUSH2 0x387C SWAP3 DUP3 ADD ADD CODESIZE PUSH2 0x386F JUMP JUMPDEST PUSH1 0x20 SWAP2 SWAP4 POP DUP1 PUSH1 0x1 SWAP2 SLOAD DUP4 DUP6 DUP10 ADD ADD MSTORE ADD SWAP2 ADD SWAP1 SWAP2 DUP5 SWAP3 PUSH2 0x3890 JUMP JUMPDEST SWAP1 POP PUSH1 0x20 SWAP3 POP PUSH2 0x387C SWAP5 SWAP2 POP PUSH1 0xFF NOT AND DUP3 DUP5 ADD MSTORE ISZERO ISZERO PUSH1 0x5 SHL DUP3 ADD ADD CODESIZE PUSH2 0x386F JUMP JUMPDEST SWAP2 SWAP1 DUP3 MLOAD SWAP3 DUP4 DUP3 MSTORE PUSH1 0x0 JUMPDEST DUP5 DUP2 LT PUSH2 0x3913 JUMPI POP POP DUP3 PUSH1 0x0 PUSH1 0x20 DUP1 SWAP5 SWAP6 DUP5 ADD ADD MSTORE PUSH1 0x1F DUP1 NOT SWAP2 ADD AND ADD ADD SWAP1 JUMP JUMPDEST DUP1 PUSH1 0x20 DUP1 SWAP3 DUP5 ADD ADD MLOAD DUP3 DUP3 DUP7 ADD ADD MSTORE ADD PUSH2 0x38F2 JUMP JUMPDEST PUSH1 0x4 CALLDATALOAD SWAP1 PUSH1 0x1 PUSH1 0x1 PUSH1 0xA0 SHL SUB DUP3 AND DUP3 SUB PUSH2 0x341 JUMPI JUMP JUMPDEST PUSH1 0x24 CALLDATALOAD SWAP1 PUSH1 0x1 PUSH1 0x1 PUSH1 0xA0 SHL SUB DUP3 AND DUP3 SUB PUSH2 0x341 JUMPI JUMP JUMPDEST PUSH1 0x40 SWAP1 PUSH1 0x3 NOT ADD SLT PUSH2 0x341 JUMPI PUSH1 0x4 CALLDATALOAD SWAP1 PUSH1 0x24 CALLDATALOAD SWAP1 JUMP JUMPDEST PUSH1 0x24 CALLDATALOAD SWAP1 DUP2 ISZERO ISZERO DUP3 SUB PUSH2 0x341 JUMPI JUMP JUMPDEST DUP1 SLOAD DUP3 LT ISZERO PUSH2 0x3991 JUMPI PUSH1 0x0 MSTORE PUSH1 0x20 PUSH1 0x0 KECCAK256 ADD SWAP1 PUSH1 0x0 SWAP1 JUMP JUMPDEST PUSH4 0x4E487B71 PUSH1 0xE0 SHL PUSH1 0x0 MSTORE PUSH1 0x32 PUSH1 0x4 MSTORE PUSH1 0x24 PUSH1 0x0 REVERT JUMPDEST ISZERO PUSH2 0x39AE JUMPI JUMP JUMPDEST PUSH1 0x40 MLOAD PUSH3 0x461BCD PUSH1 0xE5 SHL DUP2 MSTORE PUSH1 0x20 PUSH1 0x4 DUP3 ADD MSTORE PUSH1 0x14 PUSH1 0x24 DUP3 ADD MSTORE PUSH20 0x139BDD0818481D1C99585CDD5C9E4819DC985B9D PUSH1 0x62 SHL PUSH1 0x44 DUP3 ADD MSTORE PUSH1 0x64 SWAP1 REVERT JUMPDEST ISZERO PUSH2 0x39F1 JUMPI JUMP JUMPDEST PUSH1 0x40 MLOAD PUSH3 0x461BCD PUSH1 0xE5 SHL DUP2 MSTORE PUSH1 0x20 PUSH1 0x4 DUP3 ADD MSTORE PUSH1 0x13 PUSH1 0x24 DUP3 ADD MSTORE PUSH19 0x9AD2D8CAE6E8DEDCCAE640DAD2E6DAC2E8C6D PUSH1 0x6B SHL PUSH1 0x44 DUP3 ADD MSTORE PUSH1 0x64 SWAP1 REVERT JUMPDEST DUP2 DUP2 LT PUSH2 0x3A37 JUMPI POP POP JUMP JUMPDEST PUSH1 0x0 DUP2 SSTORE PUSH1 0x1 ADD PUSH2 0x3A2C JUMP JUMPDEST PUSH2 0x3A4D DUP2 SLOAD PUSH2 0x3809 JUMP JUMPDEST SWAP1 DUP2 PUSH2 0x3A57 JUMPI POP POP JUMP JUMPDEST DUP2 PUSH1 0x1F PUSH1 0x0 SWAP4 GT PUSH1 0x1 EQ PUSH2 0x3A69 JUMPI POP SSTORE JUMP JUMPDEST DUP2 DUP4 MSTORE PUSH1 0x20 DUP4 KECCAK256 PUSH2 0x3A85 SWAP2 PUSH1 0x1F ADD PUSH1 0x5 SHR DUP2 ADD SWAP1 PUSH1 0x1 ADD PUSH2 0x3A2C JUMP JUMPDEST DUP1 DUP3 MSTORE DUP2 PUSH1 0x20 DUP2 KECCAK256 SWAP2 SSTORE SSTORE JUMP JUMPDEST DUP1 SLOAD SWAP1 PUSH1 0x0 DUP2 SSTORE DUP2 PUSH2 0x3AA2 JUMPI POP POP JUMP JUMPDEST DUP2 PUSH1 0x6 MUL SWAP2 PUSH1 0x6 DUP4 DIV SUB PUSH2 0xA3 JUMPI PUSH1 0x0 MSTORE PUSH1 0x20 PUSH1 0x0 KECCAK256 SWAP1 DUP2 ADD SWAP1 JUMPDEST DUP2 DUP2 LT PUSH2 0x3AC8 JUMPI POP POP JUMP JUMPDEST DUP1 PUSH2 0x3AD4 PUSH1 0x6 SWAP3 PUSH2 0x3A43 JUMP JUMPDEST PUSH1 0x0 PUSH1 0x1 DUP3 ADD SSTORE PUSH1 0x0 PUSH1 0x2 DUP3 ADD SSTORE PUSH1 0x0 PUSH1 0x3 DUP3 ADD SSTORE PUSH2 0x3AF5 PUSH1 0x4 DUP3 ADD PUSH2 0x3A43 JUMP JUMPDEST PUSH1 0x0 PUSH1 0x5 DUP3 ADD SSTORE ADD PUSH2 0x3ABD JUMP JUMPDEST ISZERO PUSH2 0x3B09 JUMPI JUMP JUMPDEST PUSH1 0x40 MLOAD PUSH3 0x461BCD PUSH1 0xE5 SHL DUP2 MSTORE PUSH1 0x20 PUSH1 0x4 DUP3 ADD MSTORE PUSH1 0xB PUSH1 0x24 DUP3 ADD MSTORE PUSH11 0x2737BA1031B932B0BA37B9 PUSH1 0xA9 SHL PUSH1 0x44 DUP3 ADD MSTORE PUSH1 0x64 SWAP1 REVERT JUMPDEST ISZERO PUSH2 0x3B43 JUMPI JUMP JUMPDEST PUSH1 0x40 MLOAD PUSH3 0x461BCD PUSH1 0xE5 SHL DUP2 MSTORE PUSH1 0x20 PUSH1 0x4 DUP3 ADD MSTORE PUSH1 0x15 PUSH1 0x24 DUP3 ADD MSTORE PUSH21 0x10D85B5C185A59DB881B9BDD08185C1C1C9BDD9959 PUSH1 0x5A SHL PUSH1 0x44 DUP3 ADD MSTORE PUSH1 0x64 SWAP1 REVERT JUMPDEST SWAP2 SWAP1 DUP3 SUB SWAP2 DUP3 GT PUSH2 0xA3 JUMPI JUMP JUMPDEST ISZERO PUSH2 0x3B94 JUMPI JUMP JUMPDEST PUSH1 0x40 MLOAD PUSH3 0x461BCD PUSH1 0xE5 SHL DUP2 MSTORE PUSH1 0x20 PUSH1 0x4 DUP3 ADD MSTORE PUSH1 0x14 PUSH1 0x24 DUP3 ADD MSTORE PUSH20 0x4E6F2066756E647320746F207769746864726177 PUSH1 0x60 SHL PUSH1 0x44 DUP3 ADD MSTORE PUSH1 0x64 SWAP1 REVERT JUMPDEST ISZERO PUSH2 0x3BD7 JUMPI JUMP JUMPDEST PUSH1 0x40 MLOAD PUSH3 0x461BCD PUSH1 0xE5 SHL DUP2 MSTORE PUSH1 0x20 PUSH1 0x4 DUP3 ADD MSTORE PUSH1 0x34 PUSH1 0x24 DUP3 ADD MSTORE PUSH32 0x4B5943206F722061646D696E206F766572726964652072657175697265642066 PUSH1 0x44 DUP3 ADD MSTORE PUSH20 0x6F72206C61726765207769746864726177616C73 PUSH1 0x60 SHL PUSH1 0x64 DUP3 ADD MSTORE PUSH1 0x84 SWAP1 REVERT JUMPDEST RETURNDATASIZE ISZERO PUSH2 0x3C64 JUMPI RETURNDATASIZE SWAP1 PUSH2 0x3C4A DUP3 PUSH2 0x36CC JUMP JUMPDEST SWAP2 PUSH2 0x3C58 PUSH1 0x40 MLOAD SWAP4 DUP5 PUSH2 0x3694 JUMP JUMPDEST DUP3 MSTORE RETURNDATASIZE PUSH1 0x0 PUSH1 0x20 DUP5 ADD RETURNDATACOPY JUMP JUMPDEST PUSH1 0x60 SWAP1 JUMP JUMPDEST SWAP2 SWAP1 DUP3 ADD DUP1 SWAP3 GT PUSH2 0xA3 JUMPI JUMP JUMPDEST ISZERO PUSH2 0x3C7D JUMPI JUMP JUMPDEST PUSH1 0x40 MLOAD PUSH3 0x461BCD PUSH1 0xE5 SHL DUP2 MSTORE PUSH1 0x20 PUSH1 0x4 DUP3 ADD MSTORE PUSH1 0xF PUSH1 0x24 DUP3 ADD MSTORE PUSH15 0x15DA5D1A191C985DC819985A5B1959 PUSH1 0x8A SHL PUSH1 0x44 DUP3 ADD MSTORE PUSH1 0x64 SWAP1 REVERT JUMPDEST ISZERO PUSH2 0x3CBB JUMPI JUMP JUMPDEST PUSH1 0x40 MLOAD PUSH3 0x461BCD PUSH1 0xE5 SHL DUP2 MSTORE PUSH1 0x20 PUSH1 0x4 DUP3 ADD MSTORE PUSH1 0x11 PUSH1 0x24 DUP3 ADD MSTORE PUSH17 0x496E76616C6964206D696C6573746F6E65 PUSH1 0x78 SHL PUSH1 0x44 DUP3 ADD MSTORE PUSH1 0x64 SWAP1 REVERT JUMPDEST DUP1 SLOAD DUP3 LT ISZERO PUSH2 0x3991 JUMPI PUSH1 0x0 MSTORE PUSH1 0x6 PUSH1 0x20 PUSH1 0x0 KECCAK256 SWAP2 MUL ADD SWAP1 PUSH1 0x0 SWAP1 JUMP JUMPDEST ISZERO PUSH2 0x3D17 JUMPI JUMP JUMPDEST PUSH1 0x40 MLOAD PUSH3 0x461BCD PUSH1 0xE5 SHL DUP2 MSTORE PUSH1 0x20 PUSH1 0x4 DUP3 ADD MSTORE PUSH1 0x1B PUSH1 0x24 DUP3 ADD MSTORE PUSH32 0x4D696C6573746F6E6520616C726561647920636F6D706C657465640000000000 PUSH1 0x44 DUP3 ADD MSTORE PUSH1 0x64 SWAP1 REVERT JUMPDEST PUSH1 0x0 MSTORE PUSH1 0x0 DUP1 MLOAD PUSH1 0x20 PUSH2 0x4759 DUP4 CODECOPY DUP2 MLOAD SWAP2 MSTORE PUSH1 0x20 MSTORE PUSH1 0x1 PUSH1 0x40 PUSH1 0x0 KECCAK256 ADD SLOAD SWAP1 JUMP JUMPDEST ISZERO PUSH2 0x3D84 JUMPI JUMP JUMPDEST PUSH1 0x40 MLOAD PUSH3 0x461BCD PUSH1 0xE5 SHL DUP2 MSTORE PUSH1 0x20 PUSH1 0x4 DUP3 ADD MSTORE PUSH1 0x14 PUSH1 0x24 DUP3 ADD MSTORE PUSH20 0x43616D706169676E206E6F742070656E64696E67 PUSH1 0x60 SHL PUSH1 0x44 DUP3 ADD MSTORE PUSH1 0x64 SWAP1 REVERT JUMPDEST ISZERO PUSH2 0x3DC7 JUMPI JUMP JUMPDEST PUSH1 0x40 MLOAD PUSH3 0x461BCD PUSH1 0xE5 SHL DUP2 MSTORE PUSH1 0x20 PUSH1 0x4 DUP3 ADD MSTORE PUSH1 0x17 PUSH1 0x24 DUP3 ADD MSTORE PUSH32 0x4170706C69636174696F6E206E6F742065787069726564000000000000000000 PUSH1 0x44 DUP3 ADD MSTORE PUSH1 0x64 SWAP1 REVERT JUMPDEST PUSH1 0x7 SLOAD PUSH3 0x76A700 DUP2 ADD DUP1 SWAP2 GT PUSH2 0xA3 JUMPI TIMESTAMP LT ISZERO PUSH2 0x3E44 JUMPI PUSH1 0x6 SLOAD PUSH1 0x8 SLOAD DUP1 DUP3 GT ISZERO PUSH2 0x3E3D JUMPI PUSH2 0x3E3A SWAP2 PUSH2 0x3B80 JUMP JUMPDEST SWAP1 JUMP JUMPDEST POP POP PUSH1 0x0 SWAP1 JUMP JUMPDEST PUSH1 0xA SELFBALANCE DIV SWAP1 JUMP JUMPDEST DUP1 MLOAD DUP3 LT ISZERO PUSH2 0x3991 JUMPI PUSH1 0x20 SWAP2 PUSH1 0x5 SHL ADD ADD SWAP1 JUMP JUMPDEST PUSH1 0x1 PUSH1 0x1 PUSH1 0xA0 SHL SUB AND DUP1 ISZERO PUSH2 0x3EBF JUMPI PUSH1 0x0 DUP1 MLOAD PUSH1 0x20 PUSH2 0x4739 DUP4 CODECOPY DUP2 MLOAD SWAP2 MSTORE DUP1 SLOAD PUSH1 0x1 PUSH1 0x1 PUSH1 0xA0 SHL SUB NOT DUP2 AND DUP4 OR SWAP1 SWAP2 SSTORE PUSH1 0x1 PUSH1 0x1 PUSH1 0xA0 SHL SUB AND PUSH32 0x8BE0079C531659141344CD1FD0A4F28419497F9722A3DAAFE3B4186F6B6457E0 PUSH1 0x0 DUP1 LOG3 JUMP JUMPDEST PUSH4 0x1E4FBDF7 PUSH1 0xE0 SHL PUSH1 0x0 MSTORE PUSH1 0x0 PUSH1 0x4 MSTORE PUSH1 0x24 PUSH1 0x0 REVERT JUMPDEST ISZERO PUSH2 0x3EDC JUMPI JUMP JUMPDEST PUSH1 0x40 MLOAD PUSH3 0x461BCD PUSH1 0xE5 SHL DUP2 MSTORE PUSH1 0x20 PUSH1 0x4 DUP3 ADD MSTORE PUSH1 0x1B PUSH1 0x24 DUP3 ADD MSTORE PUSH32 0x496E73756666696369656E742074726561737572792066756E64730000000000 PUSH1 0x44 DUP3 ADD MSTORE PUSH1 0x64 SWAP1 REVERT JUMPDEST CALLER PUSH1 0x0 SWAP1 DUP2 MSTORE PUSH32 0x144D22E240DD4C3AF42C2EBF4760BFE89544B1A26A48B78B8AB4EAA03DA89C27 PUSH1 0x20 MSTORE PUSH1 0x40 SWAP1 KECCAK256 SLOAD PUSH1 0xFF AND ISZERO PUSH2 0x3F5A JUMPI JUMP JUMPDEST PUSH4 0xE2517D3F PUSH1 0xE0 SHL PUSH1 0x0 MSTORE CALLER PUSH1 0x4 MSTORE PUSH32 0x72C3EEC1760BF69946625C2D4FB8E44E2C806345041960B434674FB9AB3976CF PUSH1 0x24 MSTORE PUSH1 0x44 PUSH1 0x0 REVERT JUMPDEST CALLER PUSH1 0x0 SWAP1 DUP2 MSTORE PUSH32 0xD37682B42C490C255BEFB40BD52EA8BF6688547EB68D82A149E4378C72A51E00 PUSH1 0x20 MSTORE PUSH1 0x40 SWAP1 KECCAK256 SLOAD PUSH1 0xFF AND ISZERO PUSH2 0x3FCC JUMPI JUMP JUMPDEST PUSH4 0xE2517D3F PUSH1 0xE0 SHL PUSH1 0x0 MSTORE CALLER PUSH1 0x4 MSTORE PUSH32 0x811427A0FA4932AEF534BBA16BC34E9B7B2D7D2A79C475FCA1765F6CC1FAEBEA PUSH1 0x24 MSTORE PUSH1 0x44 PUSH1 0x0 REVERT JUMPDEST PUSH1 0x0 DUP2 DUP2 MSTORE PUSH1 0x0 DUP1 MLOAD PUSH1 0x20 PUSH2 0x4759 DUP4 CODECOPY DUP2 MLOAD SWAP2 MSTORE PUSH1 0x20 SWAP1 DUP2 MSTORE PUSH1 0x40 DUP1 DUP4 KECCAK256 CALLER DUP5 MSTORE SWAP1 SWAP2 MSTORE SWAP1 KECCAK256 SLOAD PUSH1 0xFF AND ISZERO PUSH2 0x4037 JUMPI POP JUMP JUMPDEST PUSH4 0xE2517D3F PUSH1 0xE0 SHL PUSH1 0x0 MSTORE CALLER PUSH1 0x4 MSTORE PUSH1 0x24 MSTORE PUSH1 0x44 PUSH1 0x0 REVERT JUMPDEST SWAP2 SWAP1 SWAP2 DUP1 SLOAD PUSH1 0x1 PUSH1 0x40 SHL DUP2 LT ISZERO PUSH2 0x17C7 JUMPI PUSH2 0x406F SWAP2 PUSH1 0x1 DUP3 ADD DUP2 SSTORE PUSH2 0x3CF4 JUMP JUMPDEST PUSH2 0x42B4 JUMPI DUP3 MLOAD SWAP3 DUP4 MLOAD PUSH1 0x1 PUSH1 0x1 PUSH1 0x40 SHL SUB DUP2 GT PUSH2 0x17C7 JUMPI PUSH2 0x4090 DUP4 SLOAD PUSH2 0x3809 JUMP JUMPDEST PUSH1 0x1F DUP2 GT PUSH2 0x4282 JUMPI JUMPDEST POP PUSH1 0x20 SWAP5 PUSH1 0x1F DUP3 GT PUSH1 0x1 EQ PUSH2 0x421D JUMPI PUSH2 0x40CE SWAP3 SWAP4 SWAP5 SWAP6 DUP3 SWAP2 PUSH1 0x0 SWAP3 PUSH2 0x4173 JUMPI JUMPDEST POP POP DUP2 PUSH1 0x1 SHL SWAP2 PUSH1 0x0 NOT SWAP1 PUSH1 0x3 SHL SHR NOT AND OR SWAP1 JUMP JUMPDEST DUP3 SSTORE JUMPDEST PUSH1 0x20 DUP2 ADD MLOAD PUSH1 0x1 DUP4 ADD SSTORE PUSH2 0x40FA PUSH1 0x40 DUP3 ADD MLOAD ISZERO ISZERO PUSH1 0x2 DUP5 ADD SWAP1 PUSH1 0xFF DUP1 NOT DUP4 SLOAD AND SWAP2 ISZERO ISZERO AND OR SWAP1 SSTORE JUMP JUMPDEST PUSH1 0x60 DUP2 ADD MLOAD PUSH1 0x3 DUP4 ADD SSTORE PUSH1 0x4 DUP3 ADD PUSH1 0x80 DUP3 ADD MLOAD DUP1 MLOAD SWAP1 PUSH1 0x1 PUSH1 0x1 PUSH1 0x40 SHL SUB DUP3 GT PUSH2 0x17C7 JUMPI PUSH2 0x4128 DUP4 SLOAD PUSH2 0x3809 JUMP JUMPDEST PUSH1 0x1F DUP2 GT PUSH2 0x41EB JUMPI JUMPDEST POP PUSH1 0x20 SWAP1 PUSH1 0x1F DUP4 GT PUSH1 0x1 EQ PUSH2 0x417E JUMPI DUP3 PUSH1 0x5 SWAP6 SWAP4 PUSH1 0xA0 SWAP6 SWAP4 PUSH2 0x4169 SWAP4 PUSH1 0x0 SWAP3 PUSH2 0x4173 JUMPI POP POP DUP2 PUSH1 0x1 SHL SWAP2 PUSH1 0x0 NOT SWAP1 PUSH1 0x3 SHL SHR NOT AND OR SWAP1 JUMP JUMPDEST SWAP1 SSTORE JUMPDEST ADD MLOAD SWAP2 ADD SSTORE JUMP JUMPDEST ADD MLOAD SWAP1 POP CODESIZE DUP1 PUSH2 0x40B9 JUMP JUMPDEST SWAP1 PUSH1 0x1F NOT DUP4 AND SWAP2 DUP5 PUSH1 0x0 MSTORE DUP2 PUSH1 0x0 KECCAK256 SWAP3 PUSH1 0x0 JUMPDEST DUP2 DUP2 LT PUSH2 0x41D3 JUMPI POP SWAP3 PUSH1 0x1 SWAP3 DUP6 SWAP3 PUSH1 0x5 SWAP9 SWAP7 PUSH1 0xA0 SWAP9 SWAP7 LT PUSH2 0x41BA JUMPI JUMPDEST POP POP POP DUP2 SHL ADD SWAP1 SSTORE PUSH2 0x416C JUMP JUMPDEST ADD MLOAD PUSH1 0x0 NOT PUSH1 0xF8 DUP5 PUSH1 0x3 SHL AND SHR NOT AND SWAP1 SSTORE CODESIZE DUP1 DUP1 PUSH2 0x41AD JUMP JUMPDEST SWAP3 SWAP4 PUSH1 0x20 PUSH1 0x1 DUP2 SWAP3 DUP8 DUP7 ADD MLOAD DUP2 SSTORE ADD SWAP6 ADD SWAP4 ADD PUSH2 0x4191 JUMP JUMPDEST PUSH2 0x4217 SWAP1 DUP5 PUSH1 0x0 MSTORE PUSH1 0x20 PUSH1 0x0 KECCAK256 PUSH1 0x1F DUP6 ADD PUSH1 0x5 SHR DUP2 ADD SWAP2 PUSH1 0x20 DUP7 LT PUSH2 0xBE3 JUMPI PUSH1 0x1F ADD PUSH1 0x5 SHR ADD SWAP1 PUSH2 0x3A2C JUMP JUMPDEST CODESIZE PUSH2 0x4131 JUMP JUMPDEST PUSH1 0x1F NOT DUP3 AND SWAP6 DUP5 PUSH1 0x0 MSTORE DUP1 PUSH1 0x0 KECCAK256 SWAP2 PUSH1 0x0 JUMPDEST DUP9 DUP2 LT PUSH2 0x426A JUMPI POP DUP4 PUSH1 0x1 SWAP6 SWAP7 SWAP8 SWAP9 LT PUSH2 0x4251 JUMPI JUMPDEST POP POP POP DUP2 SHL ADD DUP3 SSTORE PUSH2 0x40D1 JUMP JUMPDEST ADD MLOAD PUSH1 0x0 NOT PUSH1 0xF8 DUP5 PUSH1 0x3 SHL AND SHR NOT AND SWAP1 SSTORE CODESIZE DUP1 DUP1 PUSH2 0x4244 JUMP JUMPDEST SWAP2 SWAP3 PUSH1 0x20 PUSH1 0x1 DUP2 SWAP3 DUP7 DUP6 ADD MLOAD DUP2 SSTORE ADD SWAP5 ADD SWAP3 ADD PUSH2 0x422F JUMP JUMPDEST PUSH2 0x42AE SWAP1 DUP5 PUSH1 0x0 MSTORE PUSH1 0x20 PUSH1 0x0 KECCAK256 PUSH1 0x1F DUP5 ADD PUSH1 0x5 SHR DUP2 ADD SWAP2 PUSH1 0x20 DUP6 LT PUSH2 0xBE3 JUMPI PUSH1 0x1F ADD PUSH1 0x5 SHR ADD SWAP1 PUSH2 0x3A2C JUMP JUMPDEST CODESIZE PUSH2 0x4099 JUMP JUMPDEST PUSH4 0x4E487B71 PUSH1 0xE0 SHL PUSH1 0x0 MSTORE PUSH1 0x0 PUSH1 0x4 MSTORE PUSH1 0x24 PUSH1 0x0 REVERT JUMPDEST SWAP1 SWAP3 SWAP2 SWAP3 DUP2 PUSH1 0x0 MSTORE PUSH1 0x1 PUSH1 0x20 MSTORE PUSH1 0x40 PUSH1 0x0 KECCAK256 SWAP1 PUSH1 0x7 PUSH1 0x0 SWAP3 ADD PUSH1 0x20 SWAP3 JUMPDEST DUP3 MLOAD DUP2 LT ISZERO PUSH2 0x43AD JUMPI DUP1 PUSH2 0x4350 PUSH2 0x4300 PUSH1 0x1 SWAP4 DUP7 PUSH2 0x3E4B JUMP JUMPDEST MLOAD PUSH2 0x430B DUP4 DUP12 PUSH2 0x3E4B JUMP JUMPDEST MLOAD PUSH1 0x40 MLOAD SWAP2 PUSH2 0x4319 DUP4 PUSH2 0x3679 JUMP JUMPDEST DUP3 MSTORE DUP8 DUP3 ADD MSTORE PUSH1 0x0 PUSH1 0x40 DUP3 ADD MSTORE PUSH1 0x0 PUSH1 0x60 DUP3 ADD MSTORE PUSH1 0x40 MLOAD PUSH2 0x433A DUP9 DUP3 PUSH2 0x3694 JUMP JUMPDEST PUSH1 0x0 DUP2 MSTORE PUSH1 0x80 DUP3 ADD MSTORE PUSH1 0x0 PUSH1 0xA0 DUP3 ADD MSTORE DUP5 PUSH2 0x404F JUMP JUMPDEST DUP6 PUSH32 0xBF293DB00F4DE65B181A066ECC2F8BB81FB7174B517FD8085700E259AD00DB1B PUSH2 0x439F PUSH2 0x437F DUP5 DUP9 PUSH2 0x3E4B JUMP JUMPDEST MLOAD PUSH2 0x438A DUP6 DUP14 PUSH2 0x3E4B JUMP JUMPDEST MLOAD PUSH1 0x40 MLOAD SWAP3 DUP4 SWAP3 PUSH1 0x40 DUP5 MSTORE PUSH1 0x40 DUP5 ADD SWAP1 PUSH2 0x38E7 JUMP JUMPDEST SWAP1 DUP11 DUP4 ADD MSTORE SUB SWAP1 LOG2 ADD PUSH2 0x42E7 JUMP JUMPDEST POP POP POP POP POP SWAP1 POP JUMP JUMPDEST PUSH1 0x2 PUSH1 0x0 DUP1 MLOAD PUSH1 0x20 PUSH2 0x4779 DUP4 CODECOPY DUP2 MLOAD SWAP2 MSTORE SLOAD EQ PUSH2 0x43E1 JUMPI PUSH1 0x2 PUSH1 0x0 DUP1 MLOAD PUSH1 0x20 PUSH2 0x4779 DUP4 CODECOPY DUP2 MLOAD SWAP2 MSTORE SSTORE JUMP JUMPDEST PUSH4 0x3EE5AEB5 PUSH1 0xE0 SHL PUSH1 0x0 MSTORE PUSH1 0x4 PUSH1 0x0 REVERT JUMPDEST PUSH1 0x0 DUP1 MLOAD PUSH1 0x20 PUSH2 0x4739 DUP4 CODECOPY DUP2 MLOAD SWAP2 MSTORE SLOAD PUSH1 0x1 PUSH1 0x1 PUSH1 0xA0 SHL SUB AND CALLER SUB PUSH2 0x4413 JUMPI JUMP JUMPDEST PUSH4 0x118CDAA7 PUSH1 0xE0 SHL PUSH1 0x0 MSTORE CALLER PUSH1 0x4 MSTORE PUSH1 0x24 PUSH1 0x0 REVERT JUMPDEST PUSH1 0x1 PUSH1 0x1 PUSH1 0xA0 SHL SUB DUP2 AND PUSH1 0x0 SWAP1 DUP2 MSTORE PUSH32 0xB7DB2DD08FCB62D0C9E08C51941CAE53C267786A0B75803FB7960902FC8EF97D PUSH1 0x20 MSTORE PUSH1 0x40 SWAP1 KECCAK256 SLOAD PUSH1 0xFF AND PUSH2 0x44D4 JUMPI PUSH1 0x1 PUSH1 0x1 PUSH1 0xA0 SHL SUB AND PUSH1 0x0 DUP2 DUP2 MSTORE PUSH32 0xB7DB2DD08FCB62D0C9E08C51941CAE53C267786A0B75803FB7960902FC8EF97D PUSH1 0x20 MSTORE PUSH1 0x40 DUP2 KECCAK256 DUP1 SLOAD PUSH1 0xFF NOT AND PUSH1 0x1 OR SWAP1 SSTORE CALLER SWAP2 SWAP1 PUSH32 0x2F8788117E7EFF1D82E926EC794901D17C78024A50270940304540A733656F0D DUP2 DUP1 LOG4 PUSH1 0x1 SWAP1 JUMP JUMPDEST POP PUSH1 0x0 SWAP1 JUMP JUMPDEST PUSH1 0x1 PUSH1 0x1 PUSH1 0xA0 SHL SUB DUP2 AND PUSH1 0x0 SWAP1 DUP2 MSTORE PUSH32 0xD37682B42C490C255BEFB40BD52EA8BF6688547EB68D82A149E4378C72A51E00 PUSH1 0x20 MSTORE PUSH1 0x40 SWAP1 KECCAK256 SLOAD PUSH1 0xFF AND PUSH2 0x44D4 JUMPI PUSH1 0x1 PUSH1 0x1 PUSH1 0xA0 SHL SUB AND PUSH1 0x0 DUP2 DUP2 MSTORE PUSH32 0xD37682B42C490C255BEFB40BD52EA8BF6688547EB68D82A149E4378C72A51E00 PUSH1 0x20 MSTORE PUSH1 0x40 DUP2 KECCAK256 DUP1 SLOAD PUSH1 0xFF NOT AND PUSH1 0x1 OR SWAP1 SSTORE CALLER SWAP2 SWAP1 PUSH32 0x811427A0FA4932AEF534BBA16BC34E9B7B2D7D2A79C475FCA1765F6CC1FAEBEA SWAP1 PUSH32 0x2F8788117E7EFF1D82E926EC794901D17C78024A50270940304540A733656F0D SWAP1 DUP1 LOG4 PUSH1 0x1 SWAP1 JUMP JUMPDEST PUSH1 0x0 DUP2 DUP2 MSTORE PUSH1 0x0 DUP1 MLOAD PUSH1 0x20 PUSH2 0x4759 DUP4 CODECOPY DUP2 MLOAD SWAP2 MSTORE PUSH1 0x20 SWAP1 DUP2 MSTORE PUSH1 0x40 DUP1 DUP4 KECCAK256 PUSH1 0x1 PUSH1 0x1 PUSH1 0xA0 SHL SUB DUP7 AND DUP5 MSTORE SWAP1 SWAP2 MSTORE SWAP1 KECCAK256 SLOAD PUSH1 0xFF AND PUSH2 0x3E3D JUMPI PUSH1 0x0 DUP2 DUP2 MSTORE PUSH1 0x0 DUP1 MLOAD PUSH1 0x20 PUSH2 0x4759 DUP4 CODECOPY DUP2 MLOAD SWAP2 MSTORE PUSH1 0x20 SWAP1 DUP2 MSTORE PUSH1 0x40 DUP1 DUP4 KECCAK256 PUSH1 0x1 PUSH1 0x1 PUSH1 0xA0 SHL SUB SWAP6 SWAP1 SWAP6 AND DUP1 DUP5 MSTORE SWAP5 SWAP1 SWAP2 MSTORE DUP2 KECCAK256 DUP1 SLOAD PUSH1 0xFF NOT AND PUSH1 0x1 OR SWAP1 SSTORE CALLER SWAP3 SWAP2 SWAP1 PUSH32 0x2F8788117E7EFF1D82E926EC794901D17C78024A50270940304540A733656F0D SWAP1 DUP1 LOG4 PUSH1 0x1 SWAP1 JUMP JUMPDEST PUSH1 0x0 DUP2 DUP2 MSTORE PUSH1 0x0 DUP1 MLOAD PUSH1 0x20 PUSH2 0x4759 DUP4 CODECOPY DUP2 MLOAD SWAP2 MSTORE PUSH1 0x20 SWAP1 DUP2 MSTORE PUSH1 0x40 DUP1 DUP4 KECCAK256 PUSH1 0x1 PUSH1 0x1 PUSH1 0xA0 SHL SUB DUP7 AND DUP5 MSTORE SWAP1 SWAP2 MSTORE SWAP1 KECCAK256 SLOAD PUSH1 0xFF AND ISZERO PUSH2 0x3E3D JUMPI PUSH1 0x0 DUP2 DUP2 MSTORE PUSH1 0x0 DUP1 MLOAD PUSH1 0x20 PUSH2 0x4759 DUP4 CODECOPY DUP2 MLOAD SWAP2 MSTORE PUSH1 0x20 SWAP1 DUP2 MSTORE PUSH1 0x40 DUP1 DUP4 KECCAK256 PUSH1 0x1 PUSH1 0x1 PUSH1 0xA0 SHL SUB SWAP6 SWAP1 SWAP6 AND DUP1 DUP5 MSTORE SWAP5 SWAP1 SWAP2 MSTORE DUP2 KECCAK256 DUP1 SLOAD PUSH1 0xFF NOT AND SWAP1 SSTORE CALLER SWAP3 SWAP2 SWAP1 PUSH32 0xF6391F5C32D9C69D2A47EA670B442974B53935D1EDC7FD64EB21E047A839171B SWAP1 DUP1 LOG4 PUSH1 0x1 SWAP1 JUMP JUMPDEST PUSH1 0xFF PUSH1 0x0 DUP1 MLOAD PUSH1 0x20 PUSH2 0x4799 DUP4 CODECOPY DUP2 MLOAD SWAP2 MSTORE SLOAD PUSH1 0x40 SHR AND ISZERO PUSH2 0x4707 JUMPI JUMP JUMPDEST PUSH4 0x1AFCD79F PUSH1 0xE3 SHL PUSH1 0x0 MSTORE PUSH1 0x4 PUSH1 0x0 REVERT INVALID SHR NUMBER 0xB9 PUSH23 0x1B3FBA5321CA8212BFC231945F668CCC0C446F333999EE 0xA9 0xCE DUP16 0xDA DUP2 SWAP1 AND 0xD0 SWAP14 PUSH19 0xD40FDAE2FD8CEAC6B6234C7706214FD39C1CD1 0xE6 MULMOD LOG0 MSTORE DUP13 NOT SWAP4 STOP MUL 0xDD PUSH28 0xC7DEC4DCEEDDA775E58DD541E08A116C6C53815C0BD028192F7B6268 STOP SWAP12 PUSH24 0x9B17422D0DF92223018B32B4D1FA46E071723D6817E2486D STOP EXTCODESIZE 0xEC 0xC5 PUSH0 STOP CREATE 0xC5 PUSH31 0x16840DF040F15088DC2F81FE391C3923BEC73E23A9662EFC9C229C6A00A264 PUSH10 0x70667358221220A697FB 0x4F DUP8 BASEFEE 0xEE SWAP10 STATICCALL 0x4E 0xC 0xAD GT JUMP 0x28 0xBB SSTORE TIMESTAMP 0xEC PUSH21 0x44463AD6094304EF4CD7DEB164736F6C634300081C STOP CALLER "},"methodIdentifiers":{"DEFAULT_ADMIN_ROLE()":"a217fddf","KYC_ADMIN_ROLE()":"02d7fd92","KYC_WITHDRAWAL_THRESHOLD()":"837b2a4d","VOTER_ROLE()":"a94015c8","aiOracle()":"31b221cd","approveCustomMilestones(uint256,string[],uint256[])":"095d16b2","approveMilestone(uint256,uint256)":"20913da5","autoRejectUnreviewedTreasuryGrants(uint256)":"2c3e6317","campaignContributors(uint256,uint256)":"ff96de21","campaignIds()":"6c1739ce","campaigns(uint256)":"141961bc","createCampaign(string,uint256,uint8,string[],uint256[],string,string,string)":"f59b8db3","currentQuarterStart()":"c6b647b9","daoTreasury()":"79022a9f","deleteCampaign(uint256)":"75970193","emergencyWithdrawalOverrides(address,uint256)":"5130691b","failedTransferBalances(address)":"f37beeb4","fundProject(uint256)":"6c563abe","getAvailableTreasuryFunds()":"5f0ede38","getCampaignMilestones(uint256)":"f91e4b29","getContributors(uint256)":"3c1ab00f","getCrowdfundedAmount(uint256)":"c966d402","getRoleAdmin(bytes32)":"248a9ca3","getUserContribution(uint256,address)":"5117e338","grantRole(bytes32,address)":"2f2ff15d","hasRole(bytes32,address)":"91d14854","initialize(address)":"c4d66de8","isKYCVerified(address)":"54b7636e","overrideAutoRejection(uint256)":"370560be","owner()":"8da5cb5b","ownerWithdraw(uint256)":"33f707d1","quarterlyFundsUsed()":"d59161ab","quarterlyTreasuryLimit()":"2855e693","refundUnspentFunds(uint256)":"92899236","rejectMilestone(uint256,uint256)":"3abe6bd7","renounceOwnership()":"715018a6","renounceRole(bytes32,address)":"36568abe","revokeRole(bytes32,address)":"d547741f","setAIOracle(address)":"1aa632b3","setEmergencyWithdrawalOverride(uint256,address,bool)":"b19954ca","setKYCVerified(address,bool)":"f40ed0d8","submitMilestoneProof(uint256,uint256,string)":"9f791e5f","supportsInterface(bytes4)":"01ffc9a7","transferOwnership(address)":"f2fde38b","updateKYCStatus(address,bool)":"53df9d76","updateTreasuryLimit()":"f21539d5","userContributions(address,uint256)":"7331fa95","voteCampaign(uint256)":"5f7ec46d","withdrawFailedTransfers(address)":"3fb0d90f","withdrawFunds(uint256)":"155dd5ee","withdrawMilestoneFunds(uint256,uint256)":"bfe26612"}},"storageLayout":{"storage":[{"astId":1447,"contract":"contracts/FundingPool.sol:FundingPool","label":"campaignIds","offset":0,"slot":"0","type":"t_uint256"},{"astId":1452,"contract":"contracts/FundingPool.sol:FundingPool","label":"campaigns","offset":0,"slot":"1","type":"t_mapping(t_uint256,t_struct(Campaign)1445_storage)"},{"astId":1458,"contract":"contracts/FundingPool.sol:FundingPool","label":"userContributions","offset":0,"slot":"2","type":"t_mapping(t_address,t_mapping(t_uint256,t_uint256))"},{"astId":1463,"contract":"contracts/FundingPool.sol:FundingPool","label":"campaignContributors","offset":0,"slot":"3","type":"t_mapping(t_uint256,t_array(t_address)dyn_storage)"},{"astId":1465,"contract":"contracts/FundingPool.sol:FundingPool","label":"daoTreasury","offset":0,"slot":"4","type":"t_address"},{"astId":1468,"contract":"contracts/FundingPool.sol:FundingPool","label":"aiOracle","offset":0,"slot":"5","type":"t_contract(IAIOracle)3985"},{"astId":1485,"contract":"contracts/FundingPool.sol:FundingPool","label":"quarterlyTreasuryLimit","offset":0,"slot":"6","type":"t_uint256"},{"astId":1487,"contract":"contracts/FundingPool.sol:FundingPool","label":"currentQuarterStart","offset":0,"slot":"7","type":"t_uint256"},{"astId":1489,"contract":"contracts/FundingPool.sol:FundingPool","label":"quarterlyFundsUsed","offset":0,"slot":"8","type":"t_uint256"},{"astId":1502,"contract":"contracts/FundingPool.sol:FundingPool","label":"isKYCVerified","offset":0,"slot":"9","type":"t_mapping(t_address,t_bool)"},{"astId":1508,"contract":"contracts/FundingPool.sol:FundingPool","label":"emergencyWithdrawalOverrides","offset":0,"slot":"10","type":"t_mapping(t_address,t_mapping(t_uint256,t_bool))"},{"astId":1512,"contract":"contracts/FundingPool.sol:FundingPool","label":"failedTransferBalances","offset":0,"slot":"11","type":"t_mapping(t_address,t_uint256)"},{"astId":3970,"contract":"contracts/FundingPool.sol:FundingPool","label":"__gap","offset":0,"slot":"12","type":"t_array(t_uint256)50_storage"}],"types":{"t_address":{"encoding":"inplace","label":"address","numberOfBytes":"20"},"t_array(t_address)dyn_storage":{"base":"t_address","encoding":"dynamic_array","label":"address[]","numberOfBytes":"32"},"t_array(t_struct(Milestone)1408_storage)dyn_storage":{"base":"t_struct(Milestone)1408_storage","encoding":"dynamic_array","label":"struct FundingPool.Milestone[]","numberOfBytes":"32"},"t_array(t_uint256)50_storage":{"base":"t_uint256","encoding":"inplace","label":"uint256[50]","numberOfBytes":"1600"},"t_bool":{"encoding":"inplace","label":"bool","numberOfBytes":"1"},"t_contract(IAIOracle)3985":{"encoding":"inplace","label":"contract IAIOracle","numberOfBytes":"20"},"t_enum(FundingType)1385":{"encoding":"inplace","label":"enum FundingPool.FundingType","numberOfBytes":"1"},"t_enum(Status)1382":{"encoding":"inplace","label":"enum FundingPool.Status","numberOfBytes":"1"},"t_mapping(t_address,t_bool)":{"encoding":"mapping","key":"t_address","label":"mapping(address => bool)","numberOfBytes":"32","value":"t_bool"},"t_mapping(t_address,t_mapping(t_uint256,t_bool))":{"encoding":"mapping","key":"t_address","label":"mapping(address => mapping(uint256 => bool))","numberOfBytes":"32","value":"t_mapping(t_uint256,t_bool)"},"t_mapping(t_address,t_mapping(t_uint256,t_uint256))":{"encoding":"mapping","key":"t_address","label":"mapping(address => mapping(uint256 => uint256))","numberOfBytes":"32","value":"t_mapping(t_uint256,t_uint256)"},"t_mapping(t_address,t_uint256)":{"encoding":"mapping","key":"t_address","label":"mapping(address => uint256)","numberOfBytes":"32","value":"t_uint256"},"t_mapping(t_uint256,t_array(t_address)dyn_storage)":{"encoding":"mapping","key":"t_uint256","label":"mapping(uint256 => address[])","numberOfBytes":"32","value":"t_array(t_address)dyn_storage"},"t_mapping(t_uint256,t_bool)":{"encoding":"mapping","key":"t_uint256","label":"mapping(uint256 => bool)","numberOfBytes":"32","value":"t_bool"},"t_mapping(t_uint256,t_struct(Campaign)1445_storage)":{"encoding":"mapping","key":"t_uint256","label":"mapping(uint256 => struct FundingPool.Campaign)","numberOfBytes":"32","value":"t_struct(Campaign)1445_storage"},"t_mapping(t_uint256,t_uint256)":{"encoding":"mapping","key":"t_uint256","label":"mapping(uint256 => uint256)","numberOfBytes":"32","value":"t_uint256"},"t_string_storage":{"encoding":"bytes","label":"string","numberOfBytes":"32"},"t_struct(Campaign)1445_storage":{"encoding":"inplace","label":"struct FundingPool.Campaign","members":[{"astId":1410,"contract":"contracts/FundingPool.sol:FundingPool","label":"name","offset":0,"slot":"0","type":"t_string_storage"},{"astId":1412,"contract":"contracts/FundingPool.sol:FundingPool","label":"creator","offset":0,"slot":"1","type":"t_address"},{"astId":1414,"contract":"contracts/FundingPool.sol:FundingPool","label":"fundingGoal","offset":0,"slot":"2","type":"t_uint256"},{"astId":1416,"contract":"contracts/FundingPool.sol:FundingPool","label":"deadline","offset":0,"slot":"3","type":"t_uint256"},{"astId":1418,"contract":"contracts/FundingPool.sol:FundingPool","label":"amountRaised","offset":0,"slot":"4","type":"t_uint256"},{"astId":1420,"contract":"contracts/FundingPool.sol:FundingPool","label":"crowdfundedAmount","offset":0,"slot":"5","type":"t_uint256"},{"astId":1423,"contract":"contracts/FundingPool.sol:FundingPool","label":"status","offset":0,"slot":"6","type":"t_enum(Status)1382"},{"astId":1426,"contract":"contracts/FundingPool.sol:FundingPool","label":"fundingType","offset":1,"slot":"6","type":"t_enum(FundingType)1385"},{"astId":1430,"contract":"contracts/FundingPool.sol:FundingPool","label":"milestones","offset":0,"slot":"7","type":"t_array(t_struct(Milestone)1408_storage)dyn_storage"},{"astId":1432,"contract":"contracts/FundingPool.sol:FundingPool","label":"withdrawnAmount","offset":0,"slot":"8","type":"t_uint256"},{"astId":1434,"contract":"contracts/FundingPool.sol:FundingPool","label":"crowdfundedWithdrawnAmount","offset":0,"slot":"9","type":"t_uint256"},{"astId":1436,"contract":"contracts/FundingPool.sol:FundingPool","label":"projectCID","offset":0,"slot":"10","type":"t_string_storage"},{"astId":1438,"contract":"contracts/FundingPool.sol:FundingPool","label":"heroMediaCID","offset":0,"slot":"11","type":"t_string_storage"},{"astId":1440,"contract":"contracts/FundingPool.sol:FundingPool","label":"description","offset":0,"slot":"12","type":"t_string_storage"},{"astId":1442,"contract":"contracts/FundingPool.sol:FundingPool","label":"createdAt","offset":0,"slot":"13","type":"t_uint256"},{"astId":1444,"contract":"contracts/FundingPool.sol:FundingPool","label":"applicationExpiry","offset":0,"slot":"14","type":"t_uint256"}],"numberOfBytes":"480"},"t_struct(Milestone)1408_storage":{"encoding":"inplace","label":"struct FundingPool.Milestone","members":[{"astId":1397,"contract":"contracts/FundingPool.sol:FundingPool","label":"description","offset":0,"slot":"0","type":"t_string_storage"},{"astId":1399,"contract":"contracts/FundingPool.sol:FundingPool","label":"amount","offset":0,"slot":"1","type":"t_uint256"},{"astId":1401,"contract":"contracts/FundingPool.sol:FundingPool","label":"completed","offset":0,"slot":"2","type":"t_bool"},{"astId":1403,"contract":"contracts/FundingPool.sol:FundingPool","label":"completedAt","offset":0,"slot":"3","type":"t_uint256"},{"astId":1405,"contract":"contracts/FundingPool.sol:FundingPool","label":"proofCID","offset":0,"slot":"4","type":"t_string_storage"},{"astId":1407,"contract":"contracts/FundingPool.sol:FundingPool","label":"rejectedAt","offset":0,"slot":"5","type":"t_uint256"}],"numberOfBytes":"192"},"t_uint256":{"encoding":"inplace","label":"uint256","numberOfBytes":"32"}}}}}}