{"contracts/AIOracle.sol":{"AIOracle":{"abi":[{"inputs":[],"stateMutability":"nonpayable","type":"constructor"},{"inputs":[{"internalType":"address","name":"owner","type":"address"}],"name":"OwnableInvalidOwner","type":"error"},{"inputs":[{"internalType":"address","name":"account","type":"address"}],"name":"OwnableUnauthorizedAccount","type":"error"},{"anonymous":false,"inputs":[{"indexed":true,"internalType":"address","name":"previousOwner","type":"address"},{"indexed":true,"internalType":"address","name":"newOwner","type":"address"}],"name":"OwnershipTransferred","type":"event"},{"inputs":[],"name":"owner","outputs":[{"internalType":"address","name":"","type":"address"}],"stateMutability":"view","type":"function"},{"inputs":[],"name":"renounceOwnership","outputs":[],"stateMutability":"nonpayable","type":"function"},{"inputs":[{"internalType":"uint256","name":"campaignId","type":"uint256"},{"internalType":"uint256","name":"milestoneId","type":"uint256"},{"internalType":"bool","name":"isValid","type":"bool"}],"name":"setValidationResult","outputs":[],"stateMutability":"nonpayable","type":"function"},{"inputs":[{"internalType":"address","name":"newOwner","type":"address"}],"name":"transferOwnership","outputs":[],"stateMutability":"nonpayable","type":"function"},{"inputs":[{"internalType":"uint256","name":"campaignId","type":"uint256"},{"internalType":"uint256","name":"milestoneId","type":"uint256"},{"internalType":"string","name":"proofCID","type":"string"}],"name":"validateMilestone","outputs":[{"internalType":"bool","name":"","type":"bool"}],"stateMutability":"view","type":"function"},{"inputs":[{"internalType":"uint256","name":"","type":"uint256"},{"internalType":"uint256","name":"","type":"uint256"}],"name":"validationResults","outputs":[{"internalType":"bool","name":"","type":"bool"}],"stateMutability":"view","type":"function"}],"evm":{"bytecode":{"linkReferences":{},"object":"608080604052346075573315605f5760008054336001600160a01b0319821681178355916001600160a01b03909116907f8be0079c531659141344cd1fd0a4f28419497f9722a3daafe3b4186f6b6457e09080a3610315908161007b8239f35b631e4fbdf760e01b600052600060045260246000fd5b600080fdfe608080604052600436101561001357600080fd5b60003560e01c90816349b0ce411461020a575080634d9f8487146101cb578063658a082e14610175578063715018a61461011c5780638da5cb5b146100f35763f2fde38b1461006157600080fd5b346100ee5760203660031901126100ee576004356001600160a01b038116908190036100ee5761008f6102b6565b80156100d857600080546001600160a01b03198116831782556001600160a01b0316907f8be0079c531659141344cd1fd0a4f28419497f9722a3daafe3b4186f6b6457e09080a3005b631e4fbdf760e01b600052600060045260246000fd5b600080fd5b346100ee5760003660031901126100ee576000546040516001600160a01b039091168152602090f35b346100ee5760003660031901126100ee576101356102b6565b600080546001600160a01b0319811682556001600160a01b03167f8be0079c531659141344cd1fd0a4f28419497f9722a3daafe3b4186f6b6457e08280a3005b346100ee5760603660031901126100ee576044358015158091036100ee5761019b6102b6565b6004356000526001602052604060002060243560005260205260406000209060ff80198354169116179055600080f35b346100ee5760403660031901126100ee5760043560005260016020526040600020602435600052602052602060ff604060002054166040519015158152f35b346100ee5760603660031901126100ee576044359067ffffffffffffffff82116100ee57366023830112156100ee57816004013567ffffffffffffffff81116102a057601f8101601f19908116603f0116820167ffffffffffffffff8111838210176102a05760405280825236602482850101116100ee5760208160009260248396018386013783010152511515604051908152f35b634e487b7160e01b600052604160045260246000fd5b6000546001600160a01b031633036102ca57565b63118cdaa760e01b6000523360045260246000fdfea264697066735822122093739d1da4443d8bceca7703371538f45a0c6049a9bed9874475abcae759514864736f6c634300081c0033","opcodes":"PUSH1 0x80 DUP1 PUSH1 0x40 MSTORE CALLVALUE PUSH1 0x75 JUMPI CALLER ISZERO PUSH1 0x5F JUMPI PUSH1 0x0 DUP1 SLOAD CALLER PUSH1 0x1 PUSH1 0x1 PUSH1 0xA0 SHL SUB NOT DUP3 AND DUP2 OR DUP4 SSTORE SWAP2 PUSH1 0x1 PUSH1 0x1 PUSH1 0xA0 SHL SUB SWAP1 SWAP2 AND SWAP1 PUSH32 0x8BE0079C531659141344CD1FD0A4F28419497F9722A3DAAFE3B4186F6B6457E0 SWAP1 DUP1 LOG3 PUSH2 0x315 SWAP1 DUP2 PUSH2 0x7B DUP3 CODECOPY RETURN JUMPDEST PUSH4 0x1E4FBDF7 PUSH1 0xE0 SHL PUSH1 0x0 MSTORE PUSH1 0x0 PUSH1 0x4 MSTORE PUSH1 0x24 PUSH1 0x0 REVERT JUMPDEST PUSH1 0x0 DUP1 REVERT INVALID PUSH1 0x80 DUP1 PUSH1 0x40 MSTORE PUSH1 0x4 CALLDATASIZE LT ISZERO PUSH2 0x13 JUMPI PUSH1 0x0 DUP1 REVERT JUMPDEST PUSH1 0x0 CALLDATALOAD PUSH1 0xE0 SHR SWAP1 DUP2 PUSH4 0x49B0CE41 EQ PUSH2 0x20A JUMPI POP DUP1 PUSH4 0x4D9F8487 EQ PUSH2 0x1CB JUMPI DUP1 PUSH4 0x658A082E EQ PUSH2 0x175 JUMPI DUP1 PUSH4 0x715018A6 EQ PUSH2 0x11C JUMPI DUP1 PUSH4 0x8DA5CB5B EQ PUSH2 0xF3 JUMPI PUSH4 0xF2FDE38B EQ PUSH2 0x61 JUMPI PUSH1 0x0 DUP1 REVERT JUMPDEST CALLVALUE PUSH2 0xEE JUMPI PUSH1 0x20 CALLDATASIZE PUSH1 0x3 NOT ADD SLT PUSH2 0xEE JUMPI PUSH1 0x4 CALLDATALOAD PUSH1 0x1 PUSH1 0x1 PUSH1 0xA0 SHL SUB DUP2 AND SWAP1 DUP2 SWAP1 SUB PUSH2 0xEE JUMPI PUSH2 0x8F PUSH2 0x2B6 JUMP JUMPDEST DUP1 ISZERO PUSH2 0xD8 JUMPI PUSH1 0x0 DUP1 SLOAD PUSH1 0x1 PUSH1 0x1 PUSH1 0xA0 SHL SUB NOT DUP2 AND DUP4 OR DUP3 SSTORE PUSH1 0x1 PUSH1 0x1 PUSH1 0xA0 SHL SUB AND SWAP1 PUSH32 0x8BE0079C531659141344CD1FD0A4F28419497F9722A3DAAFE3B4186F6B6457E0 SWAP1 DUP1 LOG3 STOP JUMPDEST PUSH4 0x1E4FBDF7 PUSH1 0xE0 SHL PUSH1 0x0 MSTORE PUSH1 0x0 PUSH1 0x4 MSTORE PUSH1 0x24 PUSH1 0x0 REVERT JUMPDEST PUSH1 0x0 DUP1 REVERT JUMPDEST CALLVALUE PUSH2 0xEE JUMPI PUSH1 0x0 CALLDATASIZE PUSH1 0x3 NOT ADD SLT PUSH2 0xEE JUMPI PUSH1 0x0 SLOAD PUSH1 0x40 MLOAD PUSH1 0x1 PUSH1 0x1 PUSH1 0xA0 SHL SUB SWAP1 SWAP2 AND DUP2 MSTORE PUSH1 0x20 SWAP1 RETURN JUMPDEST CALLVALUE PUSH2 0xEE JUMPI PUSH1 0x0 CALLDATASIZE PUSH1 0x3 NOT ADD SLT PUSH2 0xEE JUMPI PUSH2 0x135 PUSH2 0x2B6 JUMP JUMPDEST PUSH1 0x0 DUP1 SLOAD PUSH1 0x1 PUSH1 0x1 PUSH1 0xA0 SHL SUB NOT DUP2 AND DUP3 SSTORE PUSH1 0x1 PUSH1 0x1 PUSH1 0xA0 SHL SUB AND PUSH32 0x8BE0079C531659141344CD1FD0A4F28419497F9722A3DAAFE3B4186F6B6457E0 DUP3 DUP1 LOG3 STOP JUMPDEST CALLVALUE PUSH2 0xEE JUMPI PUSH1 0x60 CALLDATASIZE PUSH1 0x3 NOT ADD SLT PUSH2 0xEE JUMPI PUSH1 0x44 CALLDATALOAD DUP1 ISZERO ISZERO DUP1 SWAP2 SUB PUSH2 0xEE JUMPI PUSH2 0x19B PUSH2 0x2B6 JUMP JUMPDEST PUSH1 0x4 CALLDATALOAD PUSH1 0x0 MSTORE PUSH1 0x1 PUSH1 0x20 MSTORE PUSH1 0x40 PUSH1 0x0 KECCAK256 PUSH1 0x24 CALLDATALOAD PUSH1 0x0 MSTORE PUSH1 0x20 MSTORE PUSH1 0x40 PUSH1 0x0 KECCAK256 SWAP1 PUSH1 0xFF DUP1 NOT DUP4 SLOAD AND SWAP2 AND OR SWAP1 SSTORE PUSH1 0x0 DUP1 RETURN JUMPDEST CALLVALUE PUSH2 0xEE JUMPI PUSH1 0x40 CALLDATASIZE PUSH1 0x3 NOT ADD SLT PUSH2 0xEE JUMPI PUSH1 0x4 CALLDATALOAD PUSH1 0x0 MSTORE PUSH1 0x1 PUSH1 0x20 MSTORE PUSH1 0x40 PUSH1 0x0 KECCAK256 PUSH1 0x24 CALLDATALOAD PUSH1 0x0 MSTORE PUSH1 0x20 MSTORE PUSH1 0x20 PUSH1 0xFF PUSH1 0x40 PUSH1 0x0 KECCAK256 SLOAD AND PUSH1 0x40 MLOAD SWAP1 ISZERO ISZERO DUP2 MSTORE RETURN JUMPDEST CALLVALUE PUSH2 0xEE JUMPI PUSH1 0x60 CALLDATASIZE PUSH1 0x3 NOT ADD SLT PUSH2 0xEE JUMPI PUSH1 0x44 CALLDATALOAD SWAP1 PUSH8 0xFFFFFFFFFFFFFFFF DUP3 GT PUSH2 0xEE JUMPI CALLDATASIZE PUSH1 0x23 DUP4 ADD SLT ISZERO PUSH2 0xEE JUMPI DUP2 PUSH1 0x4 ADD CALLDATALOAD PUSH8 0xFFFFFFFFFFFFFFFF DUP2 GT PUSH2 0x2A0 JUMPI PUSH1 0x1F DUP2 ADD PUSH1 0x1F NOT SWAP1 DUP2 AND PUSH1 0x3F ADD AND DUP3 ADD PUSH8 0xFFFFFFFFFFFFFFFF DUP2 GT DUP4 DUP3 LT OR PUSH2 0x2A0 JUMPI PUSH1 0x40 MSTORE DUP1 DUP3 MSTORE CALLDATASIZE PUSH1 0x24 DUP3 DUP6 ADD ADD GT PUSH2 0xEE JUMPI PUSH1 0x20 DUP2 PUSH1 0x0 SWAP3 PUSH1 0x24 DUP4 SWAP7 ADD DUP4 DUP7 ADD CALLDATACOPY DUP4 ADD ADD MSTORE MLOAD ISZERO ISZERO PUSH1 0x40 MLOAD SWAP1 DUP2 MSTORE RETURN JUMPDEST PUSH4 0x4E487B71 PUSH1 0xE0 SHL PUSH1 0x0 MSTORE PUSH1 0x41 PUSH1 0x4 MSTORE PUSH1 0x24 PUSH1 0x0 REVERT JUMPDEST PUSH1 0x0 SLOAD PUSH1 0x1 PUSH1 0x1 PUSH1 0xA0 SHL SUB AND CALLER SUB PUSH2 0x2CA JUMPI JUMP JUMPDEST PUSH4 0x118CDAA7 PUSH1 0xE0 SHL PUSH1 0x0 MSTORE CALLER PUSH1 0x4 MSTORE PUSH1 0x24 PUSH1 0x0 REVERT INVALID LOG2 PUSH5 0x6970667358 0x22 SLT KECCAK256 SWAP4 PUSH20 0x9D1DA4443D8BCECA7703371538F45A0C6049A9BE 0xD9 DUP8 PREVRANDAO PUSH22 0xABCAE759514864736F6C634300081C00330000000000 "},"methodIdentifiers":{"owner()":"8da5cb5b","renounceOwnership()":"715018a6","setValidationResult(uint256,uint256,bool)":"658a082e","transferOwnership(address)":"f2fde38b","validateMilestone(uint256,uint256,string)":"49b0ce41","validationResults(uint256,uint256)":"4d9f8487"}},"storageLayout":{"storage":[{"astId":1118,"contract":"contracts/AIOracle.sol:AIOracle","label":"_owner","offset":0,"slot":"0","type":"t_address"},{"astId":1313,"contract":"contracts/AIOracle.sol:AIOracle","label":"validationResults","offset":0,"slot":"1","type":"t_mapping(t_uint256,t_mapping(t_uint256,t_bool))"}],"types":{"t_address":{"encoding":"inplace","label":"address","numberOfBytes":"20"},"t_bool":{"encoding":"inplace","label":"bool","numberOfBytes":"1"},"t_mapping(t_uint256,t_bool)":{"encoding":"mapping","key":"t_uint256","label":"mapping(uint256 => bool)","numberOfBytes":"32","value":"t_bool"},"t_mapping(t_uint256,t_mapping(t_uint256,t_bool))":{"encoding":"mapping","key":"t_uint256","label":"mapping(uint256 => mapping(uint256 => bool))","numberOfBytes":"32","value":"t_mapping(t_uint256,t_bool)"},"t_uint256":{"encoding":"inplace","label":"uint256","numberOfBytes":"32"}}}}}}