{
  "_format": "hh-sol-artifact-1",
  "contractName": "AIOracle",
  "sourceName": "contracts/AIOracle.sol",
  "abi": [
    {
      "inputs": [],
      "stateMutability": "nonpayable",
      "type": "constructor"
    },
    {
      "inputs": [
        {
          "internalType": "address",
          "name": "owner",
          "type": "address"
        }
      ],
      "name": "OwnableInvalidOwner",
      "type": "error"
    },
    {
      "inputs": [
        {
          "internalType": "address",
          "name": "account",
          "type": "address"
        }
      ],
      "name": "OwnableUnauthorizedAccount",
      "type": "error"
    },
    {
      "anonymous": false,
      "inputs": [
        {
          "indexed": true,
          "internalType": "address",
          "name": "previousOwner",
          "type": "address"
        },
        {
          "indexed": true,
          "internalType": "address",
          "name": "newOwner",
          "type": "address"
        }
      ],
      "name": "OwnershipTransferred",
      "type": "event"
    },
    {
      "inputs": [],
      "name": "owner",
      "outputs": [
        {
          "internalType": "address",
          "name": "",
          "type": "address"
        }
      ],
      "stateMutability": "view",
      "type": "function"
    },
    {
      "inputs": [],
      "name": "renounceOwnership",
      "outputs": [],
      "stateMutability": "nonpayable",
      "type": "function"
    },
    {
      "inputs": [
        {
          "internalType": "uint256",
          "name": "campaignId",
          "type": "uint256"
        },
        {
          "internalType": "uint256",
          "name": "milestoneId",
          "type": "uint256"
        },
        {
          "internalType": "bool",
          "name": "isValid",
          "type": "bool"
        }
      ],
      "name": "setValidationResult",
      "outputs": [],
      "stateMutability": "nonpayable",
      "type": "function"
    },
    {
      "inputs": [
        {
          "internalType": "address",
          "name": "newOwner",
          "type": "address"
        }
      ],
      "name": "transferOwnership",
      "outputs": [],
      "stateMutability": "nonpayable",
      "type": "function"
    },
    {
      "inputs": [
        {
          "internalType": "uint256",
          "name": "campaignId",
          "type": "uint256"
        },
        {
          "internalType": "uint256",
          "name": "milestoneId",
          "type": "uint256"
        },
        {
          "internalType": "string",
          "name": "proofCID",
          "type": "string"
        }
      ],
      "name": "validateMilestone",
      "outputs": [
        {
          "internalType": "bool",
          "name": "",
          "type": "bool"
        }
      ],
      "stateMutability": "view",
      "type": "function"
    },
    {
      "inputs": [
        {
          "internalType": "uint256",
          "name": "",
          "type": "uint256"
        },
        {
          "internalType": "uint256",
          "name": "",
          "type": "uint256"
        }
      ],
      "name": "validationResults",
      "outputs": [
        {
          "internalType": "bool",
          "name": "",
          "type": "bool"
        }
      ],
      "stateMutability": "view",
      "type": "function"
    }
  ],
  "bytecode": "0x608080604052346075573315605f5760008054336001600160a01b0319821681178355916001600160a01b03909116907f8be0079c531659141344cd1fd0a4f28419497f9722a3daafe3b4186f6b6457e09080a3610315908161007b8239f35b631e4fbdf760e01b600052600060045260246000fd5b600080fdfe608080604052600436101561001357600080fd5b60003560e01c90816349b0ce411461020a575080634d9f8487146101cb578063658a082e14610175578063715018a61461011c5780638da5cb5b146100f35763f2fde38b1461006157600080fd5b346100ee5760203660031901126100ee576004356001600160a01b038116908190036100ee5761008f6102b6565b80156100d857600080546001600160a01b03198116831782556001600160a01b0316907f8be0079c531659141344cd1fd0a4f28419497f9722a3daafe3b4186f6b6457e09080a3005b631e4fbdf760e01b600052600060045260246000fd5b600080fd5b346100ee5760003660031901126100ee576000546040516001600160a01b039091168152602090f35b346100ee5760003660031901126100ee576101356102b6565b600080546001600160a01b0319811682556001600160a01b03167f8be0079c531659141344cd1fd0a4f28419497f9722a3daafe3b4186f6b6457e08280a3005b346100ee5760603660031901126100ee576044358015158091036100ee5761019b6102b6565b6004356000526001602052604060002060243560005260205260406000209060ff80198354169116179055600080f35b346100ee5760403660031901126100ee5760043560005260016020526040600020602435600052602052602060ff604060002054166040519015158152f35b346100ee5760603660031901126100ee576044359067ffffffffffffffff82116100ee57366023830112156100ee57816004013567ffffffffffffffff81116102a057601f8101601f19908116603f0116820167ffffffffffffffff8111838210176102a05760405280825236602482850101116100ee5760208160009260248396018386013783010152511515604051908152f35b634e487b7160e01b600052604160045260246000fd5b6000546001600160a01b031633036102ca57565b63118cdaa760e01b6000523360045260246000fdfea264697066735822122093739d1da4443d8bceca7703371538f45a0c6049a9bed9874475abcae759514864736f6c634300081c0033",
  "linkReferences": {},
  "deployedLinkReferences": {}
}